{
	"functions.sol": {
		"createAddress": {
			"abi": [
				{
					"inputs": [
						{
							"internalType": "uint8",
							"name": "nonce",
							"type": "uint8"
						}
					],
					"name": "contractAddress",
					"outputs": [
						{
							"internalType": "address",
							"name": "",
							"type": "address"
						}
					],
					"stateMutability": "view",
					"type": "function"
				},
				{
					"inputs": [],
					"name": "retrieve",
					"outputs": [
						{
							"internalType": "address",
							"name": "",
							"type": "address"
						}
					],
					"stateMutability": "view",
					"type": "function"
				}
			],
			"devdoc": {
				"kind": "dev",
				"methods": {},
				"version": 1
			},
			"evm": {
				"assembly": "    /* \"functions.sol\":103:1774  contract createAddress{... */\n  mstore(0x40, 0x80)\n    /* \"functions.sol\":155:197  0xdEADBEeF00000000000000000000000000000000 */\n  0xdeadbeef00000000000000000000000000000000\n    /* \"functions.sol\":131:197  address senderAddress = 0xdEADBEeF00000000000000000000000000000000 */\n  0x00\n  exp(0x0100, 0x00)\n  dup2\n  sload\n  dup2\n  0xffffffffffffffffffffffffffffffffffffffff\n  mul\n  not\n  and\n  swap1\n  dup4\n  0xffffffffffffffffffffffffffffffffffffffff\n  and\n  mul\n  or\n  swap1\n  sstore\n  pop\n    /* \"functions.sol\":203:231  bytes10 myKey = \"verySecret\" */\n  0x7665727953656372657400000000000000000000000000000000000000000000\n  0x00\n  exp(0x0100, 0x14)\n  dup2\n  sload\n  dup2\n  0xffffffffffffffffffff\n  mul\n  not\n  and\n  swap1\n  dup4\n  0xb0\n  shr\n  mul\n  or\n  swap1\n  sstore\n  pop\n    /* \"functions.sol\":103:1774  contract createAddress{... */\n  callvalue\n  dup1\n  iszero\n  tag_1\n  jumpi\n  revert(0x00, 0x00)\ntag_1:\n  pop\n  dataSize(sub_0)\n  dup1\n  dataOffset(sub_0)\n  0x00\n  codecopy\n  0x00\n  return\nstop\n\nsub_0: assembly {\n        /* \"functions.sol\":103:1774  contract createAddress{... */\n      mstore(0x40, 0x80)\n      callvalue\n      dup1\n      iszero\n      tag_1\n      jumpi\n      revert(0x00, 0x00)\n    tag_1:\n      pop\n      jumpi(tag_2, lt(calldatasize, 0x04))\n      shr(0xe0, calldataload(0x00))\n      dup1\n      0x2e64cec1\n      eq\n      tag_3\n      jumpi\n      dup1\n      0x3eae68bb\n      eq\n      tag_4\n      jumpi\n    tag_2:\n      revert(0x00, 0x00)\n        /* \"functions.sol\":1686:1772  function retrieve() public view returns (address){... */\n    tag_3:\n      tag_5\n      tag_6\n      jump\t// in\n    tag_5:\n      mload(0x40)\n      tag_7\n      swap2\n      swap1\n      tag_8\n      jump\t// in\n    tag_7:\n      mload(0x40)\n      dup1\n      swap2\n      sub\n      swap1\n      return\n        /* \"functions.sol\":264:1376  function contractAddress(uint8 nonce) public view returns (address){... */\n    tag_4:\n      tag_9\n      0x04\n      dup1\n      calldatasize\n      sub\n      dup2\n      add\n      swap1\n      tag_10\n      swap2\n      swap1\n      tag_11\n      jump\t// in\n    tag_10:\n      tag_12\n      jump\t// in\n    tag_9:\n      mload(0x40)\n      tag_13\n      swap2\n      swap1\n      tag_8\n      jump\t// in\n    tag_13:\n      mload(0x40)\n      dup1\n      swap2\n      sub\n      swap1\n      return\n        /* \"functions.sol\":1686:1772  function retrieve() public view returns (address){... */\n    tag_6:\n        /* \"functions.sol\":1727:1734  address */\n      0x00\n        /* \"functions.sol\":1752:1765  senderAddress */\n      0x00\n      0x00\n      swap1\n      sload\n      swap1\n      0x0100\n      exp\n      swap1\n      div\n      0xffffffffffffffffffffffffffffffffffffffff\n      and\n        /* \"functions.sol\":1745:1765  return senderAddress */\n      swap1\n      pop\n        /* \"functions.sol\":1686:1772  function retrieve() public view returns (address){... */\n      swap1\n      jump\t// out\n        /* \"functions.sol\":264:1376  function contractAddress(uint8 nonce) public view returns (address){... */\n    tag_12:\n        /* \"functions.sol\":323:330  address */\n      0x00\n        /* \"functions.sol\":341:357  bytes memory rlp */\n      0x60\n        /* \"functions.sol\":437:438  0 */\n      0x00\n        /* \"functions.sol\":428:433  nonce */\n      dup4\n        /* \"functions.sol\":428:438  nonce == 0 */\n      0xff\n      and\n      sub\n        /* \"functions.sol\":424:963  if (nonce == 0){... */\n      tag_16\n      jumpi\n        /* \"functions.sol\":500:504  0xd5 */\n      0xd5\n        /* \"functions.sol\":493:505  bytes1(0xd5) */\n      0xf8\n      shl\n        /* \"functions.sol\":530:534  0x94 */\n      0x94\n        /* \"functions.sol\":523:535  bytes1(0x94) */\n      0xf8\n      shl\n        /* \"functions.sol\":553:566  senderAddress */\n      0x00\n      0x00\n      swap1\n      sload\n      swap1\n      0x0100\n      exp\n      swap1\n      div\n      0xffffffffffffffffffffffffffffffffffffffff\n      and\n        /* \"functions.sol\":585:596  bytes1(\" \") */\n      0x2000000000000000000000000000000000000000000000000000000000000000\n        /* \"functions.sol\":459:610  abi.encodePacked(... */\n      add(0x20, mload(0x40))\n      tag_17\n      swap5\n      swap4\n      swap3\n      swap2\n      swap1\n      tag_18\n      jump\t// in\n    tag_17:\n      mload(0x40)\n      0x20\n      dup2\n      dup4\n      sub\n      sub\n      dup2\n      mstore\n      swap1\n      0x40\n      mstore\n        /* \"functions.sol\":453:610  rlp = abi.encodePacked(... */\n      swap1\n      pop\n        /* \"functions.sol\":424:963  if (nonce == 0){... */\n      jump(tag_19)\n    tag_16:\n        /* \"functions.sol\":676:679  127 */\n      0x7f\n        /* \"functions.sol\":667:672  nonce */\n      dup4\n        /* \"functions.sol\":667:679  nonce <= 127 */\n      0xff\n      and\n      gt\n      iszero\n        /* \"functions.sol\":667:692  nonce <= 127 && nonce > 0 */\n      dup1\n      iszero\n      tag_20\n      jumpi\n      pop\n        /* \"functions.sol\":691:692  0 */\n      0x00\n        /* \"functions.sol\":683:688  nonce */\n      dup4\n        /* \"functions.sol\":683:692  nonce > 0 */\n      0xff\n      and\n      gt\n        /* \"functions.sol\":667:692  nonce <= 127 && nonce > 0 */\n    tag_20:\n        /* \"functions.sol\":663:963  if (nonce <= 127 && nonce > 0){... */\n      iszero\n      tag_21\n      jumpi\n        /* \"functions.sol\":754:758  0xd5 */\n      0xd5\n        /* \"functions.sol\":747:759  bytes1(0xd5) */\n      0xf8\n      shl\n        /* \"functions.sol\":784:788  0x94 */\n      0x94\n        /* \"functions.sol\":777:789  bytes1(0x94) */\n      0xf8\n      shl\n        /* \"functions.sol\":807:820  senderAddress */\n      0x00\n      0x00\n      swap1\n      sload\n      swap1\n      0x0100\n      exp\n      swap1\n      div\n      0xffffffffffffffffffffffffffffffffffffffff\n      and\n        /* \"functions.sol\":852:857  nonce */\n      dup6\n        /* \"functions.sol\":839:859  bytes1(uint8(nonce)) */\n      0xf8\n      shl\n        /* \"functions.sol\":713:873  abi.encodePacked(... */\n      add(0x20, mload(0x40))\n      tag_22\n      swap5\n      swap4\n      swap3\n      swap2\n      swap1\n      tag_18\n      jump\t// in\n    tag_22:\n      mload(0x40)\n      0x20\n      dup2\n      dup4\n      sub\n      sub\n      dup2\n      mstore\n      swap1\n      0x40\n      mstore\n        /* \"functions.sol\":707:873  rlp = abi.encodePacked(... */\n      swap1\n      pop\n        /* \"functions.sol\":663:963  if (nonce <= 127 && nonce > 0){... */\n      jump(tag_23)\n    tag_21:\n        /* \"functions.sol\":910:963  revert(\"The nonce is to high to count it manually\\n\") */\n      mload(0x40)\n      0x08c379a000000000000000000000000000000000000000000000000000000000\n      dup2\n      mstore\n      0x04\n      add\n      tag_24\n      swap1\n      tag_25\n      jump\t// in\n    tag_24:\n      mload(0x40)\n      dup1\n      swap2\n      sub\n      swap1\n      revert\n        /* \"functions.sol\":663:963  if (nonce <= 127 && nonce > 0){... */\n    tag_23:\n        /* \"functions.sol\":424:963  if (nonce == 0){... */\n    tag_19:\n        /* \"functions.sol\":1112:1124  bytes32 hash */\n      0x00\n        /* \"functions.sol\":1137:1140  rlp */\n      dup2\n        /* \"functions.sol\":1127:1141  keccak256(rlp) */\n      dup1\n      mload\n      swap1\n      0x20\n      add\n      keccak256\n        /* \"functions.sol\":1112:1141  bytes32 hash = keccak256(rlp) */\n      swap1\n      pop\n        /* \"functions.sol\":1282:1304  address finallyAddress */\n      0x00\n        /* \"functions.sol\":1331:1335  hash */\n      dup2\n        /* \"functions.sol\":1323:1336  uint256(hash) */\n      0x00\n      shr\n        /* \"functions.sol\":1282:1338  address finallyAddress = address(uint160(uint256(hash))) */\n      swap1\n      pop\n        /* \"functions.sol\":1355:1369  finallyAddress */\n      dup1\n        /* \"functions.sol\":1348:1369  return finallyAddress */\n      swap4\n      pop\n      pop\n      pop\n      pop\n        /* \"functions.sol\":264:1376  function contractAddress(uint8 nonce) public view returns (address){... */\n      swap2\n      swap1\n      pop\n      jump\t// out\n        /* \"#utility.yul\":7:133   */\n    tag_26:\n        /* \"#utility.yul\":44:51   */\n      0x00\n        /* \"#utility.yul\":84:126   */\n      0xffffffffffffffffffffffffffffffffffffffff\n        /* \"#utility.yul\":77:82   */\n      dup3\n        /* \"#utility.yul\":73:127   */\n      and\n        /* \"#utility.yul\":62:127   */\n      swap1\n      pop\n        /* \"#utility.yul\":7:133   */\n      swap2\n      swap1\n      pop\n      jump\t// out\n        /* \"#utility.yul\":139:235   */\n    tag_27:\n        /* \"#utility.yul\":176:183   */\n      0x00\n        /* \"#utility.yul\":205:229   */\n      tag_48\n        /* \"#utility.yul\":223:228   */\n      dup3\n        /* \"#utility.yul\":205:229   */\n      tag_26\n      jump\t// in\n    tag_48:\n        /* \"#utility.yul\":194:229   */\n      swap1\n      pop\n        /* \"#utility.yul\":139:235   */\n      swap2\n      swap1\n      pop\n      jump\t// out\n        /* \"#utility.yul\":241:359   */\n    tag_28:\n        /* \"#utility.yul\":328:352   */\n      tag_50\n        /* \"#utility.yul\":346:351   */\n      dup2\n        /* \"#utility.yul\":328:352   */\n      tag_27\n      jump\t// in\n    tag_50:\n        /* \"#utility.yul\":323:326   */\n      dup3\n        /* \"#utility.yul\":316:353   */\n      mstore\n        /* \"#utility.yul\":241:359   */\n      pop\n      pop\n      jump\t// out\n        /* \"#utility.yul\":365:587   */\n    tag_8:\n        /* \"#utility.yul\":458:462   */\n      0x00\n        /* \"#utility.yul\":496:498   */\n      0x20\n        /* \"#utility.yul\":485:494   */\n      dup3\n        /* \"#utility.yul\":481:499   */\n      add\n        /* \"#utility.yul\":473:499   */\n      swap1\n      pop\n        /* \"#utility.yul\":509:580   */\n      tag_52\n        /* \"#utility.yul\":577:578   */\n      0x00\n        /* \"#utility.yul\":566:575   */\n      dup4\n        /* \"#utility.yul\":562:579   */\n      add\n        /* \"#utility.yul\":553:559   */\n      dup5\n        /* \"#utility.yul\":509:580   */\n      tag_28\n      jump\t// in\n    tag_52:\n        /* \"#utility.yul\":365:587   */\n      swap3\n      swap2\n      pop\n      pop\n      jump\t// out\n        /* \"#utility.yul\":674:791   */\n    tag_30:\n        /* \"#utility.yul\":783:784   */\n      0x00\n        /* \"#utility.yul\":780:781   */\n      0x00\n        /* \"#utility.yul\":773:785   */\n      revert\n        /* \"#utility.yul\":920:1006   */\n    tag_32:\n        /* \"#utility.yul\":955:962   */\n      0x00\n        /* \"#utility.yul\":995:999   */\n      0xff\n        /* \"#utility.yul\":988:993   */\n      dup3\n        /* \"#utility.yul\":984:1000   */\n      and\n        /* \"#utility.yul\":973:1000   */\n      swap1\n      pop\n        /* \"#utility.yul\":920:1006   */\n      swap2\n      swap1\n      pop\n      jump\t// out\n        /* \"#utility.yul\":1012:1130   */\n    tag_33:\n        /* \"#utility.yul\":1083:1105   */\n      tag_58\n        /* \"#utility.yul\":1099:1104   */\n      dup2\n        /* \"#utility.yul\":1083:1105   */\n      tag_32\n      jump\t// in\n    tag_58:\n        /* \"#utility.yul\":1076:1081   */\n      dup2\n        /* \"#utility.yul\":1073:1106   */\n      eq\n        /* \"#utility.yul\":1063:1124   */\n      tag_59\n      jumpi\n        /* \"#utility.yul\":1120:1121   */\n      0x00\n        /* \"#utility.yul\":1117:1118   */\n      0x00\n        /* \"#utility.yul\":1110:1122   */\n      revert\n        /* \"#utility.yul\":1063:1124   */\n    tag_59:\n        /* \"#utility.yul\":1012:1130   */\n      pop\n      jump\t// out\n        /* \"#utility.yul\":1136:1271   */\n    tag_34:\n        /* \"#utility.yul\":1180:1185   */\n      0x00\n        /* \"#utility.yul\":1218:1224   */\n      dup2\n        /* \"#utility.yul\":1205:1225   */\n      calldataload\n        /* \"#utility.yul\":1196:1225   */\n      swap1\n      pop\n        /* \"#utility.yul\":1234:1265   */\n      tag_61\n        /* \"#utility.yul\":1259:1264   */\n      dup2\n        /* \"#utility.yul\":1234:1265   */\n      tag_33\n      jump\t// in\n    tag_61:\n        /* \"#utility.yul\":1136:1271   */\n      swap3\n      swap2\n      pop\n      pop\n      jump\t// out\n        /* \"#utility.yul\":1277:1602   */\n    tag_11:\n        /* \"#utility.yul\":1334:1340   */\n      0x00\n        /* \"#utility.yul\":1383:1385   */\n      0x20\n        /* \"#utility.yul\":1371:1380   */\n      dup3\n        /* \"#utility.yul\":1362:1369   */\n      dup5\n        /* \"#utility.yul\":1358:1381   */\n      sub\n        /* \"#utility.yul\":1354:1386   */\n      slt\n        /* \"#utility.yul\":1351:1470   */\n      iszero\n      tag_63\n      jumpi\n        /* \"#utility.yul\":1389:1468   */\n      tag_64\n      tag_30\n      jump\t// in\n    tag_64:\n        /* \"#utility.yul\":1351:1470   */\n    tag_63:\n        /* \"#utility.yul\":1509:1510   */\n      0x00\n        /* \"#utility.yul\":1534:1585   */\n      tag_65\n        /* \"#utility.yul\":1577:1584   */\n      dup5\n        /* \"#utility.yul\":1568:1574   */\n      dup3\n        /* \"#utility.yul\":1557:1566   */\n      dup6\n        /* \"#utility.yul\":1553:1575   */\n      add\n        /* \"#utility.yul\":1534:1585   */\n      tag_34\n      jump\t// in\n    tag_65:\n        /* \"#utility.yul\":1524:1585   */\n      swap2\n      pop\n        /* \"#utility.yul\":1480:1595   */\n      pop\n        /* \"#utility.yul\":1277:1602   */\n      swap3\n      swap2\n      pop\n      pop\n      jump\t// out\n        /* \"#utility.yul\":1608:1757   */\n    tag_35:\n        /* \"#utility.yul\":1644:1651   */\n      0x00\n        /* \"#utility.yul\":1684:1750   */\n      0xff00000000000000000000000000000000000000000000000000000000000000\n        /* \"#utility.yul\":1677:1682   */\n      dup3\n        /* \"#utility.yul\":1673:1751   */\n      and\n        /* \"#utility.yul\":1662:1751   */\n      swap1\n      pop\n        /* \"#utility.yul\":1608:1757   */\n      swap2\n      swap1\n      pop\n      jump\t// out\n        /* \"#utility.yul\":1763:1841   */\n    tag_36:\n        /* \"#utility.yul\":1801:1808   */\n      0x00\n        /* \"#utility.yul\":1830:1835   */\n      dup2\n        /* \"#utility.yul\":1819:1835   */\n      swap1\n      pop\n        /* \"#utility.yul\":1763:1841   */\n      swap2\n      swap1\n      pop\n      jump\t// out\n        /* \"#utility.yul\":1847:2000   */\n    tag_37:\n        /* \"#utility.yul\":1950:1993   */\n      tag_69\n        /* \"#utility.yul\":1969:1992   */\n      tag_70\n        /* \"#utility.yul\":1986:1991   */\n      dup3\n        /* \"#utility.yul\":1969:1992   */\n      tag_35\n      jump\t// in\n    tag_70:\n        /* \"#utility.yul\":1950:1993   */\n      tag_36\n      jump\t// in\n    tag_69:\n        /* \"#utility.yul\":1945:1948   */\n      dup3\n        /* \"#utility.yul\":1938:1994   */\n      mstore\n        /* \"#utility.yul\":1847:2000   */\n      pop\n      pop\n      jump\t// out\n        /* \"#utility.yul\":2006:2100   */\n    tag_38:\n        /* \"#utility.yul\":2039:2047   */\n      0x00\n        /* \"#utility.yul\":2087:2092   */\n      dup2\n        /* \"#utility.yul\":2083:2085   */\n      0x60\n        /* \"#utility.yul\":2079:2093   */\n      shl\n        /* \"#utility.yul\":2058:2093   */\n      swap1\n      pop\n        /* \"#utility.yul\":2006:2100   */\n      swap2\n      swap1\n      pop\n      jump\t// out\n        /* \"#utility.yul\":2106:2200   */\n    tag_39:\n        /* \"#utility.yul\":2145:2152   */\n      0x00\n        /* \"#utility.yul\":2174:2194   */\n      tag_73\n        /* \"#utility.yul\":2188:2193   */\n      dup3\n        /* \"#utility.yul\":2174:2194   */\n      tag_38\n      jump\t// in\n    tag_73:\n        /* \"#utility.yul\":2163:2194   */\n      swap1\n      pop\n        /* \"#utility.yul\":2106:2200   */\n      swap2\n      swap1\n      pop\n      jump\t// out\n        /* \"#utility.yul\":2206:2306   */\n    tag_40:\n        /* \"#utility.yul\":2245:2252   */\n      0x00\n        /* \"#utility.yul\":2274:2300   */\n      tag_75\n        /* \"#utility.yul\":2294:2299   */\n      dup3\n        /* \"#utility.yul\":2274:2300   */\n      tag_39\n      jump\t// in\n    tag_75:\n        /* \"#utility.yul\":2263:2300   */\n      swap1\n      pop\n        /* \"#utility.yul\":2206:2306   */\n      swap2\n      swap1\n      pop\n      jump\t// out\n        /* \"#utility.yul\":2312:2469   */\n    tag_41:\n        /* \"#utility.yul\":2417:2462   */\n      tag_77\n        /* \"#utility.yul\":2437:2461   */\n      tag_78\n        /* \"#utility.yul\":2455:2460   */\n      dup3\n        /* \"#utility.yul\":2437:2461   */\n      tag_27\n      jump\t// in\n    tag_78:\n        /* \"#utility.yul\":2417:2462   */\n      tag_40\n      jump\t// in\n    tag_77:\n        /* \"#utility.yul\":2412:2415   */\n      dup3\n        /* \"#utility.yul\":2405:2463   */\n      mstore\n        /* \"#utility.yul\":2312:2469   */\n      pop\n      pop\n      jump\t// out\n        /* \"#utility.yul\":2475:3139   */\n    tag_18:\n        /* \"#utility.yul\":2665:2668   */\n      0x00\n        /* \"#utility.yul\":2680:2753   */\n      tag_80\n        /* \"#utility.yul\":2749:2752   */\n      dup3\n        /* \"#utility.yul\":2740:2746   */\n      dup8\n        /* \"#utility.yul\":2680:2753   */\n      tag_37\n      jump\t// in\n    tag_80:\n        /* \"#utility.yul\":2778:2779   */\n      0x01\n        /* \"#utility.yul\":2773:2776   */\n      dup3\n        /* \"#utility.yul\":2769:2780   */\n      add\n        /* \"#utility.yul\":2762:2780   */\n      swap2\n      pop\n        /* \"#utility.yul\":2790:2863   */\n      tag_81\n        /* \"#utility.yul\":2859:2862   */\n      dup3\n        /* \"#utility.yul\":2850:2856   */\n      dup7\n        /* \"#utility.yul\":2790:2863   */\n      tag_37\n      jump\t// in\n    tag_81:\n        /* \"#utility.yul\":2888:2889   */\n      0x01\n        /* \"#utility.yul\":2883:2886   */\n      dup3\n        /* \"#utility.yul\":2879:2890   */\n      add\n        /* \"#utility.yul\":2872:2890   */\n      swap2\n      pop\n        /* \"#utility.yul\":2900:2975   */\n      tag_82\n        /* \"#utility.yul\":2971:2974   */\n      dup3\n        /* \"#utility.yul\":2962:2968   */\n      dup6\n        /* \"#utility.yul\":2900:2975   */\n      tag_41\n      jump\t// in\n    tag_82:\n        /* \"#utility.yul\":3000:3002   */\n      0x14\n        /* \"#utility.yul\":2995:2998   */\n      dup3\n        /* \"#utility.yul\":2991:3003   */\n      add\n        /* \"#utility.yul\":2984:3003   */\n      swap2\n      pop\n        /* \"#utility.yul\":3013:3086   */\n      tag_83\n        /* \"#utility.yul\":3082:3085   */\n      dup3\n        /* \"#utility.yul\":3073:3079   */\n      dup5\n        /* \"#utility.yul\":3013:3086   */\n      tag_37\n      jump\t// in\n    tag_83:\n        /* \"#utility.yul\":3111:3112   */\n      0x01\n        /* \"#utility.yul\":3106:3109   */\n      dup3\n        /* \"#utility.yul\":3102:3113   */\n      add\n        /* \"#utility.yul\":3095:3113   */\n      swap2\n      pop\n        /* \"#utility.yul\":3130:3133   */\n      dup2\n        /* \"#utility.yul\":3123:3133   */\n      swap1\n      pop\n        /* \"#utility.yul\":2475:3139   */\n      swap6\n      swap5\n      pop\n      pop\n      pop\n      pop\n      pop\n      jump\t// out\n        /* \"#utility.yul\":3145:3314   */\n    tag_42:\n        /* \"#utility.yul\":3229:3240   */\n      0x00\n        /* \"#utility.yul\":3263:3269   */\n      dup3\n        /* \"#utility.yul\":3258:3261   */\n      dup3\n        /* \"#utility.yul\":3251:3270   */\n      mstore\n        /* \"#utility.yul\":3303:3307   */\n      0x20\n        /* \"#utility.yul\":3298:3301   */\n      dup3\n        /* \"#utility.yul\":3294:3308   */\n      add\n        /* \"#utility.yul\":3279:3308   */\n      swap1\n      pop\n        /* \"#utility.yul\":3145:3314   */\n      swap3\n      swap2\n      pop\n      pop\n      jump\t// out\n        /* \"#utility.yul\":3320:3603   */\n    tag_43:\n        /* \"#utility.yul\":3460:3494   */\n      0x546865206e6f6e636520697320746f206869676820746f20636f756e74206974\n        /* \"#utility.yul\":3456:3457   */\n      0x00\n        /* \"#utility.yul\":3448:3454   */\n      dup3\n        /* \"#utility.yul\":3444:3458   */\n      add\n        /* \"#utility.yul\":3437:3495   */\n      mstore\n        /* \"#utility.yul\":3529:3595   */\n      0x206d616e75616c6c790a00000000000000000000000000000000000000000000\n        /* \"#utility.yul\":3524:3526   */\n      0x20\n        /* \"#utility.yul\":3516:3522   */\n      dup3\n        /* \"#utility.yul\":3512:3527   */\n      add\n        /* \"#utility.yul\":3505:3596   */\n      mstore\n        /* \"#utility.yul\":3320:3603   */\n      pop\n      jump\t// out\n        /* \"#utility.yul\":3609:3975   */\n    tag_44:\n        /* \"#utility.yul\":3751:3754   */\n      0x00\n        /* \"#utility.yul\":3772:3839   */\n      tag_87\n        /* \"#utility.yul\":3836:3838   */\n      0x2a\n        /* \"#utility.yul\":3831:3834   */\n      dup4\n        /* \"#utility.yul\":3772:3839   */\n      tag_42\n      jump\t// in\n    tag_87:\n        /* \"#utility.yul\":3765:3839   */\n      swap2\n      pop\n        /* \"#utility.yul\":3848:3941   */\n      tag_88\n        /* \"#utility.yul\":3937:3940   */\n      dup3\n        /* \"#utility.yul\":3848:3941   */\n      tag_43\n      jump\t// in\n    tag_88:\n        /* \"#utility.yul\":3966:3968   */\n      0x40\n        /* \"#utility.yul\":3961:3964   */\n      dup3\n        /* \"#utility.yul\":3957:3969   */\n      add\n        /* \"#utility.yul\":3950:3969   */\n      swap1\n      pop\n        /* \"#utility.yul\":3609:3975   */\n      swap2\n      swap1\n      pop\n      jump\t// out\n        /* \"#utility.yul\":3981:4400   */\n    tag_25:\n        /* \"#utility.yul\":4147:4151   */\n      0x00\n        /* \"#utility.yul\":4185:4187   */\n      0x20\n        /* \"#utility.yul\":4174:4183   */\n      dup3\n        /* \"#utility.yul\":4170:4188   */\n      add\n        /* \"#utility.yul\":4162:4188   */\n      swap1\n      pop\n        /* \"#utility.yul\":4234:4243   */\n      dup2\n        /* \"#utility.yul\":4228:4232   */\n      dup2\n        /* \"#utility.yul\":4224:4244   */\n      sub\n        /* \"#utility.yul\":4220:4221   */\n      0x00\n        /* \"#utility.yul\":4209:4218   */\n      dup4\n        /* \"#utility.yul\":4205:4222   */\n      add\n        /* \"#utility.yul\":4198:4245   */\n      mstore\n        /* \"#utility.yul\":4262:4393   */\n      tag_90\n        /* \"#utility.yul\":4388:4392   */\n      dup2\n        /* \"#utility.yul\":4262:4393   */\n      tag_44\n      jump\t// in\n    tag_90:\n        /* \"#utility.yul\":4254:4393   */\n      swap1\n      pop\n        /* \"#utility.yul\":3981:4400   */\n      swap2\n      swap1\n      pop\n      jump\t// out\n\n    auxdata: 0xa264697066735822122001800085326af29fb1b62fab2953ba92a4983c04fcff5ab7781cbe4f4e99808764736f6c634300081e0033\n}\n",
				"bytecode": {
					"linkReferences": {},
					"object": "608060405273deadbeef000000000000000000000000000000005f5f6101000a81548173ffffffffffffffffffffffffffffffffffffffff021916908373ffffffffffffffffffffffffffffffffffffffff1602179055507f76657279536563726574000000000000000000000000000000000000000000005f60146101000a81548169ffffffffffffffffffff021916908360b01c021790555034801560a4575f5ffd5b50610468806100b25f395ff3fe608060405234801561000f575f5ffd5b5060043610610034575f3560e01c80632e64cec1146100385780633eae68bb14610056575b5f5ffd5b610040610086565b60405161004d9190610239565b60405180910390f35b610070600480360381019061006b919061028c565b6100ad565b60405161007d9190610239565b60405180910390f35b5f5f5f9054906101000a900473ffffffffffffffffffffffffffffffffffffffff16905090565b5f60605f8360ff160361012f5760d560f81b609460f81b5f5f9054906101000a900473ffffffffffffffffffffffffffffffffffffffff167f20000000000000000000000000000000000000000000000000000000000000006040516020016101199493929190610347565b60405160208183030381529060405290506101de565b607f8360ff161115801561014557505f8360ff16115b156101a25760d560f81b609460f81b5f5f9054906101000a900473ffffffffffffffffffffffffffffffffffffffff168560f81b60405160200161018c9493929190610347565b60405160208183030381529060405290506101dd565b6040517f08c379a00000000000000000000000000000000000000000000000000000000081526004016101d490610414565b60405180910390fd5b5b5f818051906020012090505f815f1c9050809350505050919050565b5f73ffffffffffffffffffffffffffffffffffffffff82169050919050565b5f610223826101fa565b9050919050565b61023381610219565b82525050565b5f60208201905061024c5f83018461022a565b92915050565b5f5ffd5b5f60ff82169050919050565b61026b81610256565b8114610275575f5ffd5b50565b5f8135905061028681610262565b92915050565b5f602082840312156102a1576102a0610252565b5b5f6102ae84828501610278565b91505092915050565b5f7fff0000000000000000000000000000000000000000000000000000000000000082169050919050565b5f819050919050565b6102fc6102f7826102b7565b6102e2565b82525050565b5f8160601b9050919050565b5f61031882610302565b9050919050565b5f6103298261030e565b9050919050565b61034161033c82610219565b61031f565b82525050565b5f61035282876102eb565b60018201915061036282866102eb565b6001820191506103728285610330565b60148201915061038282846102eb565b60018201915081905095945050505050565b5f82825260208201905092915050565b7f546865206e6f6e636520697320746f206869676820746f20636f756e742069745f8201527f206d616e75616c6c790a00000000000000000000000000000000000000000000602082015250565b5f6103fe602a83610394565b9150610409826103a4565b604082019050919050565b5f6020820190508181035f83015261042b816103f2565b905091905056fea264697066735822122001800085326af29fb1b62fab2953ba92a4983c04fcff5ab7781cbe4f4e99808764736f6c634300081e0033",
					"opcodes": "PUSH1 0x80 PUSH1 0x40 MSTORE PUSH20 0xDEADBEEF00000000000000000000000000000000 PUSH0 PUSH0 PUSH2 0x100 EXP DUP2 SLOAD DUP2 PUSH20 0xFFFFFFFFFFFFFFFFFFFFFFFFFFFFFFFFFFFFFFFF MUL NOT AND SWAP1 DUP4 PUSH20 0xFFFFFFFFFFFFFFFFFFFFFFFFFFFFFFFFFFFFFFFF AND MUL OR SWAP1 SSTORE POP PUSH32 0x7665727953656372657400000000000000000000000000000000000000000000 PUSH0 PUSH1 0x14 PUSH2 0x100 EXP DUP2 SLOAD DUP2 PUSH10 0xFFFFFFFFFFFFFFFFFFFF MUL NOT AND SWAP1 DUP4 PUSH1 0xB0 SHR MUL OR SWAP1 SSTORE POP CALLVALUE DUP1 ISZERO PUSH1 0xA4 JUMPI PUSH0 PUSH0 REVERT JUMPDEST POP PUSH2 0x468 DUP1 PUSH2 0xB2 PUSH0 CODECOPY PUSH0 RETURN INVALID PUSH1 0x80 PUSH1 0x40 MSTORE CALLVALUE DUP1 ISZERO PUSH2 0xF JUMPI PUSH0 PUSH0 REVERT JUMPDEST POP PUSH1 0x4 CALLDATASIZE LT PUSH2 0x34 JUMPI PUSH0 CALLDATALOAD PUSH1 0xE0 SHR DUP1 PUSH4 0x2E64CEC1 EQ PUSH2 0x38 JUMPI DUP1 PUSH4 0x3EAE68BB EQ PUSH2 0x56 JUMPI JUMPDEST PUSH0 PUSH0 REVERT JUMPDEST PUSH2 0x40 PUSH2 0x86 JUMP JUMPDEST PUSH1 0x40 MLOAD PUSH2 0x4D SWAP2 SWAP1 PUSH2 0x239 JUMP JUMPDEST PUSH1 0x40 MLOAD DUP1 SWAP2 SUB SWAP1 RETURN JUMPDEST PUSH2 0x70 PUSH1 0x4 DUP1 CALLDATASIZE SUB DUP2 ADD SWAP1 PUSH2 0x6B SWAP2 SWAP1 PUSH2 0x28C JUMP JUMPDEST PUSH2 0xAD JUMP JUMPDEST PUSH1 0x40 MLOAD PUSH2 0x7D SWAP2 SWAP1 PUSH2 0x239 JUMP JUMPDEST PUSH1 0x40 MLOAD DUP1 SWAP2 SUB SWAP1 RETURN JUMPDEST PUSH0 PUSH0 PUSH0 SWAP1 SLOAD SWAP1 PUSH2 0x100 EXP SWAP1 DIV PUSH20 0xFFFFFFFFFFFFFFFFFFFFFFFFFFFFFFFFFFFFFFFF AND SWAP1 POP SWAP1 JUMP JUMPDEST PUSH0 PUSH1 0x60 PUSH0 DUP4 PUSH1 0xFF AND SUB PUSH2 0x12F JUMPI PUSH1 0xD5 PUSH1 0xF8 SHL PUSH1 0x94 PUSH1 0xF8 SHL PUSH0 PUSH0 SWAP1 SLOAD SWAP1 PUSH2 0x100 EXP SWAP1 DIV PUSH20 0xFFFFFFFFFFFFFFFFFFFFFFFFFFFFFFFFFFFFFFFF AND PUSH32 0x2000000000000000000000000000000000000000000000000000000000000000 PUSH1 0x40 MLOAD PUSH1 0x20 ADD PUSH2 0x119 SWAP5 SWAP4 SWAP3 SWAP2 SWAP1 PUSH2 0x347 JUMP JUMPDEST PUSH1 0x40 MLOAD PUSH1 0x20 DUP2 DUP4 SUB SUB DUP2 MSTORE SWAP1 PUSH1 0x40 MSTORE SWAP1 POP PUSH2 0x1DE JUMP JUMPDEST PUSH1 0x7F DUP4 PUSH1 0xFF AND GT ISZERO DUP1 ISZERO PUSH2 0x145 JUMPI POP PUSH0 DUP4 PUSH1 0xFF AND GT JUMPDEST ISZERO PUSH2 0x1A2 JUMPI PUSH1 0xD5 PUSH1 0xF8 SHL PUSH1 0x94 PUSH1 0xF8 SHL PUSH0 PUSH0 SWAP1 SLOAD SWAP1 PUSH2 0x100 EXP SWAP1 DIV PUSH20 0xFFFFFFFFFFFFFFFFFFFFFFFFFFFFFFFFFFFFFFFF AND DUP6 PUSH1 0xF8 SHL PUSH1 0x40 MLOAD PUSH1 0x20 ADD PUSH2 0x18C SWAP5 SWAP4 SWAP3 SWAP2 SWAP1 PUSH2 0x347 JUMP JUMPDEST PUSH1 0x40 MLOAD PUSH1 0x20 DUP2 DUP4 SUB SUB DUP2 MSTORE SWAP1 PUSH1 0x40 MSTORE SWAP1 POP PUSH2 0x1DD JUMP JUMPDEST PUSH1 0x40 MLOAD PUSH32 0x8C379A000000000000000000000000000000000000000000000000000000000 DUP2 MSTORE PUSH1 0x4 ADD PUSH2 0x1D4 SWAP1 PUSH2 0x414 JUMP JUMPDEST PUSH1 0x40 MLOAD DUP1 SWAP2 SUB SWAP1 REVERT JUMPDEST JUMPDEST PUSH0 DUP2 DUP1 MLOAD SWAP1 PUSH1 0x20 ADD KECCAK256 SWAP1 POP PUSH0 DUP2 PUSH0 SHR SWAP1 POP DUP1 SWAP4 POP POP POP POP SWAP2 SWAP1 POP JUMP JUMPDEST PUSH0 PUSH20 0xFFFFFFFFFFFFFFFFFFFFFFFFFFFFFFFFFFFFFFFF DUP3 AND SWAP1 POP SWAP2 SWAP1 POP JUMP JUMPDEST PUSH0 PUSH2 0x223 DUP3 PUSH2 0x1FA JUMP JUMPDEST SWAP1 POP SWAP2 SWAP1 POP JUMP JUMPDEST PUSH2 0x233 DUP2 PUSH2 0x219 JUMP JUMPDEST DUP3 MSTORE POP POP JUMP JUMPDEST PUSH0 PUSH1 0x20 DUP3 ADD SWAP1 POP PUSH2 0x24C PUSH0 DUP4 ADD DUP5 PUSH2 0x22A JUMP JUMPDEST SWAP3 SWAP2 POP POP JUMP JUMPDEST PUSH0 PUSH0 REVERT JUMPDEST PUSH0 PUSH1 0xFF DUP3 AND SWAP1 POP SWAP2 SWAP1 POP JUMP JUMPDEST PUSH2 0x26B DUP2 PUSH2 0x256 JUMP JUMPDEST DUP2 EQ PUSH2 0x275 JUMPI PUSH0 PUSH0 REVERT JUMPDEST POP JUMP JUMPDEST PUSH0 DUP2 CALLDATALOAD SWAP1 POP PUSH2 0x286 DUP2 PUSH2 0x262 JUMP JUMPDEST SWAP3 SWAP2 POP POP JUMP JUMPDEST PUSH0 PUSH1 0x20 DUP3 DUP5 SUB SLT ISZERO PUSH2 0x2A1 JUMPI PUSH2 0x2A0 PUSH2 0x252 JUMP JUMPDEST JUMPDEST PUSH0 PUSH2 0x2AE DUP5 DUP3 DUP6 ADD PUSH2 0x278 JUMP JUMPDEST SWAP2 POP POP SWAP3 SWAP2 POP POP JUMP JUMPDEST PUSH0 PUSH32 0xFF00000000000000000000000000000000000000000000000000000000000000 DUP3 AND SWAP1 POP SWAP2 SWAP1 POP JUMP JUMPDEST PUSH0 DUP2 SWAP1 POP SWAP2 SWAP1 POP JUMP JUMPDEST PUSH2 0x2FC PUSH2 0x2F7 DUP3 PUSH2 0x2B7 JUMP JUMPDEST PUSH2 0x2E2 JUMP JUMPDEST DUP3 MSTORE POP POP JUMP JUMPDEST PUSH0 DUP2 PUSH1 0x60 SHL SWAP1 POP SWAP2 SWAP1 POP JUMP JUMPDEST PUSH0 PUSH2 0x318 DUP3 PUSH2 0x302 JUMP JUMPDEST SWAP1 POP SWAP2 SWAP1 POP JUMP JUMPDEST PUSH0 PUSH2 0x329 DUP3 PUSH2 0x30E JUMP JUMPDEST SWAP1 POP SWAP2 SWAP1 POP JUMP JUMPDEST PUSH2 0x341 PUSH2 0x33C DUP3 PUSH2 0x219 JUMP JUMPDEST PUSH2 0x31F JUMP JUMPDEST DUP3 MSTORE POP POP JUMP JUMPDEST PUSH0 PUSH2 0x352 DUP3 DUP8 PUSH2 0x2EB JUMP JUMPDEST PUSH1 0x1 DUP3 ADD SWAP2 POP PUSH2 0x362 DUP3 DUP7 PUSH2 0x2EB JUMP JUMPDEST PUSH1 0x1 DUP3 ADD SWAP2 POP PUSH2 0x372 DUP3 DUP6 PUSH2 0x330 JUMP JUMPDEST PUSH1 0x14 DUP3 ADD SWAP2 POP PUSH2 0x382 DUP3 DUP5 PUSH2 0x2EB JUMP JUMPDEST PUSH1 0x1 DUP3 ADD SWAP2 POP DUP2 SWAP1 POP SWAP6 SWAP5 POP POP POP POP POP JUMP JUMPDEST PUSH0 DUP3 DUP3 MSTORE PUSH1 0x20 DUP3 ADD SWAP1 POP SWAP3 SWAP2 POP POP JUMP JUMPDEST PUSH32 0x546865206E6F6E636520697320746F206869676820746F20636F756E74206974 PUSH0 DUP3 ADD MSTORE PUSH32 0x206D616E75616C6C790A00000000000000000000000000000000000000000000 PUSH1 0x20 DUP3 ADD MSTORE POP JUMP JUMPDEST PUSH0 PUSH2 0x3FE PUSH1 0x2A DUP4 PUSH2 0x394 JUMP JUMPDEST SWAP2 POP PUSH2 0x409 DUP3 PUSH2 0x3A4 JUMP JUMPDEST PUSH1 0x40 DUP3 ADD SWAP1 POP SWAP2 SWAP1 POP JUMP JUMPDEST PUSH0 PUSH1 0x20 DUP3 ADD SWAP1 POP DUP2 DUP2 SUB PUSH0 DUP4 ADD MSTORE PUSH2 0x42B DUP2 PUSH2 0x3F2 JUMP JUMPDEST SWAP1 POP SWAP2 SWAP1 POP JUMP INVALID LOG2 PUSH5 0x6970667358 0x22 SLT KECCAK256 ADD DUP1 STOP DUP6 ORIGIN PUSH11 0xF29FB1B62FAB2953BA92A4 SWAP9 EXTCODECOPY DIV 0xFC SELFDESTRUCT GAS 0xB7 PUSH25 0x1CBE4F4E99808764736F6C634300081E003300000000000000 "
				},
				"gasEstimates": {
					"creation": {
						"codeDepositCost": "225600",
						"executionCost": "48848",
						"totalCost": "274448"
					},
					"external": {
						"contractAddress(uint8)": "infinite",
						"retrieve()": "2492"
					},
					"internal": {
						"compare(uint8)": "infinite"
					}
				},
				"methodIdentifiers": {
					"contractAddress(uint8)": "3eae68bb",
					"retrieve()": "2e64cec1"
				}
			},
			"storageLayout": {
				"storage": [
					{
						"astId": 4,
						"contract": "functions.sol:createAddress",
						"label": "senderAddress",
						"offset": 0,
						"slot": "0",
						"type": "t_address"
					},
					{
						"astId": 7,
						"contract": "functions.sol:createAddress",
						"label": "myKey",
						"offset": 20,
						"slot": "0",
						"type": "t_bytes10"
					}
				],
				"types": {
					"t_address": {
						"encoding": "inplace",
						"label": "address",
						"numberOfBytes": "20"
					},
					"t_bytes10": {
						"encoding": "inplace",
						"label": "bytes10",
						"numberOfBytes": "10"
					}
				}
			},
			"userdoc": {
				"kind": "user",
				"methods": {},
				"version": 1
			}
		}
	}
}