{
	"contracts/complicateNonce.sol": {
		"complicateNonce": {
			"abi": [
				{
					"inputs": [
						{
							"internalType": "uint256",
							"name": "_day",
							"type": "uint256"
						},
						{
							"internalType": "string",
							"name": "_month",
							"type": "string"
						}
					],
					"name": "addInfo",
					"outputs": [],
					"stateMutability": "nonpayable",
					"type": "function"
				},
				{
					"inputs": [
						{
							"internalType": "uint8",
							"name": "_level",
							"type": "uint8"
						}
					],
					"name": "contractAddress",
					"outputs": [
						{
							"internalType": "address",
							"name": "",
							"type": "address"
						}
					],
					"stateMutability": "view",
					"type": "function"
				},
				{
					"inputs": [
						{
							"internalType": "uint256",
							"name": "",
							"type": "uint256"
						}
					],
					"name": "dayToMonth",
					"outputs": [
						{
							"internalType": "string",
							"name": "",
							"type": "string"
						}
					],
					"stateMutability": "view",
					"type": "function"
				},
				{
					"inputs": [
						{
							"internalType": "uint256",
							"name": "",
							"type": "uint256"
						}
					],
					"name": "listOfInfo",
					"outputs": [
						{
							"internalType": "uint256",
							"name": "day",
							"type": "uint256"
						},
						{
							"internalType": "string",
							"name": "month",
							"type": "string"
						}
					],
					"stateMutability": "view",
					"type": "function"
				},
				{
					"inputs": [],
					"name": "retrieve",
					"outputs": [
						{
							"internalType": "address",
							"name": "",
							"type": "address"
						}
					],
					"stateMutability": "view",
					"type": "function"
				}
			],
			"devdoc": {
				"kind": "dev",
				"methods": {},
				"version": 1
			},
			"evm": {
				"assembly": "    /* \"contracts/complicateNonce.sol\":181:407  contract complicateNonce is createAddress {... */\n  mstore(0x40, 0x80)\n    /* \"contracts/functions.sol\":155:197  0xdEADBEeF00000000000000000000000000000000 */\n  0xdeadbeef00000000000000000000000000000000\n    /* \"contracts/functions.sol\":131:197  address senderAddress = 0xdEADBEeF00000000000000000000000000000000 */\n  0x00\n  exp(0x0100, 0x00)\n  dup2\n  sload\n  dup2\n  0xffffffffffffffffffffffffffffffffffffffff\n  mul\n  not\n  and\n  swap1\n  dup4\n  0xffffffffffffffffffffffffffffffffffffffff\n  and\n  mul\n  or\n  swap1\n  sstore\n  pop\n    /* \"contracts/functions.sol\":203:231  bytes10 myKey = \"verySecret\" */\n  0x7665727953656372657400000000000000000000000000000000000000000000\n  0x00\n  exp(0x0100, 0x14)\n  dup2\n  sload\n  dup2\n  0xffffffffffffffffffff\n  mul\n  not\n  and\n  swap1\n  dup4\n  0xb0\n  shr\n  mul\n  or\n  swap1\n  sstore\n  pop\n    /* \"contracts/complicateNonce.sol\":181:407  contract complicateNonce is createAddress {... */\n  callvalue\n  dup1\n  iszero\n  tag_1\n  jumpi\n  revert(0x00, 0x00)\ntag_1:\n  pop\n  dataSize(sub_0)\n  dup1\n  dataOffset(sub_0)\n  0x00\n  codecopy\n  0x00\n  return\nstop\n\nsub_0: assembly {\n        /* \"contracts/complicateNonce.sol\":181:407  contract complicateNonce is createAddress {... */\n      mstore(0x40, 0x80)\n      callvalue\n      dup1\n      iszero\n      tag_1\n      jumpi\n      revert(0x00, 0x00)\n    tag_1:\n      pop\n      jumpi(tag_2, lt(calldatasize, 0x04))\n      shr(0xe0, calldataload(0x00))\n      dup1\n      0x17a8f8c6\n      eq\n      tag_3\n      jumpi\n      dup1\n      0x2e64cec1\n      eq\n      tag_4\n      jumpi\n      dup1\n      0x3eae68bb\n      eq\n      tag_5\n      jumpi\n      dup1\n      0x8265789f\n      eq\n      tag_6\n      jumpi\n      dup1\n      0xd5d0a74f\n      eq\n      tag_7\n      jumpi\n    tag_2:\n      revert(0x00, 0x00)\n        /* \"contracts/functions.sol\":1985:2196  function addInfo(uint256 _day, string calldata _month) public {... */\n    tag_3:\n      tag_8\n      0x04\n      dup1\n      calldatasize\n      sub\n      dup2\n      add\n      swap1\n      tag_9\n      swap2\n      swap1\n      tag_10\n      jump\t// in\n    tag_9:\n      tag_11\n      jump\t// in\n    tag_8:\n      stop\n        /* \"contracts/functions.sol\":1894:1980  function retrieve() public view returns (address){... */\n    tag_4:\n      tag_12\n      tag_13\n      jump\t// in\n    tag_12:\n      mload(0x40)\n      tag_14\n      swap2\n      swap1\n      tag_15\n      jump\t// in\n    tag_14:\n      mload(0x40)\n      dup1\n      swap2\n      sub\n      swap1\n      return\n        /* \"contracts/complicateNonce.sol\":229:405  function contractAddress(uint8 _level) public override view returns (address) {... */\n    tag_5:\n      tag_16\n      0x04\n      dup1\n      calldatasize\n      sub\n      dup2\n      add\n      swap1\n      tag_17\n      swap2\n      swap1\n      tag_18\n      jump\t// in\n    tag_17:\n      tag_19\n      jump\t// in\n    tag_16:\n      mload(0x40)\n      tag_20\n      swap2\n      swap1\n      tag_15\n      jump\t// in\n    tag_20:\n      mload(0x40)\n      dup1\n      swap2\n      sub\n      swap1\n      return\n        /* \"contracts/functions.sol\":404:431  trxInfo[] public listOfInfo */\n    tag_6:\n      tag_21\n      0x04\n      dup1\n      calldatasize\n      sub\n      dup2\n      add\n      swap1\n      tag_22\n      swap2\n      swap1\n      tag_23\n      jump\t// in\n    tag_22:\n      tag_24\n      jump\t// in\n    tag_21:\n      mload(0x40)\n      tag_25\n      swap3\n      swap2\n      swap1\n      tag_26\n      jump\t// in\n    tag_25:\n      mload(0x40)\n      dup1\n      swap2\n      sub\n      swap1\n      return\n        /* \"contracts/functions.sol\":340:385  mapping(uint256 => string ) public dayToMonth */\n    tag_7:\n      tag_27\n      0x04\n      dup1\n      calldatasize\n      sub\n      dup2\n      add\n      swap1\n      tag_28\n      swap2\n      swap1\n      tag_23\n      jump\t// in\n    tag_28:\n      tag_29\n      jump\t// in\n    tag_27:\n      mload(0x40)\n      tag_30\n      swap2\n      swap1\n      tag_31\n      jump\t// in\n    tag_30:\n      mload(0x40)\n      dup1\n      swap2\n      sub\n      swap1\n      return\n        /* \"contracts/functions.sol\":1985:2196  function addInfo(uint256 _day, string calldata _month) public {... */\n    tag_11:\n        /* \"contracts/functions.sol\":2116:2126  listOfInfo */\n      0x02\n        /* \"contracts/functions.sol\":2132:2153  trxInfo(_day, _month) */\n      mload(0x40)\n      dup1\n      0x40\n      add\n      0x40\n      mstore\n      dup1\n        /* \"contracts/functions.sol\":2140:2144  _day */\n      dup6\n        /* \"contracts/functions.sol\":2132:2153  trxInfo(_day, _month) */\n      dup2\n      mstore\n      0x20\n      add\n        /* \"contracts/functions.sol\":2146:2152  _month */\n      dup5\n      dup5\n        /* \"contracts/functions.sol\":2132:2153  trxInfo(_day, _month) */\n      dup1\n      dup1\n      0x1f\n      add\n      0x20\n      dup1\n      swap2\n      div\n      mul\n      0x20\n      add\n      mload(0x40)\n      swap1\n      dup2\n      add\n      0x40\n      mstore\n      dup1\n      swap4\n      swap3\n      swap2\n      swap1\n      dup2\n      dup2\n      mstore\n      0x20\n      add\n      dup4\n      dup4\n      dup1\n      dup3\n      dup5\n      calldatacopy\n      0x00\n      dup2\n      dup5\n      add\n      mstore\n      not(0x1f)\n      0x1f\n      dup3\n      add\n      and\n      swap1\n      pop\n      dup1\n      dup4\n      add\n      swap3\n      pop\n      pop\n      pop\n      pop\n      pop\n      pop\n      pop\n      dup2\n      mstore\n      pop\n        /* \"contracts/functions.sol\":2116:2154  listOfInfo.push(trxInfo(_day, _month)) */\n      swap1\n      dup1\n      0x01\n      dup2\n      sload\n      add\n      dup1\n      dup3\n      sstore\n      dup1\n      swap2\n      pop\n      pop\n      0x01\n      swap1\n      sub\n      swap1\n      0x00\n      mstore\n      keccak256(0x00, 0x20)\n      swap1\n      0x02\n      mul\n      add\n      0x00\n      swap1\n      swap2\n      swap1\n      swap2\n      swap1\n      swap2\n      pop\n      0x00\n      dup3\n      add\n      mload\n      dup2\n      0x00\n      add\n      sstore\n      0x20\n      dup3\n      add\n      mload\n      dup2\n      0x01\n      add\n      swap1\n      dup2\n      tag_34\n      swap2\n      swap1\n      tag_35\n      jump\t// in\n    tag_34:\n      pop\n      pop\n      pop\n        /* \"contracts/functions.sol\":2183:2189  _month */\n      dup2\n      dup2\n        /* \"contracts/functions.sol\":2164:2174  dayToMonth */\n      0x01\n        /* \"contracts/functions.sol\":2164:2180  dayToMonth[_day] */\n      0x00\n        /* \"contracts/functions.sol\":2175:2179  _day */\n      dup7\n        /* \"contracts/functions.sol\":2164:2180  dayToMonth[_day] */\n      dup2\n      mstore\n      0x20\n      add\n      swap1\n      dup2\n      mstore\n      0x20\n      add\n      0x00\n      keccak256\n        /* \"contracts/functions.sol\":2164:2189  dayToMonth[_day] = _month */\n      swap2\n      dup3\n      tag_36\n      swap3\n      swap2\n      swap1\n      tag_37\n      jump\t// in\n    tag_36:\n      pop\n        /* \"contracts/functions.sol\":1985:2196  function addInfo(uint256 _day, string calldata _month) public {... */\n      pop\n      pop\n      pop\n      jump\t// out\n        /* \"contracts/functions.sol\":1894:1980  function retrieve() public view returns (address){... */\n    tag_13:\n        /* \"contracts/functions.sol\":1935:1942  address */\n      0x00\n        /* \"contracts/functions.sol\":1960:1973  senderAddress */\n      0x00\n      0x00\n      swap1\n      sload\n      swap1\n      0x0100\n      exp\n      swap1\n      div\n      0xffffffffffffffffffffffffffffffffffffffff\n      and\n        /* \"contracts/functions.sol\":1953:1973  return senderAddress */\n      swap1\n      pop\n        /* \"contracts/functions.sol\":1894:1980  function retrieve() public view returns (address){... */\n      swap1\n      jump\t// out\n        /* \"contracts/complicateNonce.sol\":229:405  function contractAddress(uint8 _level) public override view returns (address) {... */\n    tag_19:\n        /* \"contracts/complicateNonce.sol\":298:305  address */\n      0x00\n        /* \"contracts/complicateNonce.sol\":317:328  uint8 nonce */\n      0x00\n        /* \"contracts/complicateNonce.sol\":351:352  8 */\n      0x08\n        /* \"contracts/complicateNonce.sol\":342:348  _level */\n      dup4\n        /* \"contracts/complicateNonce.sol\":333:339  _level */\n      dup5\n        /* \"contracts/complicateNonce.sol\":333:348  _level * _level */\n      tag_40\n      swap2\n      swap1\n      tag_41\n      jump\t// in\n    tag_40:\n        /* \"contracts/complicateNonce.sol\":333:352  _level * _level + 8 */\n      tag_42\n      swap2\n      swap1\n      tag_43\n      jump\t// in\n    tag_42:\n        /* \"contracts/complicateNonce.sol\":317:353  uint8 nonce  = (_level * _level + 8) */\n      swap1\n      pop\n        /* \"contracts/complicateNonce.sol\":370:398  super.contractAddress(nonce) */\n      tag_44\n        /* \"contracts/complicateNonce.sol\":392:397  nonce */\n      dup2\n        /* \"contracts/complicateNonce.sol\":370:391  super.contractAddress */\n      tag_45\n        /* \"contracts/complicateNonce.sol\":370:398  super.contractAddress(nonce) */\n      jump\t// in\n    tag_44:\n        /* \"contracts/complicateNonce.sol\":363:398  return super.contractAddress(nonce) */\n      swap2\n      pop\n      pop\n        /* \"contracts/complicateNonce.sol\":229:405  function contractAddress(uint8 _level) public override view returns (address) {... */\n      swap2\n      swap1\n      pop\n      jump\t// out\n        /* \"contracts/functions.sol\":404:431  trxInfo[] public listOfInfo */\n    tag_24:\n      0x02\n      dup2\n      dup2\n      sload\n      dup2\n      lt\n      tag_46\n      jumpi\n      0x00\n      dup1\n      revert\n    tag_46:\n      swap1\n      0x00\n      mstore\n      keccak256(0x00, 0x20)\n      swap1\n      0x02\n      mul\n      add\n      0x00\n      swap2\n      pop\n      swap1\n      pop\n      dup1\n      0x00\n      add\n      sload\n      swap1\n      dup1\n      0x01\n      add\n      dup1\n      sload\n      tag_48\n      swap1\n      tag_49\n      jump\t// in\n    tag_48:\n      dup1\n      0x1f\n      add\n      0x20\n      dup1\n      swap2\n      div\n      mul\n      0x20\n      add\n      mload(0x40)\n      swap1\n      dup2\n      add\n      0x40\n      mstore\n      dup1\n      swap3\n      swap2\n      swap1\n      dup2\n      dup2\n      mstore\n      0x20\n      add\n      dup3\n      dup1\n      sload\n      tag_50\n      swap1\n      tag_49\n      jump\t// in\n    tag_50:\n      dup1\n      iszero\n      tag_51\n      jumpi\n      dup1\n      0x1f\n      lt\n      tag_52\n      jumpi\n      0x0100\n      dup1\n      dup4\n      sload\n      div\n      mul\n      dup4\n      mstore\n      swap2\n      0x20\n      add\n      swap2\n      jump(tag_51)\n    tag_52:\n      dup3\n      add\n      swap2\n      swap1\n      0x00\n      mstore\n      keccak256(0x00, 0x20)\n      swap1\n    tag_53:\n      dup2\n      sload\n      dup2\n      mstore\n      swap1\n      0x01\n      add\n      swap1\n      0x20\n      add\n      dup1\n      dup4\n      gt\n      tag_53\n      jumpi\n      dup3\n      swap1\n      sub\n      0x1f\n      and\n      dup3\n      add\n      swap2\n    tag_51:\n      pop\n      pop\n      pop\n      pop\n      pop\n      swap1\n      pop\n      dup3\n      jump\t// out\n        /* \"contracts/functions.sol\":340:385  mapping(uint256 => string ) public dayToMonth */\n    tag_29:\n      mstore(0x20, 0x01)\n      dup1\n      0x00\n      mstore\n      keccak256(0x00, 0x40)\n      0x00\n      swap2\n      pop\n      swap1\n      pop\n      dup1\n      sload\n      tag_54\n      swap1\n      tag_49\n      jump\t// in\n    tag_54:\n      dup1\n      0x1f\n      add\n      0x20\n      dup1\n      swap2\n      div\n      mul\n      0x20\n      add\n      mload(0x40)\n      swap1\n      dup2\n      add\n      0x40\n      mstore\n      dup1\n      swap3\n      swap2\n      swap1\n      dup2\n      dup2\n      mstore\n      0x20\n      add\n      dup3\n      dup1\n      sload\n      tag_55\n      swap1\n      tag_49\n      jump\t// in\n    tag_55:\n      dup1\n      iszero\n      tag_56\n      jumpi\n      dup1\n      0x1f\n      lt\n      tag_57\n      jumpi\n      0x0100\n      dup1\n      dup4\n      sload\n      div\n      mul\n      dup4\n      mstore\n      swap2\n      0x20\n      add\n      swap2\n      jump(tag_56)\n    tag_57:\n      dup3\n      add\n      swap2\n      swap1\n      0x00\n      mstore\n      keccak256(0x00, 0x20)\n      swap1\n    tag_58:\n      dup2\n      sload\n      dup2\n      mstore\n      swap1\n      0x01\n      add\n      swap1\n      0x20\n      add\n      dup1\n      dup4\n      gt\n      tag_58\n      jumpi\n      dup3\n      swap1\n      sub\n      0x1f\n      and\n      dup3\n      add\n      swap2\n    tag_56:\n      pop\n      pop\n      pop\n      pop\n      pop\n      dup2\n      jump\t// out\n        /* \"contracts/functions.sol\":464:1584  function contractAddress(uint8 nonce) public virtual view returns (address){... */\n    tag_45:\n        /* \"contracts/functions.sol\":531:538  address */\n      0x00\n        /* \"contracts/functions.sol\":549:565  bytes memory rlp */\n      0x60\n        /* \"contracts/functions.sol\":645:646  0 */\n      0x00\n        /* \"contracts/functions.sol\":636:641  nonce */\n      dup4\n        /* \"contracts/functions.sol\":636:646  nonce == 0 */\n      0xff\n      and\n      sub\n        /* \"contracts/functions.sol\":632:1171  if (nonce == 0){... */\n      tag_60\n      jumpi\n        /* \"contracts/functions.sol\":708:712  0xd5 */\n      0xd5\n        /* \"contracts/functions.sol\":701:713  bytes1(0xd5) */\n      0xf8\n      shl\n        /* \"contracts/functions.sol\":738:742  0x94 */\n      0x94\n        /* \"contracts/functions.sol\":731:743  bytes1(0x94) */\n      0xf8\n      shl\n        /* \"contracts/functions.sol\":761:774  senderAddress */\n      0x00\n      0x00\n      swap1\n      sload\n      swap1\n      0x0100\n      exp\n      swap1\n      div\n      0xffffffffffffffffffffffffffffffffffffffff\n      and\n        /* \"contracts/functions.sol\":793:804  bytes1(\" \") */\n      0x2000000000000000000000000000000000000000000000000000000000000000\n        /* \"contracts/functions.sol\":667:818  abi.encodePacked(... */\n      add(0x20, mload(0x40))\n      tag_61\n      swap5\n      swap4\n      swap3\n      swap2\n      swap1\n      tag_62\n      jump\t// in\n    tag_61:\n      mload(0x40)\n      0x20\n      dup2\n      dup4\n      sub\n      sub\n      dup2\n      mstore\n      swap1\n      0x40\n      mstore\n        /* \"contracts/functions.sol\":661:818  rlp = abi.encodePacked(... */\n      swap1\n      pop\n        /* \"contracts/functions.sol\":632:1171  if (nonce == 0){... */\n      jump(tag_63)\n    tag_60:\n        /* \"contracts/functions.sol\":884:887  127 */\n      0x7f\n        /* \"contracts/functions.sol\":875:880  nonce */\n      dup4\n        /* \"contracts/functions.sol\":875:887  nonce <= 127 */\n      0xff\n      and\n      gt\n      iszero\n        /* \"contracts/functions.sol\":875:900  nonce <= 127 && nonce > 0 */\n      dup1\n      iszero\n      tag_64\n      jumpi\n      pop\n        /* \"contracts/functions.sol\":899:900  0 */\n      0x00\n        /* \"contracts/functions.sol\":891:896  nonce */\n      dup4\n        /* \"contracts/functions.sol\":891:900  nonce > 0 */\n      0xff\n      and\n      gt\n        /* \"contracts/functions.sol\":875:900  nonce <= 127 && nonce > 0 */\n    tag_64:\n        /* \"contracts/functions.sol\":871:1171  if (nonce <= 127 && nonce > 0){... */\n      iszero\n      tag_65\n      jumpi\n        /* \"contracts/functions.sol\":962:966  0xd5 */\n      0xd5\n        /* \"contracts/functions.sol\":955:967  bytes1(0xd5) */\n      0xf8\n      shl\n        /* \"contracts/functions.sol\":992:996  0x94 */\n      0x94\n        /* \"contracts/functions.sol\":985:997  bytes1(0x94) */\n      0xf8\n      shl\n        /* \"contracts/functions.sol\":1015:1028  senderAddress */\n      0x00\n      0x00\n      swap1\n      sload\n      swap1\n      0x0100\n      exp\n      swap1\n      div\n      0xffffffffffffffffffffffffffffffffffffffff\n      and\n        /* \"contracts/functions.sol\":1060:1065  nonce */\n      dup6\n        /* \"contracts/functions.sol\":1047:1067  bytes1(uint8(nonce)) */\n      0xf8\n      shl\n        /* \"contracts/functions.sol\":921:1081  abi.encodePacked(... */\n      add(0x20, mload(0x40))\n      tag_66\n      swap5\n      swap4\n      swap3\n      swap2\n      swap1\n      tag_62\n      jump\t// in\n    tag_66:\n      mload(0x40)\n      0x20\n      dup2\n      dup4\n      sub\n      sub\n      dup2\n      mstore\n      swap1\n      0x40\n      mstore\n        /* \"contracts/functions.sol\":915:1081  rlp = abi.encodePacked(... */\n      swap1\n      pop\n        /* \"contracts/functions.sol\":871:1171  if (nonce <= 127 && nonce > 0){... */\n      jump(tag_67)\n    tag_65:\n        /* \"contracts/functions.sol\":1118:1171  revert(\"The nonce is to high to count it manually\\n\") */\n      mload(0x40)\n      0x08c379a000000000000000000000000000000000000000000000000000000000\n      dup2\n      mstore\n      0x04\n      add\n      tag_68\n      swap1\n      tag_69\n      jump\t// in\n    tag_68:\n      mload(0x40)\n      dup1\n      swap2\n      sub\n      swap1\n      revert\n        /* \"contracts/functions.sol\":871:1171  if (nonce <= 127 && nonce > 0){... */\n    tag_67:\n        /* \"contracts/functions.sol\":632:1171  if (nonce == 0){... */\n    tag_63:\n        /* \"contracts/functions.sol\":1320:1332  bytes32 hash */\n      0x00\n        /* \"contracts/functions.sol\":1345:1348  rlp */\n      dup2\n        /* \"contracts/functions.sol\":1335:1349  keccak256(rlp) */\n      dup1\n      mload\n      swap1\n      0x20\n      add\n      keccak256\n        /* \"contracts/functions.sol\":1320:1349  bytes32 hash = keccak256(rlp) */\n      swap1\n      pop\n        /* \"contracts/functions.sol\":1490:1512  address finallyAddress */\n      0x00\n        /* \"contracts/functions.sol\":1539:1543  hash */\n      dup2\n        /* \"contracts/functions.sol\":1531:1544  uint256(hash) */\n      0x00\n      shr\n        /* \"contracts/functions.sol\":1490:1546  address finallyAddress = address(uint160(uint256(hash))) */\n      swap1\n      pop\n        /* \"contracts/functions.sol\":1563:1577  finallyAddress */\n      dup1\n        /* \"contracts/functions.sol\":1556:1577  return finallyAddress */\n      swap4\n      pop\n      pop\n      pop\n      pop\n        /* \"contracts/functions.sol\":464:1584  function contractAddress(uint8 nonce) public virtual view returns (address){... */\n      swap2\n      swap1\n      pop\n      jump\t// out\n        /* \"#utility.yul\":88:205   */\n    tag_71:\n        /* \"#utility.yul\":197:198   */\n      0x00\n        /* \"#utility.yul\":194:195   */\n      0x00\n        /* \"#utility.yul\":187:199   */\n      revert\n        /* \"#utility.yul\":211:328   */\n    tag_72:\n        /* \"#utility.yul\":320:321   */\n      0x00\n        /* \"#utility.yul\":317:318   */\n      0x00\n        /* \"#utility.yul\":310:322   */\n      revert\n        /* \"#utility.yul\":334:411   */\n    tag_73:\n        /* \"#utility.yul\":371:378   */\n      0x00\n        /* \"#utility.yul\":400:405   */\n      dup2\n        /* \"#utility.yul\":389:405   */\n      swap1\n      pop\n        /* \"#utility.yul\":334:411   */\n      swap2\n      swap1\n      pop\n      jump\t// out\n        /* \"#utility.yul\":417:539   */\n    tag_74:\n        /* \"#utility.yul\":490:514   */\n      tag_126\n        /* \"#utility.yul\":508:513   */\n      dup2\n        /* \"#utility.yul\":490:514   */\n      tag_73\n      jump\t// in\n    tag_126:\n        /* \"#utility.yul\":483:488   */\n      dup2\n        /* \"#utility.yul\":480:515   */\n      eq\n        /* \"#utility.yul\":470:533   */\n      tag_127\n      jumpi\n        /* \"#utility.yul\":529:530   */\n      0x00\n        /* \"#utility.yul\":526:527   */\n      0x00\n        /* \"#utility.yul\":519:531   */\n      revert\n        /* \"#utility.yul\":470:533   */\n    tag_127:\n        /* \"#utility.yul\":417:539   */\n      pop\n      jump\t// out\n        /* \"#utility.yul\":545:684   */\n    tag_75:\n        /* \"#utility.yul\":591:596   */\n      0x00\n        /* \"#utility.yul\":629:635   */\n      dup2\n        /* \"#utility.yul\":616:636   */\n      calldataload\n        /* \"#utility.yul\":607:636   */\n      swap1\n      pop\n        /* \"#utility.yul\":645:678   */\n      tag_129\n        /* \"#utility.yul\":672:677   */\n      dup2\n        /* \"#utility.yul\":645:678   */\n      tag_74\n      jump\t// in\n    tag_129:\n        /* \"#utility.yul\":545:684   */\n      swap3\n      swap2\n      pop\n      pop\n      jump\t// out\n        /* \"#utility.yul\":690:807   */\n    tag_76:\n        /* \"#utility.yul\":799:800   */\n      0x00\n        /* \"#utility.yul\":796:797   */\n      0x00\n        /* \"#utility.yul\":789:801   */\n      revert\n        /* \"#utility.yul\":813:930   */\n    tag_77:\n        /* \"#utility.yul\":922:923   */\n      0x00\n        /* \"#utility.yul\":919:920   */\n      0x00\n        /* \"#utility.yul\":912:924   */\n      revert\n        /* \"#utility.yul\":936:1053   */\n    tag_78:\n        /* \"#utility.yul\":1045:1046   */\n      0x00\n        /* \"#utility.yul\":1042:1043   */\n      0x00\n        /* \"#utility.yul\":1035:1047   */\n      revert\n        /* \"#utility.yul\":1073:1626   */\n    tag_79:\n        /* \"#utility.yul\":1131:1139   */\n      0x00\n        /* \"#utility.yul\":1141:1147   */\n      0x00\n        /* \"#utility.yul\":1191:1194   */\n      dup4\n        /* \"#utility.yul\":1184:1188   */\n      0x1f\n        /* \"#utility.yul\":1176:1182   */\n      dup5\n        /* \"#utility.yul\":1172:1189   */\n      add\n        /* \"#utility.yul\":1168:1195   */\n      slt\n        /* \"#utility.yul\":1158:1280   */\n      tag_134\n      jumpi\n        /* \"#utility.yul\":1199:1278   */\n      tag_135\n      tag_76\n      jump\t// in\n    tag_135:\n        /* \"#utility.yul\":1158:1280   */\n    tag_134:\n        /* \"#utility.yul\":1312:1318   */\n      dup3\n        /* \"#utility.yul\":1299:1319   */\n      calldataload\n        /* \"#utility.yul\":1289:1319   */\n      swap1\n      pop\n        /* \"#utility.yul\":1342:1360   */\n      0xffffffffffffffff\n        /* \"#utility.yul\":1334:1340   */\n      dup2\n        /* \"#utility.yul\":1331:1361   */\n      gt\n        /* \"#utility.yul\":1328:1445   */\n      iszero\n      tag_136\n      jumpi\n        /* \"#utility.yul\":1364:1443   */\n      tag_137\n      tag_77\n      jump\t// in\n    tag_137:\n        /* \"#utility.yul\":1328:1445   */\n    tag_136:\n        /* \"#utility.yul\":1478:1482   */\n      0x20\n        /* \"#utility.yul\":1470:1476   */\n      dup4\n        /* \"#utility.yul\":1466:1483   */\n      add\n        /* \"#utility.yul\":1454:1483   */\n      swap2\n      pop\n        /* \"#utility.yul\":1532:1535   */\n      dup4\n        /* \"#utility.yul\":1524:1528   */\n      0x01\n        /* \"#utility.yul\":1516:1522   */\n      dup3\n        /* \"#utility.yul\":1512:1529   */\n      mul\n        /* \"#utility.yul\":1502:1510   */\n      dup4\n        /* \"#utility.yul\":1498:1530   */\n      add\n        /* \"#utility.yul\":1495:1536   */\n      gt\n        /* \"#utility.yul\":1492:1620   */\n      iszero\n      tag_138\n      jumpi\n        /* \"#utility.yul\":1539:1618   */\n      tag_139\n      tag_78\n      jump\t// in\n    tag_139:\n        /* \"#utility.yul\":1492:1620   */\n    tag_138:\n        /* \"#utility.yul\":1073:1626   */\n      swap3\n      pop\n      swap3\n      swap1\n      pop\n      jump\t// out\n        /* \"#utility.yul\":1632:2306   */\n    tag_10:\n        /* \"#utility.yul\":1712:1718   */\n      0x00\n        /* \"#utility.yul\":1720:1726   */\n      0x00\n        /* \"#utility.yul\":1728:1734   */\n      0x00\n        /* \"#utility.yul\":1777:1779   */\n      0x40\n        /* \"#utility.yul\":1765:1774   */\n      dup5\n        /* \"#utility.yul\":1756:1763   */\n      dup7\n        /* \"#utility.yul\":1752:1775   */\n      sub\n        /* \"#utility.yul\":1748:1780   */\n      slt\n        /* \"#utility.yul\":1745:1864   */\n      iszero\n      tag_141\n      jumpi\n        /* \"#utility.yul\":1783:1862   */\n      tag_142\n      tag_71\n      jump\t// in\n    tag_142:\n        /* \"#utility.yul\":1745:1864   */\n    tag_141:\n        /* \"#utility.yul\":1903:1904   */\n      0x00\n        /* \"#utility.yul\":1928:1981   */\n      tag_143\n        /* \"#utility.yul\":1973:1980   */\n      dup7\n        /* \"#utility.yul\":1964:1970   */\n      dup3\n        /* \"#utility.yul\":1953:1962   */\n      dup8\n        /* \"#utility.yul\":1949:1971   */\n      add\n        /* \"#utility.yul\":1928:1981   */\n      tag_75\n      jump\t// in\n    tag_143:\n        /* \"#utility.yul\":1918:1981   */\n      swap4\n      pop\n        /* \"#utility.yul\":1874:1991   */\n      pop\n        /* \"#utility.yul\":2058:2060   */\n      0x20\n        /* \"#utility.yul\":2047:2056   */\n      dup5\n        /* \"#utility.yul\":2043:2061   */\n      add\n        /* \"#utility.yul\":2030:2062   */\n      calldataload\n        /* \"#utility.yul\":2089:2107   */\n      0xffffffffffffffff\n        /* \"#utility.yul\":2081:2087   */\n      dup2\n        /* \"#utility.yul\":2078:2108   */\n      gt\n        /* \"#utility.yul\":2075:2192   */\n      iszero\n      tag_144\n      jumpi\n        /* \"#utility.yul\":2111:2190   */\n      tag_145\n      tag_72\n      jump\t// in\n    tag_145:\n        /* \"#utility.yul\":2075:2192   */\n    tag_144:\n        /* \"#utility.yul\":2224:2289   */\n      tag_146\n        /* \"#utility.yul\":2281:2288   */\n      dup7\n        /* \"#utility.yul\":2272:2278   */\n      dup3\n        /* \"#utility.yul\":2261:2270   */\n      dup8\n        /* \"#utility.yul\":2257:2279   */\n      add\n        /* \"#utility.yul\":2224:2289   */\n      tag_79\n      jump\t// in\n    tag_146:\n        /* \"#utility.yul\":2206:2289   */\n      swap3\n      pop\n      swap3\n      pop\n        /* \"#utility.yul\":2001:2299   */\n      pop\n        /* \"#utility.yul\":1632:2306   */\n      swap3\n      pop\n      swap3\n      pop\n      swap3\n      jump\t// out\n        /* \"#utility.yul\":2312:2438   */\n    tag_80:\n        /* \"#utility.yul\":2349:2356   */\n      0x00\n        /* \"#utility.yul\":2389:2431   */\n      0xffffffffffffffffffffffffffffffffffffffff\n        /* \"#utility.yul\":2382:2387   */\n      dup3\n        /* \"#utility.yul\":2378:2432   */\n      and\n        /* \"#utility.yul\":2367:2432   */\n      swap1\n      pop\n        /* \"#utility.yul\":2312:2438   */\n      swap2\n      swap1\n      pop\n      jump\t// out\n        /* \"#utility.yul\":2444:2540   */\n    tag_81:\n        /* \"#utility.yul\":2481:2488   */\n      0x00\n        /* \"#utility.yul\":2510:2534   */\n      tag_149\n        /* \"#utility.yul\":2528:2533   */\n      dup3\n        /* \"#utility.yul\":2510:2534   */\n      tag_80\n      jump\t// in\n    tag_149:\n        /* \"#utility.yul\":2499:2534   */\n      swap1\n      pop\n        /* \"#utility.yul\":2444:2540   */\n      swap2\n      swap1\n      pop\n      jump\t// out\n        /* \"#utility.yul\":2546:2664   */\n    tag_82:\n        /* \"#utility.yul\":2633:2657   */\n      tag_151\n        /* \"#utility.yul\":2651:2656   */\n      dup2\n        /* \"#utility.yul\":2633:2657   */\n      tag_81\n      jump\t// in\n    tag_151:\n        /* \"#utility.yul\":2628:2631   */\n      dup3\n        /* \"#utility.yul\":2621:2658   */\n      mstore\n        /* \"#utility.yul\":2546:2664   */\n      pop\n      pop\n      jump\t// out\n        /* \"#utility.yul\":2670:2892   */\n    tag_15:\n        /* \"#utility.yul\":2763:2767   */\n      0x00\n        /* \"#utility.yul\":2801:2803   */\n      0x20\n        /* \"#utility.yul\":2790:2799   */\n      dup3\n        /* \"#utility.yul\":2786:2804   */\n      add\n        /* \"#utility.yul\":2778:2804   */\n      swap1\n      pop\n        /* \"#utility.yul\":2814:2885   */\n      tag_153\n        /* \"#utility.yul\":2882:2883   */\n      0x00\n        /* \"#utility.yul\":2871:2880   */\n      dup4\n        /* \"#utility.yul\":2867:2884   */\n      add\n        /* \"#utility.yul\":2858:2864   */\n      dup5\n        /* \"#utility.yul\":2814:2885   */\n      tag_82\n      jump\t// in\n    tag_153:\n        /* \"#utility.yul\":2670:2892   */\n      swap3\n      swap2\n      pop\n      pop\n      jump\t// out\n        /* \"#utility.yul\":2898:2984   */\n    tag_83:\n        /* \"#utility.yul\":2933:2940   */\n      0x00\n        /* \"#utility.yul\":2973:2977   */\n      0xff\n        /* \"#utility.yul\":2966:2971   */\n      dup3\n        /* \"#utility.yul\":2962:2978   */\n      and\n        /* \"#utility.yul\":2951:2978   */\n      swap1\n      pop\n        /* \"#utility.yul\":2898:2984   */\n      swap2\n      swap1\n      pop\n      jump\t// out\n        /* \"#utility.yul\":2990:3108   */\n    tag_84:\n        /* \"#utility.yul\":3061:3083   */\n      tag_156\n        /* \"#utility.yul\":3077:3082   */\n      dup2\n        /* \"#utility.yul\":3061:3083   */\n      tag_83\n      jump\t// in\n    tag_156:\n        /* \"#utility.yul\":3054:3059   */\n      dup2\n        /* \"#utility.yul\":3051:3084   */\n      eq\n        /* \"#utility.yul\":3041:3102   */\n      tag_157\n      jumpi\n        /* \"#utility.yul\":3098:3099   */\n      0x00\n        /* \"#utility.yul\":3095:3096   */\n      0x00\n        /* \"#utility.yul\":3088:3100   */\n      revert\n        /* \"#utility.yul\":3041:3102   */\n    tag_157:\n        /* \"#utility.yul\":2990:3108   */\n      pop\n      jump\t// out\n        /* \"#utility.yul\":3114:3249   */\n    tag_85:\n        /* \"#utility.yul\":3158:3163   */\n      0x00\n        /* \"#utility.yul\":3196:3202   */\n      dup2\n        /* \"#utility.yul\":3183:3203   */\n      calldataload\n        /* \"#utility.yul\":3174:3203   */\n      swap1\n      pop\n        /* \"#utility.yul\":3212:3243   */\n      tag_159\n        /* \"#utility.yul\":3237:3242   */\n      dup2\n        /* \"#utility.yul\":3212:3243   */\n      tag_84\n      jump\t// in\n    tag_159:\n        /* \"#utility.yul\":3114:3249   */\n      swap3\n      swap2\n      pop\n      pop\n      jump\t// out\n        /* \"#utility.yul\":3255:3580   */\n    tag_18:\n        /* \"#utility.yul\":3312:3318   */\n      0x00\n        /* \"#utility.yul\":3361:3363   */\n      0x20\n        /* \"#utility.yul\":3349:3358   */\n      dup3\n        /* \"#utility.yul\":3340:3347   */\n      dup5\n        /* \"#utility.yul\":3336:3359   */\n      sub\n        /* \"#utility.yul\":3332:3364   */\n      slt\n        /* \"#utility.yul\":3329:3448   */\n      iszero\n      tag_161\n      jumpi\n        /* \"#utility.yul\":3367:3446   */\n      tag_162\n      tag_71\n      jump\t// in\n    tag_162:\n        /* \"#utility.yul\":3329:3448   */\n    tag_161:\n        /* \"#utility.yul\":3487:3488   */\n      0x00\n        /* \"#utility.yul\":3512:3563   */\n      tag_163\n        /* \"#utility.yul\":3555:3562   */\n      dup5\n        /* \"#utility.yul\":3546:3552   */\n      dup3\n        /* \"#utility.yul\":3535:3544   */\n      dup6\n        /* \"#utility.yul\":3531:3553   */\n      add\n        /* \"#utility.yul\":3512:3563   */\n      tag_85\n      jump\t// in\n    tag_163:\n        /* \"#utility.yul\":3502:3563   */\n      swap2\n      pop\n        /* \"#utility.yul\":3458:3573   */\n      pop\n        /* \"#utility.yul\":3255:3580   */\n      swap3\n      swap2\n      pop\n      pop\n      jump\t// out\n        /* \"#utility.yul\":3586:3915   */\n    tag_23:\n        /* \"#utility.yul\":3645:3651   */\n      0x00\n        /* \"#utility.yul\":3694:3696   */\n      0x20\n        /* \"#utility.yul\":3682:3691   */\n      dup3\n        /* \"#utility.yul\":3673:3680   */\n      dup5\n        /* \"#utility.yul\":3669:3692   */\n      sub\n        /* \"#utility.yul\":3665:3697   */\n      slt\n        /* \"#utility.yul\":3662:3781   */\n      iszero\n      tag_165\n      jumpi\n        /* \"#utility.yul\":3700:3779   */\n      tag_166\n      tag_71\n      jump\t// in\n    tag_166:\n        /* \"#utility.yul\":3662:3781   */\n    tag_165:\n        /* \"#utility.yul\":3820:3821   */\n      0x00\n        /* \"#utility.yul\":3845:3898   */\n      tag_167\n        /* \"#utility.yul\":3890:3897   */\n      dup5\n        /* \"#utility.yul\":3881:3887   */\n      dup3\n        /* \"#utility.yul\":3870:3879   */\n      dup6\n        /* \"#utility.yul\":3866:3888   */\n      add\n        /* \"#utility.yul\":3845:3898   */\n      tag_75\n      jump\t// in\n    tag_167:\n        /* \"#utility.yul\":3835:3898   */\n      swap2\n      pop\n        /* \"#utility.yul\":3791:3908   */\n      pop\n        /* \"#utility.yul\":3586:3915   */\n      swap3\n      swap2\n      pop\n      pop\n      jump\t// out\n        /* \"#utility.yul\":3921:4039   */\n    tag_86:\n        /* \"#utility.yul\":4008:4032   */\n      tag_169\n        /* \"#utility.yul\":4026:4031   */\n      dup2\n        /* \"#utility.yul\":4008:4032   */\n      tag_73\n      jump\t// in\n    tag_169:\n        /* \"#utility.yul\":4003:4006   */\n      dup3\n        /* \"#utility.yul\":3996:4033   */\n      mstore\n        /* \"#utility.yul\":3921:4039   */\n      pop\n      pop\n      jump\t// out\n        /* \"#utility.yul\":4045:4144   */\n    tag_87:\n        /* \"#utility.yul\":4097:4103   */\n      0x00\n        /* \"#utility.yul\":4131:4136   */\n      dup2\n        /* \"#utility.yul\":4125:4137   */\n      mload\n        /* \"#utility.yul\":4115:4137   */\n      swap1\n      pop\n        /* \"#utility.yul\":4045:4144   */\n      swap2\n      swap1\n      pop\n      jump\t// out\n        /* \"#utility.yul\":4150:4319   */\n    tag_88:\n        /* \"#utility.yul\":4234:4245   */\n      0x00\n        /* \"#utility.yul\":4268:4274   */\n      dup3\n        /* \"#utility.yul\":4263:4266   */\n      dup3\n        /* \"#utility.yul\":4256:4275   */\n      mstore\n        /* \"#utility.yul\":4308:4312   */\n      0x20\n        /* \"#utility.yul\":4303:4306   */\n      dup3\n        /* \"#utility.yul\":4299:4313   */\n      add\n        /* \"#utility.yul\":4284:4313   */\n      swap1\n      pop\n        /* \"#utility.yul\":4150:4319   */\n      swap3\n      swap2\n      pop\n      pop\n      jump\t// out\n        /* \"#utility.yul\":4325:4464   */\n    tag_89:\n        /* \"#utility.yul\":4414:4420   */\n      dup3\n        /* \"#utility.yul\":4409:4412   */\n      dup2\n        /* \"#utility.yul\":4404:4407   */\n      dup4\n        /* \"#utility.yul\":4398:4421   */\n      mcopy\n        /* \"#utility.yul\":4455:4456   */\n      0x00\n        /* \"#utility.yul\":4446:4452   */\n      dup4\n        /* \"#utility.yul\":4441:4444   */\n      dup4\n        /* \"#utility.yul\":4437:4453   */\n      add\n        /* \"#utility.yul\":4430:4457   */\n      mstore\n        /* \"#utility.yul\":4325:4464   */\n      pop\n      pop\n      pop\n      jump\t// out\n        /* \"#utility.yul\":4470:4572   */\n    tag_90:\n        /* \"#utility.yul\":4511:4517   */\n      0x00\n        /* \"#utility.yul\":4562:4564   */\n      0x1f\n        /* \"#utility.yul\":4558:4565   */\n      not\n        /* \"#utility.yul\":4553:4555   */\n      0x1f\n        /* \"#utility.yul\":4546:4551   */\n      dup4\n        /* \"#utility.yul\":4542:4556   */\n      add\n        /* \"#utility.yul\":4538:4566   */\n      and\n        /* \"#utility.yul\":4528:4566   */\n      swap1\n      pop\n        /* \"#utility.yul\":4470:4572   */\n      swap2\n      swap1\n      pop\n      jump\t// out\n        /* \"#utility.yul\":4578:4955   */\n    tag_91:\n        /* \"#utility.yul\":4666:4669   */\n      0x00\n        /* \"#utility.yul\":4694:4733   */\n      tag_175\n        /* \"#utility.yul\":4727:4732   */\n      dup3\n        /* \"#utility.yul\":4694:4733   */\n      tag_87\n      jump\t// in\n    tag_175:\n        /* \"#utility.yul\":4749:4820   */\n      tag_176\n        /* \"#utility.yul\":4813:4819   */\n      dup2\n        /* \"#utility.yul\":4808:4811   */\n      dup6\n        /* \"#utility.yul\":4749:4820   */\n      tag_88\n      jump\t// in\n    tag_176:\n        /* \"#utility.yul\":4742:4820   */\n      swap4\n      pop\n        /* \"#utility.yul\":4829:4894   */\n      tag_177\n        /* \"#utility.yul\":4887:4893   */\n      dup2\n        /* \"#utility.yul\":4882:4885   */\n      dup6\n        /* \"#utility.yul\":4875:4879   */\n      0x20\n        /* \"#utility.yul\":4868:4873   */\n      dup7\n        /* \"#utility.yul\":4864:4880   */\n      add\n        /* \"#utility.yul\":4829:4894   */\n      tag_89\n      jump\t// in\n    tag_177:\n        /* \"#utility.yul\":4919:4948   */\n      tag_178\n        /* \"#utility.yul\":4941:4947   */\n      dup2\n        /* \"#utility.yul\":4919:4948   */\n      tag_90\n      jump\t// in\n    tag_178:\n        /* \"#utility.yul\":4914:4917   */\n      dup5\n        /* \"#utility.yul\":4910:4949   */\n      add\n        /* \"#utility.yul\":4903:4949   */\n      swap2\n      pop\n        /* \"#utility.yul\":4670:4955   */\n      pop\n        /* \"#utility.yul\":4578:4955   */\n      swap3\n      swap2\n      pop\n      pop\n      jump\t// out\n        /* \"#utility.yul\":4961:5384   */\n    tag_26:\n        /* \"#utility.yul\":5102:5106   */\n      0x00\n        /* \"#utility.yul\":5140:5142   */\n      0x40\n        /* \"#utility.yul\":5129:5138   */\n      dup3\n        /* \"#utility.yul\":5125:5143   */\n      add\n        /* \"#utility.yul\":5117:5143   */\n      swap1\n      pop\n        /* \"#utility.yul\":5153:5224   */\n      tag_180\n        /* \"#utility.yul\":5221:5222   */\n      0x00\n        /* \"#utility.yul\":5210:5219   */\n      dup4\n        /* \"#utility.yul\":5206:5223   */\n      add\n        /* \"#utility.yul\":5197:5203   */\n      dup6\n        /* \"#utility.yul\":5153:5224   */\n      tag_86\n      jump\t// in\n    tag_180:\n        /* \"#utility.yul\":5271:5280   */\n      dup2\n        /* \"#utility.yul\":5265:5269   */\n      dup2\n        /* \"#utility.yul\":5261:5281   */\n      sub\n        /* \"#utility.yul\":5256:5258   */\n      0x20\n        /* \"#utility.yul\":5245:5254   */\n      dup4\n        /* \"#utility.yul\":5241:5259   */\n      add\n        /* \"#utility.yul\":5234:5282   */\n      mstore\n        /* \"#utility.yul\":5299:5377   */\n      tag_181\n        /* \"#utility.yul\":5372:5376   */\n      dup2\n        /* \"#utility.yul\":5363:5369   */\n      dup5\n        /* \"#utility.yul\":5299:5377   */\n      tag_91\n      jump\t// in\n    tag_181:\n        /* \"#utility.yul\":5291:5377   */\n      swap1\n      pop\n        /* \"#utility.yul\":4961:5384   */\n      swap4\n      swap3\n      pop\n      pop\n      pop\n      jump\t// out\n        /* \"#utility.yul\":5390:5703   */\n    tag_31:\n        /* \"#utility.yul\":5503:5507   */\n      0x00\n        /* \"#utility.yul\":5541:5543   */\n      0x20\n        /* \"#utility.yul\":5530:5539   */\n      dup3\n        /* \"#utility.yul\":5526:5544   */\n      add\n        /* \"#utility.yul\":5518:5544   */\n      swap1\n      pop\n        /* \"#utility.yul\":5590:5599   */\n      dup2\n        /* \"#utility.yul\":5584:5588   */\n      dup2\n        /* \"#utility.yul\":5580:5600   */\n      sub\n        /* \"#utility.yul\":5576:5577   */\n      0x00\n        /* \"#utility.yul\":5565:5574   */\n      dup4\n        /* \"#utility.yul\":5561:5578   */\n      add\n        /* \"#utility.yul\":5554:5601   */\n      mstore\n        /* \"#utility.yul\":5618:5696   */\n      tag_183\n        /* \"#utility.yul\":5691:5695   */\n      dup2\n        /* \"#utility.yul\":5682:5688   */\n      dup5\n        /* \"#utility.yul\":5618:5696   */\n      tag_91\n      jump\t// in\n    tag_183:\n        /* \"#utility.yul\":5610:5696   */\n      swap1\n      pop\n        /* \"#utility.yul\":5390:5703   */\n      swap3\n      swap2\n      pop\n      pop\n      jump\t// out\n        /* \"#utility.yul\":5709:5889   */\n    tag_92:\n        /* \"#utility.yul\":5757:5834   */\n      0x4e487b7100000000000000000000000000000000000000000000000000000000\n        /* \"#utility.yul\":5754:5755   */\n      0x00\n        /* \"#utility.yul\":5747:5835   */\n      mstore\n        /* \"#utility.yul\":5854:5858   */\n      0x41\n        /* \"#utility.yul\":5851:5852   */\n      0x04\n        /* \"#utility.yul\":5844:5859   */\n      mstore\n        /* \"#utility.yul\":5878:5882   */\n      0x24\n        /* \"#utility.yul\":5875:5876   */\n      0x00\n        /* \"#utility.yul\":5868:5883   */\n      revert\n        /* \"#utility.yul\":5895:6075   */\n    tag_93:\n        /* \"#utility.yul\":5943:6020   */\n      0x4e487b7100000000000000000000000000000000000000000000000000000000\n        /* \"#utility.yul\":5940:5941   */\n      0x00\n        /* \"#utility.yul\":5933:6021   */\n      mstore\n        /* \"#utility.yul\":6040:6044   */\n      0x22\n        /* \"#utility.yul\":6037:6038   */\n      0x04\n        /* \"#utility.yul\":6030:6045   */\n      mstore\n        /* \"#utility.yul\":6064:6068   */\n      0x24\n        /* \"#utility.yul\":6061:6062   */\n      0x00\n        /* \"#utility.yul\":6054:6069   */\n      revert\n        /* \"#utility.yul\":6081:6401   */\n    tag_49:\n        /* \"#utility.yul\":6125:6131   */\n      0x00\n        /* \"#utility.yul\":6162:6163   */\n      0x02\n        /* \"#utility.yul\":6156:6160   */\n      dup3\n        /* \"#utility.yul\":6152:6164   */\n      div\n        /* \"#utility.yul\":6142:6164   */\n      swap1\n      pop\n        /* \"#utility.yul\":6209:6210   */\n      0x01\n        /* \"#utility.yul\":6203:6207   */\n      dup3\n        /* \"#utility.yul\":6199:6211   */\n      and\n        /* \"#utility.yul\":6230:6248   */\n      dup1\n        /* \"#utility.yul\":6220:6301   */\n      tag_187\n      jumpi\n        /* \"#utility.yul\":6286:6290   */\n      0x7f\n        /* \"#utility.yul\":6278:6284   */\n      dup3\n        /* \"#utility.yul\":6274:6291   */\n      and\n        /* \"#utility.yul\":6264:6291   */\n      swap2\n      pop\n        /* \"#utility.yul\":6220:6301   */\n    tag_187:\n        /* \"#utility.yul\":6348:6350   */\n      0x20\n        /* \"#utility.yul\":6340:6346   */\n      dup3\n        /* \"#utility.yul\":6337:6351   */\n      lt\n        /* \"#utility.yul\":6317:6335   */\n      dup2\n        /* \"#utility.yul\":6314:6352   */\n      sub\n        /* \"#utility.yul\":6311:6395   */\n      tag_188\n      jumpi\n        /* \"#utility.yul\":6367:6385   */\n      tag_189\n      tag_93\n      jump\t// in\n    tag_189:\n        /* \"#utility.yul\":6311:6395   */\n    tag_188:\n        /* \"#utility.yul\":6132:6401   */\n      pop\n        /* \"#utility.yul\":6081:6401   */\n      swap2\n      swap1\n      pop\n      jump\t// out\n        /* \"#utility.yul\":6407:6548   */\n    tag_94:\n        /* \"#utility.yul\":6456:6460   */\n      0x00\n        /* \"#utility.yul\":6479:6482   */\n      dup2\n        /* \"#utility.yul\":6471:6482   */\n      swap1\n      pop\n        /* \"#utility.yul\":6502:6505   */\n      dup2\n        /* \"#utility.yul\":6499:6500   */\n      0x00\n        /* \"#utility.yul\":6492:6506   */\n      mstore\n        /* \"#utility.yul\":6536:6540   */\n      0x20\n        /* \"#utility.yul\":6533:6534   */\n      0x00\n        /* \"#utility.yul\":6523:6541   */\n      keccak256\n        /* \"#utility.yul\":6515:6541   */\n      swap1\n      pop\n        /* \"#utility.yul\":6407:6548   */\n      swap2\n      swap1\n      pop\n      jump\t// out\n        /* \"#utility.yul\":6554:6647   */\n    tag_95:\n        /* \"#utility.yul\":6591:6597   */\n      0x00\n        /* \"#utility.yul\":6638:6640   */\n      0x20\n        /* \"#utility.yul\":6633:6635   */\n      0x1f\n        /* \"#utility.yul\":6626:6631   */\n      dup4\n        /* \"#utility.yul\":6622:6636   */\n      add\n        /* \"#utility.yul\":6618:6641   */\n      div\n        /* \"#utility.yul\":6608:6641   */\n      swap1\n      pop\n        /* \"#utility.yul\":6554:6647   */\n      swap2\n      swap1\n      pop\n      jump\t// out\n        /* \"#utility.yul\":6653:6760   */\n    tag_96:\n        /* \"#utility.yul\":6697:6705   */\n      0x00\n        /* \"#utility.yul\":6747:6752   */\n      dup3\n        /* \"#utility.yul\":6741:6745   */\n      dup3\n        /* \"#utility.yul\":6737:6753   */\n      shl\n        /* \"#utility.yul\":6716:6753   */\n      swap1\n      pop\n        /* \"#utility.yul\":6653:6760   */\n      swap3\n      swap2\n      pop\n      pop\n      jump\t// out\n        /* \"#utility.yul\":6766:7159   */\n    tag_97:\n        /* \"#utility.yul\":6835:6841   */\n      0x00\n        /* \"#utility.yul\":6885:6886   */\n      0x08\n        /* \"#utility.yul\":6873:6883   */\n      dup4\n        /* \"#utility.yul\":6869:6887   */\n      mul\n        /* \"#utility.yul\":6908:7005   */\n      tag_194\n        /* \"#utility.yul\":6938:7004   */\n      0xffffffffffffffffffffffffffffffffffffffffffffffffffffffffffffffff\n        /* \"#utility.yul\":6927:6936   */\n      dup3\n        /* \"#utility.yul\":6908:7005   */\n      tag_96\n      jump\t// in\n    tag_194:\n        /* \"#utility.yul\":7026:7065   */\n      tag_195\n        /* \"#utility.yul\":7056:7064   */\n      dup7\n        /* \"#utility.yul\":7045:7054   */\n      dup4\n        /* \"#utility.yul\":7026:7065   */\n      tag_96\n      jump\t// in\n    tag_195:\n        /* \"#utility.yul\":7014:7065   */\n      swap6\n      pop\n        /* \"#utility.yul\":7098:7102   */\n      dup1\n        /* \"#utility.yul\":7094:7103   */\n      not\n        /* \"#utility.yul\":7087:7092   */\n      dup5\n        /* \"#utility.yul\":7083:7104   */\n      and\n        /* \"#utility.yul\":7074:7104   */\n      swap4\n      pop\n        /* \"#utility.yul\":7147:7151   */\n      dup1\n        /* \"#utility.yul\":7137:7145   */\n      dup7\n        /* \"#utility.yul\":7133:7152   */\n      and\n        /* \"#utility.yul\":7126:7131   */\n      dup5\n        /* \"#utility.yul\":7123:7153   */\n      or\n        /* \"#utility.yul\":7113:7153   */\n      swap3\n      pop\n        /* \"#utility.yul\":6842:7159   */\n      pop\n      pop\n        /* \"#utility.yul\":6766:7159   */\n      swap4\n      swap3\n      pop\n      pop\n      pop\n      jump\t// out\n        /* \"#utility.yul\":7165:7225   */\n    tag_98:\n        /* \"#utility.yul\":7193:7196   */\n      0x00\n        /* \"#utility.yul\":7214:7219   */\n      dup2\n        /* \"#utility.yul\":7207:7219   */\n      swap1\n      pop\n        /* \"#utility.yul\":7165:7225   */\n      swap2\n      swap1\n      pop\n      jump\t// out\n        /* \"#utility.yul\":7231:7373   */\n    tag_99:\n        /* \"#utility.yul\":7281:7290   */\n      0x00\n        /* \"#utility.yul\":7314:7367   */\n      tag_198\n        /* \"#utility.yul\":7332:7366   */\n      tag_199\n        /* \"#utility.yul\":7341:7365   */\n      tag_200\n        /* \"#utility.yul\":7359:7364   */\n      dup5\n        /* \"#utility.yul\":7341:7365   */\n      tag_73\n      jump\t// in\n    tag_200:\n        /* \"#utility.yul\":7332:7366   */\n      tag_98\n      jump\t// in\n    tag_199:\n        /* \"#utility.yul\":7314:7367   */\n      tag_73\n      jump\t// in\n    tag_198:\n        /* \"#utility.yul\":7301:7367   */\n      swap1\n      pop\n        /* \"#utility.yul\":7231:7373   */\n      swap2\n      swap1\n      pop\n      jump\t// out\n        /* \"#utility.yul\":7379:7454   */\n    tag_100:\n        /* \"#utility.yul\":7422:7425   */\n      0x00\n        /* \"#utility.yul\":7443:7448   */\n      dup2\n        /* \"#utility.yul\":7436:7448   */\n      swap1\n      pop\n        /* \"#utility.yul\":7379:7454   */\n      swap2\n      swap1\n      pop\n      jump\t// out\n        /* \"#utility.yul\":7460:7729   */\n    tag_101:\n        /* \"#utility.yul\":7570:7609   */\n      tag_203\n        /* \"#utility.yul\":7601:7608   */\n      dup4\n        /* \"#utility.yul\":7570:7609   */\n      tag_99\n      jump\t// in\n    tag_203:\n        /* \"#utility.yul\":7631:7722   */\n      tag_204\n        /* \"#utility.yul\":7680:7721   */\n      tag_205\n        /* \"#utility.yul\":7704:7720   */\n      dup3\n        /* \"#utility.yul\":7680:7721   */\n      tag_100\n      jump\t// in\n    tag_205:\n        /* \"#utility.yul\":7672:7678   */\n      dup5\n        /* \"#utility.yul\":7665:7669   */\n      dup5\n        /* \"#utility.yul\":7659:7670   */\n      sload\n        /* \"#utility.yul\":7631:7722   */\n      tag_97\n      jump\t// in\n    tag_204:\n        /* \"#utility.yul\":7625:7629   */\n      dup3\n        /* \"#utility.yul\":7618:7723   */\n      sstore\n        /* \"#utility.yul\":7536:7729   */\n      pop\n        /* \"#utility.yul\":7460:7729   */\n      pop\n      pop\n      pop\n      jump\t// out\n        /* \"#utility.yul\":7735:7808   */\n    tag_102:\n        /* \"#utility.yul\":7780:7783   */\n      0x00\n        /* \"#utility.yul\":7801:7802   */\n      0x00\n        /* \"#utility.yul\":7794:7802   */\n      swap1\n      pop\n        /* \"#utility.yul\":7735:7808   */\n      swap1\n      jump\t// out\n        /* \"#utility.yul\":7814:8003   */\n    tag_103:\n        /* \"#utility.yul\":7891:7923   */\n      tag_208\n      tag_102\n      jump\t// in\n    tag_208:\n        /* \"#utility.yul\":7932:7997   */\n      tag_209\n        /* \"#utility.yul\":7990:7996   */\n      dup2\n        /* \"#utility.yul\":7982:7988   */\n      dup5\n        /* \"#utility.yul\":7976:7980   */\n      dup5\n        /* \"#utility.yul\":7932:7997   */\n      tag_101\n      jump\t// in\n    tag_209:\n        /* \"#utility.yul\":7867:8003   */\n      pop\n        /* \"#utility.yul\":7814:8003   */\n      pop\n      pop\n      jump\t// out\n        /* \"#utility.yul\":8009:8195   */\n    tag_104:\n        /* \"#utility.yul\":8069:8189   */\n    tag_211:\n        /* \"#utility.yul\":8086:8089   */\n      dup2\n        /* \"#utility.yul\":8079:8084   */\n      dup2\n        /* \"#utility.yul\":8076:8090   */\n      lt\n        /* \"#utility.yul\":8069:8189   */\n      iszero\n      tag_213\n      jumpi\n        /* \"#utility.yul\":8140:8179   */\n      tag_214\n        /* \"#utility.yul\":8177:8178   */\n      0x00\n        /* \"#utility.yul\":8170:8175   */\n      dup3\n        /* \"#utility.yul\":8140:8179   */\n      tag_103\n      jump\t// in\n    tag_214:\n        /* \"#utility.yul\":8113:8114   */\n      0x01\n        /* \"#utility.yul\":8106:8111   */\n      dup2\n        /* \"#utility.yul\":8102:8115   */\n      add\n        /* \"#utility.yul\":8093:8115   */\n      swap1\n      pop\n        /* \"#utility.yul\":8069:8189   */\n      jump(tag_211)\n    tag_213:\n        /* \"#utility.yul\":8009:8195   */\n      pop\n      pop\n      jump\t// out\n        /* \"#utility.yul\":8201:8744   */\n    tag_105:\n        /* \"#utility.yul\":8302:8304   */\n      0x1f\n        /* \"#utility.yul\":8297:8300   */\n      dup3\n        /* \"#utility.yul\":8294:8305   */\n      gt\n        /* \"#utility.yul\":8291:8737   */\n      iszero\n      tag_216\n      jumpi\n        /* \"#utility.yul\":8336:8374   */\n      tag_217\n        /* \"#utility.yul\":8368:8373   */\n      dup2\n        /* \"#utility.yul\":8336:8374   */\n      tag_94\n      jump\t// in\n    tag_217:\n        /* \"#utility.yul\":8420:8449   */\n      tag_218\n        /* \"#utility.yul\":8438:8448   */\n      dup5\n        /* \"#utility.yul\":8420:8449   */\n      tag_95\n      jump\t// in\n    tag_218:\n        /* \"#utility.yul\":8410:8418   */\n      dup2\n        /* \"#utility.yul\":8406:8450   */\n      add\n        /* \"#utility.yul\":8603:8605   */\n      0x20\n        /* \"#utility.yul\":8591:8601   */\n      dup6\n        /* \"#utility.yul\":8588:8606   */\n      lt\n        /* \"#utility.yul\":8585:8634   */\n      iszero\n      tag_219\n      jumpi\n        /* \"#utility.yul\":8624:8632   */\n      dup2\n        /* \"#utility.yul\":8609:8632   */\n      swap1\n      pop\n        /* \"#utility.yul\":8585:8634   */\n    tag_219:\n        /* \"#utility.yul\":8647:8727   */\n      tag_220\n        /* \"#utility.yul\":8703:8725   */\n      tag_221\n        /* \"#utility.yul\":8721:8724   */\n      dup6\n        /* \"#utility.yul\":8703:8725   */\n      tag_95\n      jump\t// in\n    tag_221:\n        /* \"#utility.yul\":8693:8701   */\n      dup4\n        /* \"#utility.yul\":8689:8726   */\n      add\n        /* \"#utility.yul\":8676:8687   */\n      dup3\n        /* \"#utility.yul\":8647:8727   */\n      tag_104\n      jump\t// in\n    tag_220:\n        /* \"#utility.yul\":8306:8737   */\n      pop\n      pop\n        /* \"#utility.yul\":8291:8737   */\n    tag_216:\n        /* \"#utility.yul\":8201:8744   */\n      pop\n      pop\n      pop\n      jump\t// out\n        /* \"#utility.yul\":8750:8867   */\n    tag_106:\n        /* \"#utility.yul\":8804:8812   */\n      0x00\n        /* \"#utility.yul\":8854:8859   */\n      dup3\n        /* \"#utility.yul\":8848:8852   */\n      dup3\n        /* \"#utility.yul\":8844:8860   */\n      shr\n        /* \"#utility.yul\":8823:8860   */\n      swap1\n      pop\n        /* \"#utility.yul\":8750:8867   */\n      swap3\n      swap2\n      pop\n      pop\n      jump\t// out\n        /* \"#utility.yul\":8873:9042   */\n    tag_107:\n        /* \"#utility.yul\":8917:8923   */\n      0x00\n        /* \"#utility.yul\":8950:9001   */\n      tag_224\n        /* \"#utility.yul\":8998:8999   */\n      0x00\n        /* \"#utility.yul\":8994:9000   */\n      not\n        /* \"#utility.yul\":8986:8991   */\n      dup5\n        /* \"#utility.yul\":8983:8984   */\n      0x08\n        /* \"#utility.yul\":8979:8992   */\n      mul\n        /* \"#utility.yul\":8950:9001   */\n      tag_106\n      jump\t// in\n    tag_224:\n        /* \"#utility.yul\":8946:9002   */\n      not\n        /* \"#utility.yul\":9031:9035   */\n      dup1\n        /* \"#utility.yul\":9025:9029   */\n      dup4\n        /* \"#utility.yul\":9021:9036   */\n      and\n        /* \"#utility.yul\":9011:9036   */\n      swap2\n      pop\n        /* \"#utility.yul\":8924:9042   */\n      pop\n        /* \"#utility.yul\":8873:9042   */\n      swap3\n      swap2\n      pop\n      pop\n      jump\t// out\n        /* \"#utility.yul\":9047:9342   */\n    tag_108:\n        /* \"#utility.yul\":9123:9127   */\n      0x00\n        /* \"#utility.yul\":9269:9298   */\n      tag_226\n        /* \"#utility.yul\":9294:9297   */\n      dup4\n        /* \"#utility.yul\":9288:9292   */\n      dup4\n        /* \"#utility.yul\":9269:9298   */\n      tag_107\n      jump\t// in\n    tag_226:\n        /* \"#utility.yul\":9261:9298   */\n      swap2\n      pop\n        /* \"#utility.yul\":9331:9334   */\n      dup3\n        /* \"#utility.yul\":9328:9329   */\n      0x02\n        /* \"#utility.yul\":9324:9335   */\n      mul\n        /* \"#utility.yul\":9318:9322   */\n      dup3\n        /* \"#utility.yul\":9315:9336   */\n      or\n        /* \"#utility.yul\":9307:9336   */\n      swap1\n      pop\n        /* \"#utility.yul\":9047:9342   */\n      swap3\n      swap2\n      pop\n      pop\n      jump\t// out\n        /* \"#utility.yul\":9347:10742   */\n    tag_35:\n        /* \"#utility.yul\":9464:9501   */\n      tag_228\n        /* \"#utility.yul\":9497:9500   */\n      dup3\n        /* \"#utility.yul\":9464:9501   */\n      tag_87\n      jump\t// in\n    tag_228:\n        /* \"#utility.yul\":9566:9584   */\n      0xffffffffffffffff\n        /* \"#utility.yul\":9558:9564   */\n      dup2\n        /* \"#utility.yul\":9555:9585   */\n      gt\n        /* \"#utility.yul\":9552:9608   */\n      iszero\n      tag_229\n      jumpi\n        /* \"#utility.yul\":9588:9606   */\n      tag_230\n      tag_92\n      jump\t// in\n    tag_230:\n        /* \"#utility.yul\":9552:9608   */\n    tag_229:\n        /* \"#utility.yul\":9632:9670   */\n      tag_231\n        /* \"#utility.yul\":9664:9668   */\n      dup3\n        /* \"#utility.yul\":9658:9669   */\n      sload\n        /* \"#utility.yul\":9632:9670   */\n      tag_49\n      jump\t// in\n    tag_231:\n        /* \"#utility.yul\":9717:9784   */\n      tag_232\n        /* \"#utility.yul\":9777:9783   */\n      dup3\n        /* \"#utility.yul\":9769:9775   */\n      dup3\n        /* \"#utility.yul\":9763:9767   */\n      dup6\n        /* \"#utility.yul\":9717:9784   */\n      tag_105\n      jump\t// in\n    tag_232:\n        /* \"#utility.yul\":9811:9812   */\n      0x00\n        /* \"#utility.yul\":9835:9839   */\n      0x20\n        /* \"#utility.yul\":9822:9839   */\n      swap1\n      pop\n        /* \"#utility.yul\":9867:9869   */\n      0x1f\n        /* \"#utility.yul\":9859:9865   */\n      dup4\n        /* \"#utility.yul\":9856:9870   */\n      gt\n        /* \"#utility.yul\":9884:9885   */\n      0x01\n        /* \"#utility.yul\":9879:10497   */\n      dup2\n      eq\n      tag_234\n      jumpi\n        /* \"#utility.yul\":10541:10542   */\n      0x00\n        /* \"#utility.yul\":10558:10564   */\n      dup5\n        /* \"#utility.yul\":10555:10632   */\n      iszero\n      tag_235\n      jumpi\n        /* \"#utility.yul\":10607:10616   */\n      dup3\n        /* \"#utility.yul\":10602:10605   */\n      dup8\n        /* \"#utility.yul\":10598:10617   */\n      add\n        /* \"#utility.yul\":10592:10618   */\n      mload\n        /* \"#utility.yul\":10583:10618   */\n      swap1\n      pop\n        /* \"#utility.yul\":10555:10632   */\n    tag_235:\n        /* \"#utility.yul\":10658:10725   */\n      tag_236\n        /* \"#utility.yul\":10718:10724   */\n      dup6\n        /* \"#utility.yul\":10711:10716   */\n      dup3\n        /* \"#utility.yul\":10658:10725   */\n      tag_108\n      jump\t// in\n    tag_236:\n        /* \"#utility.yul\":10652:10656   */\n      dup7\n        /* \"#utility.yul\":10645:10726   */\n      sstore\n        /* \"#utility.yul\":10514:10736   */\n      pop\n        /* \"#utility.yul\":9849:10736   */\n      jump(tag_233)\n        /* \"#utility.yul\":9879:10497   */\n    tag_234:\n        /* \"#utility.yul\":9931:9935   */\n      0x1f\n        /* \"#utility.yul\":9927:9936   */\n      not\n        /* \"#utility.yul\":9919:9925   */\n      dup5\n        /* \"#utility.yul\":9915:9937   */\n      and\n        /* \"#utility.yul\":9965:10002   */\n      tag_237\n        /* \"#utility.yul\":9997:10001   */\n      dup7\n        /* \"#utility.yul\":9965:10002   */\n      tag_94\n      jump\t// in\n    tag_237:\n        /* \"#utility.yul\":10024:10025   */\n      0x00\n        /* \"#utility.yul\":10038:10246   */\n    tag_238:\n        /* \"#utility.yul\":10052:10059   */\n      dup3\n        /* \"#utility.yul\":10049:10050   */\n      dup2\n        /* \"#utility.yul\":10046:10060   */\n      lt\n        /* \"#utility.yul\":10038:10246   */\n      iszero\n      tag_240\n      jumpi\n        /* \"#utility.yul\":10131:10140   */\n      dup5\n        /* \"#utility.yul\":10126:10129   */\n      dup10\n        /* \"#utility.yul\":10122:10141   */\n      add\n        /* \"#utility.yul\":10116:10142   */\n      mload\n        /* \"#utility.yul\":10108:10114   */\n      dup3\n        /* \"#utility.yul\":10101:10143   */\n      sstore\n        /* \"#utility.yul\":10182:10183   */\n      0x01\n        /* \"#utility.yul\":10174:10180   */\n      dup3\n        /* \"#utility.yul\":10170:10184   */\n      add\n        /* \"#utility.yul\":10160:10184   */\n      swap2\n      pop\n        /* \"#utility.yul\":10229:10231   */\n      0x20\n        /* \"#utility.yul\":10218:10227   */\n      dup6\n        /* \"#utility.yul\":10214:10232   */\n      add\n        /* \"#utility.yul\":10201:10232   */\n      swap5\n      pop\n        /* \"#utility.yul\":10075:10079   */\n      0x20\n        /* \"#utility.yul\":10072:10073   */\n      dup2\n        /* \"#utility.yul\":10068:10080   */\n      add\n        /* \"#utility.yul\":10063:10080   */\n      swap1\n      pop\n        /* \"#utility.yul\":10038:10246   */\n      jump(tag_238)\n    tag_240:\n        /* \"#utility.yul\":10274:10280   */\n      dup7\n        /* \"#utility.yul\":10265:10272   */\n      dup4\n        /* \"#utility.yul\":10262:10281   */\n      lt\n        /* \"#utility.yul\":10259:10438   */\n      iszero\n      tag_241\n      jumpi\n        /* \"#utility.yul\":10332:10341   */\n      dup5\n        /* \"#utility.yul\":10327:10330   */\n      dup10\n        /* \"#utility.yul\":10323:10342   */\n      add\n        /* \"#utility.yul\":10317:10343   */\n      mload\n        /* \"#utility.yul\":10375:10423   */\n      tag_242\n        /* \"#utility.yul\":10417:10421   */\n      0x1f\n        /* \"#utility.yul\":10409:10415   */\n      dup10\n        /* \"#utility.yul\":10405:10422   */\n      and\n        /* \"#utility.yul\":10394:10403   */\n      dup3\n        /* \"#utility.yul\":10375:10423   */\n      tag_107\n      jump\t// in\n    tag_242:\n        /* \"#utility.yul\":10367:10373   */\n      dup4\n        /* \"#utility.yul\":10360:10424   */\n      sstore\n        /* \"#utility.yul\":10282:10438   */\n      pop\n        /* \"#utility.yul\":10259:10438   */\n    tag_241:\n        /* \"#utility.yul\":10484:10485   */\n      0x01\n        /* \"#utility.yul\":10480:10481   */\n      0x02\n        /* \"#utility.yul\":10472:10478   */\n      dup9\n        /* \"#utility.yul\":10468:10482   */\n      mul\n        /* \"#utility.yul\":10464:10486   */\n      add\n        /* \"#utility.yul\":10458:10462   */\n      dup9\n        /* \"#utility.yul\":10451:10487   */\n      sstore\n        /* \"#utility.yul\":9886:10497   */\n      pop\n      pop\n      pop\n        /* \"#utility.yul\":9849:10736   */\n    tag_233:\n      pop\n        /* \"#utility.yul\":9439:10742   */\n      pop\n      pop\n      pop\n        /* \"#utility.yul\":9347:10742   */\n      pop\n      pop\n      jump\t// out\n        /* \"#utility.yul\":10748:10845   */\n    tag_109:\n        /* \"#utility.yul\":10807:10813   */\n      0x00\n        /* \"#utility.yul\":10835:10838   */\n      dup3\n        /* \"#utility.yul\":10825:10838   */\n      swap1\n      pop\n        /* \"#utility.yul\":10748:10845   */\n      swap3\n      swap2\n      pop\n      pop\n      jump\t// out\n        /* \"#utility.yul\":10851:12254   */\n    tag_37:\n        /* \"#utility.yul\":10975:11019   */\n      tag_245\n        /* \"#utility.yul\":11015:11018   */\n      dup4\n        /* \"#utility.yul\":11010:11013   */\n      dup4\n        /* \"#utility.yul\":10975:11019   */\n      tag_109\n      jump\t// in\n    tag_245:\n        /* \"#utility.yul\":11084:11102   */\n      0xffffffffffffffff\n        /* \"#utility.yul\":11076:11082   */\n      dup2\n        /* \"#utility.yul\":11073:11103   */\n      gt\n        /* \"#utility.yul\":11070:11126   */\n      iszero\n      tag_246\n      jumpi\n        /* \"#utility.yul\":11106:11124   */\n      tag_247\n      tag_92\n      jump\t// in\n    tag_247:\n        /* \"#utility.yul\":11070:11126   */\n    tag_246:\n        /* \"#utility.yul\":11150:11188   */\n      tag_248\n        /* \"#utility.yul\":11182:11186   */\n      dup3\n        /* \"#utility.yul\":11176:11187   */\n      sload\n        /* \"#utility.yul\":11150:11188   */\n      tag_49\n      jump\t// in\n    tag_248:\n        /* \"#utility.yul\":11235:11302   */\n      tag_249\n        /* \"#utility.yul\":11295:11301   */\n      dup3\n        /* \"#utility.yul\":11287:11293   */\n      dup3\n        /* \"#utility.yul\":11281:11285   */\n      dup6\n        /* \"#utility.yul\":11235:11302   */\n      tag_105\n      jump\t// in\n    tag_249:\n        /* \"#utility.yul\":11329:11330   */\n      0x00\n        /* \"#utility.yul\":11358:11360   */\n      0x1f\n        /* \"#utility.yul\":11350:11356   */\n      dup4\n        /* \"#utility.yul\":11347:11361   */\n      gt\n        /* \"#utility.yul\":11375:11376   */\n      0x01\n        /* \"#utility.yul\":11370:12002   */\n      dup2\n      eq\n      tag_251\n      jumpi\n        /* \"#utility.yul\":12046:12047   */\n      0x00\n        /* \"#utility.yul\":12063:12069   */\n      dup5\n        /* \"#utility.yul\":12060:12144   */\n      iszero\n      tag_252\n      jumpi\n        /* \"#utility.yul\":12119:12128   */\n      dup3\n        /* \"#utility.yul\":12114:12117   */\n      dup8\n        /* \"#utility.yul\":12110:12129   */\n      add\n        /* \"#utility.yul\":12097:12130   */\n      calldataload\n        /* \"#utility.yul\":12088:12130   */\n      swap1\n      pop\n        /* \"#utility.yul\":12060:12144   */\n    tag_252:\n        /* \"#utility.yul\":12170:12237   */\n      tag_253\n        /* \"#utility.yul\":12230:12236   */\n      dup6\n        /* \"#utility.yul\":12223:12228   */\n      dup3\n        /* \"#utility.yul\":12170:12237   */\n      tag_108\n      jump\t// in\n    tag_253:\n        /* \"#utility.yul\":12164:12168   */\n      dup7\n        /* \"#utility.yul\":12157:12238   */\n      sstore\n        /* \"#utility.yul\":12019:12248   */\n      pop\n        /* \"#utility.yul\":11340:12248   */\n      jump(tag_250)\n        /* \"#utility.yul\":11370:12002   */\n    tag_251:\n        /* \"#utility.yul\":11422:11426   */\n      0x1f\n        /* \"#utility.yul\":11418:11427   */\n      not\n        /* \"#utility.yul\":11410:11416   */\n      dup5\n        /* \"#utility.yul\":11406:11428   */\n      and\n        /* \"#utility.yul\":11456:11493   */\n      tag_254\n        /* \"#utility.yul\":11488:11492   */\n      dup7\n        /* \"#utility.yul\":11456:11493   */\n      tag_94\n      jump\t// in\n    tag_254:\n        /* \"#utility.yul\":11515:11516   */\n      0x00\n        /* \"#utility.yul\":11529:11744   */\n    tag_255:\n        /* \"#utility.yul\":11543:11550   */\n      dup3\n        /* \"#utility.yul\":11540:11541   */\n      dup2\n        /* \"#utility.yul\":11537:11551   */\n      lt\n        /* \"#utility.yul\":11529:11744   */\n      iszero\n      tag_257\n      jumpi\n        /* \"#utility.yul\":11629:11638   */\n      dup5\n        /* \"#utility.yul\":11624:11627   */\n      dup10\n        /* \"#utility.yul\":11620:11639   */\n      add\n        /* \"#utility.yul\":11607:11640   */\n      calldataload\n        /* \"#utility.yul\":11599:11605   */\n      dup3\n        /* \"#utility.yul\":11592:11641   */\n      sstore\n        /* \"#utility.yul\":11680:11681   */\n      0x01\n        /* \"#utility.yul\":11672:11678   */\n      dup3\n        /* \"#utility.yul\":11668:11682   */\n      add\n        /* \"#utility.yul\":11658:11682   */\n      swap2\n      pop\n        /* \"#utility.yul\":11727:11729   */\n      0x20\n        /* \"#utility.yul\":11716:11725   */\n      dup6\n        /* \"#utility.yul\":11712:11730   */\n      add\n        /* \"#utility.yul\":11699:11730   */\n      swap5\n      pop\n        /* \"#utility.yul\":11566:11570   */\n      0x20\n        /* \"#utility.yul\":11563:11564   */\n      dup2\n        /* \"#utility.yul\":11559:11571   */\n      add\n        /* \"#utility.yul\":11554:11571   */\n      swap1\n      pop\n        /* \"#utility.yul\":11529:11744   */\n      jump(tag_255)\n    tag_257:\n        /* \"#utility.yul\":11772:11778   */\n      dup7\n        /* \"#utility.yul\":11763:11770   */\n      dup4\n        /* \"#utility.yul\":11760:11779   */\n      lt\n        /* \"#utility.yul\":11757:11943   */\n      iszero\n      tag_258\n      jumpi\n        /* \"#utility.yul\":11837:11846   */\n      dup5\n        /* \"#utility.yul\":11832:11835   */\n      dup10\n        /* \"#utility.yul\":11828:11847   */\n      add\n        /* \"#utility.yul\":11815:11848   */\n      calldataload\n        /* \"#utility.yul\":11880:11928   */\n      tag_259\n        /* \"#utility.yul\":11922:11926   */\n      0x1f\n        /* \"#utility.yul\":11914:11920   */\n      dup10\n        /* \"#utility.yul\":11910:11927   */\n      and\n        /* \"#utility.yul\":11899:11908   */\n      dup3\n        /* \"#utility.yul\":11880:11928   */\n      tag_107\n      jump\t// in\n    tag_259:\n        /* \"#utility.yul\":11872:11878   */\n      dup4\n        /* \"#utility.yul\":11865:11929   */\n      sstore\n        /* \"#utility.yul\":11780:11943   */\n      pop\n        /* \"#utility.yul\":11757:11943   */\n    tag_258:\n        /* \"#utility.yul\":11989:11990   */\n      0x01\n        /* \"#utility.yul\":11985:11986   */\n      0x02\n        /* \"#utility.yul\":11977:11983   */\n      dup9\n        /* \"#utility.yul\":11973:11987   */\n      mul\n        /* \"#utility.yul\":11969:11991   */\n      add\n        /* \"#utility.yul\":11963:11967   */\n      dup9\n        /* \"#utility.yul\":11956:11992   */\n      sstore\n        /* \"#utility.yul\":11377:12002   */\n      pop\n      pop\n      pop\n        /* \"#utility.yul\":11340:12248   */\n    tag_250:\n      pop\n        /* \"#utility.yul\":10950:12254   */\n      pop\n      pop\n      pop\n        /* \"#utility.yul\":10851:12254   */\n      pop\n      pop\n      pop\n      jump\t// out\n        /* \"#utility.yul\":12260:12440   */\n    tag_110:\n        /* \"#utility.yul\":12308:12385   */\n      0x4e487b7100000000000000000000000000000000000000000000000000000000\n        /* \"#utility.yul\":12305:12306   */\n      0x00\n        /* \"#utility.yul\":12298:12386   */\n      mstore\n        /* \"#utility.yul\":12405:12409   */\n      0x11\n        /* \"#utility.yul\":12402:12403   */\n      0x04\n        /* \"#utility.yul\":12395:12410   */\n      mstore\n        /* \"#utility.yul\":12429:12433   */\n      0x24\n        /* \"#utility.yul\":12426:12427   */\n      0x00\n        /* \"#utility.yul\":12419:12434   */\n      revert\n        /* \"#utility.yul\":12446:12717   */\n    tag_41:\n        /* \"#utility.yul\":12484:12491   */\n      0x00\n        /* \"#utility.yul\":12507:12525   */\n      tag_262\n        /* \"#utility.yul\":12523:12524   */\n      dup3\n        /* \"#utility.yul\":12507:12525   */\n      tag_83\n      jump\t// in\n    tag_262:\n        /* \"#utility.yul\":12502:12525   */\n      swap2\n      pop\n        /* \"#utility.yul\":12539:12557   */\n      tag_263\n        /* \"#utility.yul\":12555:12556   */\n      dup4\n        /* \"#utility.yul\":12539:12557   */\n      tag_83\n      jump\t// in\n    tag_263:\n        /* \"#utility.yul\":12534:12557   */\n      swap3\n      pop\n        /* \"#utility.yul\":12592:12593   */\n      dup3\n        /* \"#utility.yul\":12589:12590   */\n      dup3\n        /* \"#utility.yul\":12585:12594   */\n      mul\n        /* \"#utility.yul\":12614:12642   */\n      tag_264\n        /* \"#utility.yul\":12630:12641   */\n      dup2\n        /* \"#utility.yul\":12614:12642   */\n      tag_83\n      jump\t// in\n    tag_264:\n        /* \"#utility.yul\":12603:12642   */\n      swap2\n      pop\n        /* \"#utility.yul\":12674:12685   */\n      dup1\n        /* \"#utility.yul\":12665:12672   */\n      dup3\n        /* \"#utility.yul\":12662:12686   */\n      eq\n        /* \"#utility.yul\":12652:12710   */\n      tag_265\n      jumpi\n        /* \"#utility.yul\":12690:12708   */\n      tag_266\n      tag_110\n      jump\t// in\n    tag_266:\n        /* \"#utility.yul\":12652:12710   */\n    tag_265:\n        /* \"#utility.yul\":12492:12717   */\n      pop\n        /* \"#utility.yul\":12446:12717   */\n      swap3\n      swap2\n      pop\n      pop\n      jump\t// out\n        /* \"#utility.yul\":12723:12911   */\n    tag_43:\n        /* \"#utility.yul\":12761:12764   */\n      0x00\n        /* \"#utility.yul\":12780:12798   */\n      tag_268\n        /* \"#utility.yul\":12796:12797   */\n      dup3\n        /* \"#utility.yul\":12780:12798   */\n      tag_83\n      jump\t// in\n    tag_268:\n        /* \"#utility.yul\":12775:12798   */\n      swap2\n      pop\n        /* \"#utility.yul\":12812:12830   */\n      tag_269\n        /* \"#utility.yul\":12828:12829   */\n      dup4\n        /* \"#utility.yul\":12812:12830   */\n      tag_83\n      jump\t// in\n    tag_269:\n        /* \"#utility.yul\":12807:12830   */\n      swap3\n      pop\n        /* \"#utility.yul\":12853:12854   */\n      dup3\n        /* \"#utility.yul\":12850:12851   */\n      dup3\n        /* \"#utility.yul\":12846:12855   */\n      add\n        /* \"#utility.yul\":12839:12855   */\n      swap1\n      pop\n        /* \"#utility.yul\":12876:12880   */\n      0xff\n        /* \"#utility.yul\":12871:12874   */\n      dup2\n        /* \"#utility.yul\":12868:12881   */\n      gt\n        /* \"#utility.yul\":12865:12904   */\n      iszero\n      tag_270\n      jumpi\n        /* \"#utility.yul\":12884:12902   */\n      tag_271\n      tag_110\n      jump\t// in\n    tag_271:\n        /* \"#utility.yul\":12865:12904   */\n    tag_270:\n        /* \"#utility.yul\":12723:12911   */\n      swap3\n      swap2\n      pop\n      pop\n      jump\t// out\n        /* \"#utility.yul\":12917:13066   */\n    tag_111:\n        /* \"#utility.yul\":12953:12960   */\n      0x00\n        /* \"#utility.yul\":12993:13059   */\n      0xff00000000000000000000000000000000000000000000000000000000000000\n        /* \"#utility.yul\":12986:12991   */\n      dup3\n        /* \"#utility.yul\":12982:13060   */\n      and\n        /* \"#utility.yul\":12971:13060   */\n      swap1\n      pop\n        /* \"#utility.yul\":12917:13066   */\n      swap2\n      swap1\n      pop\n      jump\t// out\n        /* \"#utility.yul\":13072:13150   */\n    tag_112:\n        /* \"#utility.yul\":13110:13117   */\n      0x00\n        /* \"#utility.yul\":13139:13144   */\n      dup2\n        /* \"#utility.yul\":13128:13144   */\n      swap1\n      pop\n        /* \"#utility.yul\":13072:13150   */\n      swap2\n      swap1\n      pop\n      jump\t// out\n        /* \"#utility.yul\":13156:13309   */\n    tag_113:\n        /* \"#utility.yul\":13259:13302   */\n      tag_275\n        /* \"#utility.yul\":13278:13301   */\n      tag_276\n        /* \"#utility.yul\":13295:13300   */\n      dup3\n        /* \"#utility.yul\":13278:13301   */\n      tag_111\n      jump\t// in\n    tag_276:\n        /* \"#utility.yul\":13259:13302   */\n      tag_112\n      jump\t// in\n    tag_275:\n        /* \"#utility.yul\":13254:13257   */\n      dup3\n        /* \"#utility.yul\":13247:13303   */\n      mstore\n        /* \"#utility.yul\":13156:13309   */\n      pop\n      pop\n      jump\t// out\n        /* \"#utility.yul\":13315:13409   */\n    tag_114:\n        /* \"#utility.yul\":13348:13356   */\n      0x00\n        /* \"#utility.yul\":13396:13401   */\n      dup2\n        /* \"#utility.yul\":13392:13394   */\n      0x60\n        /* \"#utility.yul\":13388:13402   */\n      shl\n        /* \"#utility.yul\":13367:13402   */\n      swap1\n      pop\n        /* \"#utility.yul\":13315:13409   */\n      swap2\n      swap1\n      pop\n      jump\t// out\n        /* \"#utility.yul\":13415:13509   */\n    tag_115:\n        /* \"#utility.yul\":13454:13461   */\n      0x00\n        /* \"#utility.yul\":13483:13503   */\n      tag_279\n        /* \"#utility.yul\":13497:13502   */\n      dup3\n        /* \"#utility.yul\":13483:13503   */\n      tag_114\n      jump\t// in\n    tag_279:\n        /* \"#utility.yul\":13472:13503   */\n      swap1\n      pop\n        /* \"#utility.yul\":13415:13509   */\n      swap2\n      swap1\n      pop\n      jump\t// out\n        /* \"#utility.yul\":13515:13615   */\n    tag_116:\n        /* \"#utility.yul\":13554:13561   */\n      0x00\n        /* \"#utility.yul\":13583:13609   */\n      tag_281\n        /* \"#utility.yul\":13603:13608   */\n      dup3\n        /* \"#utility.yul\":13583:13609   */\n      tag_115\n      jump\t// in\n    tag_281:\n        /* \"#utility.yul\":13572:13609   */\n      swap1\n      pop\n        /* \"#utility.yul\":13515:13615   */\n      swap2\n      swap1\n      pop\n      jump\t// out\n        /* \"#utility.yul\":13621:13778   */\n    tag_117:\n        /* \"#utility.yul\":13726:13771   */\n      tag_283\n        /* \"#utility.yul\":13746:13770   */\n      tag_284\n        /* \"#utility.yul\":13764:13769   */\n      dup3\n        /* \"#utility.yul\":13746:13770   */\n      tag_81\n      jump\t// in\n    tag_284:\n        /* \"#utility.yul\":13726:13771   */\n      tag_116\n      jump\t// in\n    tag_283:\n        /* \"#utility.yul\":13721:13724   */\n      dup3\n        /* \"#utility.yul\":13714:13772   */\n      mstore\n        /* \"#utility.yul\":13621:13778   */\n      pop\n      pop\n      jump\t// out\n        /* \"#utility.yul\":13784:14448   */\n    tag_62:\n        /* \"#utility.yul\":13974:13977   */\n      0x00\n        /* \"#utility.yul\":13989:14062   */\n      tag_286\n        /* \"#utility.yul\":14058:14061   */\n      dup3\n        /* \"#utility.yul\":14049:14055   */\n      dup8\n        /* \"#utility.yul\":13989:14062   */\n      tag_113\n      jump\t// in\n    tag_286:\n        /* \"#utility.yul\":14087:14088   */\n      0x01\n        /* \"#utility.yul\":14082:14085   */\n      dup3\n        /* \"#utility.yul\":14078:14089   */\n      add\n        /* \"#utility.yul\":14071:14089   */\n      swap2\n      pop\n        /* \"#utility.yul\":14099:14172   */\n      tag_287\n        /* \"#utility.yul\":14168:14171   */\n      dup3\n        /* \"#utility.yul\":14159:14165   */\n      dup7\n        /* \"#utility.yul\":14099:14172   */\n      tag_113\n      jump\t// in\n    tag_287:\n        /* \"#utility.yul\":14197:14198   */\n      0x01\n        /* \"#utility.yul\":14192:14195   */\n      dup3\n        /* \"#utility.yul\":14188:14199   */\n      add\n        /* \"#utility.yul\":14181:14199   */\n      swap2\n      pop\n        /* \"#utility.yul\":14209:14284   */\n      tag_288\n        /* \"#utility.yul\":14280:14283   */\n      dup3\n        /* \"#utility.yul\":14271:14277   */\n      dup6\n        /* \"#utility.yul\":14209:14284   */\n      tag_117\n      jump\t// in\n    tag_288:\n        /* \"#utility.yul\":14309:14311   */\n      0x14\n        /* \"#utility.yul\":14304:14307   */\n      dup3\n        /* \"#utility.yul\":14300:14312   */\n      add\n        /* \"#utility.yul\":14293:14312   */\n      swap2\n      pop\n        /* \"#utility.yul\":14322:14395   */\n      tag_289\n        /* \"#utility.yul\":14391:14394   */\n      dup3\n        /* \"#utility.yul\":14382:14388   */\n      dup5\n        /* \"#utility.yul\":14322:14395   */\n      tag_113\n      jump\t// in\n    tag_289:\n        /* \"#utility.yul\":14420:14421   */\n      0x01\n        /* \"#utility.yul\":14415:14418   */\n      dup3\n        /* \"#utility.yul\":14411:14422   */\n      add\n        /* \"#utility.yul\":14404:14422   */\n      swap2\n      pop\n        /* \"#utility.yul\":14439:14442   */\n      dup2\n        /* \"#utility.yul\":14432:14442   */\n      swap1\n      pop\n        /* \"#utility.yul\":13784:14448   */\n      swap6\n      swap5\n      pop\n      pop\n      pop\n      pop\n      pop\n      jump\t// out\n        /* \"#utility.yul\":14454:14737   */\n    tag_118:\n        /* \"#utility.yul\":14594:14628   */\n      0x546865206e6f6e636520697320746f206869676820746f20636f756e74206974\n        /* \"#utility.yul\":14590:14591   */\n      0x00\n        /* \"#utility.yul\":14582:14588   */\n      dup3\n        /* \"#utility.yul\":14578:14592   */\n      add\n        /* \"#utility.yul\":14571:14629   */\n      mstore\n        /* \"#utility.yul\":14663:14729   */\n      0x206d616e75616c6c790a00000000000000000000000000000000000000000000\n        /* \"#utility.yul\":14658:14660   */\n      0x20\n        /* \"#utility.yul\":14650:14656   */\n      dup3\n        /* \"#utility.yul\":14646:14661   */\n      add\n        /* \"#utility.yul\":14639:14730   */\n      mstore\n        /* \"#utility.yul\":14454:14737   */\n      pop\n      jump\t// out\n        /* \"#utility.yul\":14743:15109   */\n    tag_119:\n        /* \"#utility.yul\":14885:14888   */\n      0x00\n        /* \"#utility.yul\":14906:14973   */\n      tag_292\n        /* \"#utility.yul\":14970:14972   */\n      0x2a\n        /* \"#utility.yul\":14965:14968   */\n      dup4\n        /* \"#utility.yul\":14906:14973   */\n      tag_88\n      jump\t// in\n    tag_292:\n        /* \"#utility.yul\":14899:14973   */\n      swap2\n      pop\n        /* \"#utility.yul\":14982:15075   */\n      tag_293\n        /* \"#utility.yul\":15071:15074   */\n      dup3\n        /* \"#utility.yul\":14982:15075   */\n      tag_118\n      jump\t// in\n    tag_293:\n        /* \"#utility.yul\":15100:15102   */\n      0x40\n        /* \"#utility.yul\":15095:15098   */\n      dup3\n        /* \"#utility.yul\":15091:15103   */\n      add\n        /* \"#utility.yul\":15084:15103   */\n      swap1\n      pop\n        /* \"#utility.yul\":14743:15109   */\n      swap2\n      swap1\n      pop\n      jump\t// out\n        /* \"#utility.yul\":15115:15534   */\n    tag_69:\n        /* \"#utility.yul\":15281:15285   */\n      0x00\n        /* \"#utility.yul\":15319:15321   */\n      0x20\n        /* \"#utility.yul\":15308:15317   */\n      dup3\n        /* \"#utility.yul\":15304:15322   */\n      add\n        /* \"#utility.yul\":15296:15322   */\n      swap1\n      pop\n        /* \"#utility.yul\":15368:15377   */\n      dup2\n        /* \"#utility.yul\":15362:15366   */\n      dup2\n        /* \"#utility.yul\":15358:15378   */\n      sub\n        /* \"#utility.yul\":15354:15355   */\n      0x00\n        /* \"#utility.yul\":15343:15352   */\n      dup4\n        /* \"#utility.yul\":15339:15356   */\n      add\n        /* \"#utility.yul\":15332:15379   */\n      mstore\n        /* \"#utility.yul\":15396:15527   */\n      tag_295\n        /* \"#utility.yul\":15522:15526   */\n      dup2\n        /* \"#utility.yul\":15396:15527   */\n      tag_119\n      jump\t// in\n    tag_295:\n        /* \"#utility.yul\":15388:15527   */\n      swap1\n      pop\n        /* \"#utility.yul\":15115:15534   */\n      swap2\n      swap1\n      pop\n      jump\t// out\n\n    auxdata: 0xa264697066735822122057e26df3a6150e7a6afd5018fc4b395cc3864ddbb21848492a64cbcb59b97b8264736f6c634300081e0033\n}\n",
				"bytecode": {
					"linkReferences": {},
					"object": "608060405273deadbeef000000000000000000000000000000005f5f6101000a81548173ffffffffffffffffffffffffffffffffffffffff021916908373ffffffffffffffffffffffffffffffffffffffff1602179055507f76657279536563726574000000000000000000000000000000000000000000005f60146101000a81548169ffffffffffffffffffff021916908360b01c021790555034801560a4575f5ffd5b50610d93806100b25f395ff3fe608060405234801561000f575f5ffd5b5060043610610055575f3560e01c806317a8f8c6146100595780632e64cec1146100755780633eae68bb146100935780638265789f146100c3578063d5d0a74f146100f4575b5f5ffd5b610073600480360381019061006e9190610577565b610124565b005b61007d6101ea565b60405161008a9190610613565b60405180910390f35b6100ad60048036038101906100a89190610662565b610211565b6040516100ba9190610613565b60405180910390f35b6100dd60048036038101906100d8919061068d565b61023e565b6040516100eb929190610737565b60405180910390f35b61010e6004803603810190610109919061068d565b6102f3565b60405161011b9190610765565b60405180910390f35b6002604051806040016040528085815260200184848080601f0160208091040260200160405190810160405280939291908181526020018383808284375f81840152601f19601f82011690508083019250505050505050815250908060018154018082558091505060019003905f5260205f2090600202015f909190919091505f820151815f015560208201518160010190816101c191906109af565b505050818160015f8681526020019081526020015f2091826101e4929190610a88565b50505050565b5f5f5f9054906101000a900473ffffffffffffffffffffffffffffffffffffffff16905090565b5f5f600883846102219190610b82565b61022b9190610bbe565b90506102368161038e565b915050919050565b6002818154811061024d575f80fd5b905f5260205f2090600202015f91509050805f015490806001018054610272906107df565b80601f016020809104026020016040519081016040528092919081815260200182805461029e906107df565b80156102e95780601f106102c0576101008083540402835291602001916102e9565b820191905f5260205f20905b8154815290600101906020018083116102cc57829003601f168201915b5050505050905082565b6001602052805f5260405f205f91509050805461030f906107df565b80601f016020809104026020016040519081016040528092919081815260200182805461033b906107df565b80156103865780601f1061035d57610100808354040283529160200191610386565b820191905f5260205f20905b81548152906001019060200180831161036957829003601f168201915b505050505081565b5f60605f8360ff16036104105760d560f81b609460f81b5f5f9054906101000a900473ffffffffffffffffffffffffffffffffffffffff167f20000000000000000000000000000000000000000000000000000000000000006040516020016103fa9493929190610c82565b60405160208183030381529060405290506104bf565b607f8360ff161115801561042657505f8360ff16115b156104835760d560f81b609460f81b5f5f9054906101000a900473ffffffffffffffffffffffffffffffffffffffff168560f81b60405160200161046d9493929190610c82565b60405160208183030381529060405290506104be565b6040517f08c379a00000000000000000000000000000000000000000000000000000000081526004016104b590610d3f565b60405180910390fd5b5b5f818051906020012090505f815f1c9050809350505050919050565b5f5ffd5b5f5ffd5b5f819050919050565b6104f5816104e3565b81146104ff575f5ffd5b50565b5f81359050610510816104ec565b92915050565b5f5ffd5b5f5ffd5b5f5ffd5b5f5f83601f84011261053757610536610516565b5b8235905067ffffffffffffffff8111156105545761055361051a565b5b6020830191508360018202830111156105705761056f61051e565b5b9250929050565b5f5f5f6040848603121561058e5761058d6104db565b5b5f61059b86828701610502565b935050602084013567ffffffffffffffff8111156105bc576105bb6104df565b5b6105c886828701610522565b92509250509250925092565b5f73ffffffffffffffffffffffffffffffffffffffff82169050919050565b5f6105fd826105d4565b9050919050565b61060d816105f3565b82525050565b5f6020820190506106265f830184610604565b92915050565b5f60ff82169050919050565b6106418161062c565b811461064b575f5ffd5b50565b5f8135905061065c81610638565b92915050565b5f60208284031215610677576106766104db565b5b5f6106848482850161064e565b91505092915050565b5f602082840312156106a2576106a16104db565b5b5f6106af84828501610502565b91505092915050565b6106c1816104e3565b82525050565b5f81519050919050565b5f82825260208201905092915050565b8281835e5f83830152505050565b5f601f19601f8301169050919050565b5f610709826106c7565b61071381856106d1565b93506107238185602086016106e1565b61072c816106ef565b840191505092915050565b5f60408201905061074a5f8301856106b8565b818103602083015261075c81846106ff565b90509392505050565b5f6020820190508181035f83015261077d81846106ff565b905092915050565b7f4e487b71000000000000000000000000000000000000000000000000000000005f52604160045260245ffd5b7f4e487b71000000000000000000000000000000000000000000000000000000005f52602260045260245ffd5b5f60028204905060018216806107f657607f821691505b602082108103610809576108086107b2565b5b50919050565b5f819050815f5260205f209050919050565b5f6020601f8301049050919050565b5f82821b905092915050565b5f6008830261086b7fffffffffffffffffffffffffffffffffffffffffffffffffffffffffffffffff82610830565b6108758683610830565b95508019841693508086168417925050509392505050565b5f819050919050565b5f6108b06108ab6108a6846104e3565b61088d565b6104e3565b9050919050565b5f819050919050565b6108c983610896565b6108dd6108d5826108b7565b84845461083c565b825550505050565b5f5f905090565b6108f46108e5565b6108ff8184846108c0565b505050565b5b81811015610922576109175f826108ec565b600181019050610905565b5050565b601f821115610967576109388161080f565b61094184610821565b81016020851015610950578190505b61096461095c85610821565b830182610904565b50505b505050565b5f82821c905092915050565b5f6109875f198460080261096c565b1980831691505092915050565b5f61099f8383610978565b9150826002028217905092915050565b6109b8826106c7565b67ffffffffffffffff8111156109d1576109d0610785565b5b6109db82546107df565b6109e6828285610926565b5f60209050601f831160018114610a17575f8415610a05578287015190505b610a0f8582610994565b865550610a76565b601f198416610a258661080f565b5f5b82811015610a4c57848901518255600182019150602085019450602081019050610a27565b86831015610a695784890151610a65601f891682610978565b8355505b6001600288020188555050505b505050505050565b5f82905092915050565b610a928383610a7e565b67ffffffffffffffff811115610aab57610aaa610785565b5b610ab582546107df565b610ac0828285610926565b5f601f831160018114610aed575f8415610adb578287013590505b610ae58582610994565b865550610b4c565b601f198416610afb8661080f565b5f5b82811015610b2257848901358255600182019150602085019450602081019050610afd565b86831015610b3f5784890135610b3b601f891682610978565b8355505b6001600288020188555050505b50505050505050565b7f4e487b71000000000000000000000000000000000000000000000000000000005f52601160045260245ffd5b5f610b8c8261062c565b9150610b978361062c565b9250828202610ba58161062c565b9150808214610bb757610bb6610b55565b5b5092915050565b5f610bc88261062c565b9150610bd38361062c565b9250828201905060ff811115610bec57610beb610b55565b5b92915050565b5f7fff0000000000000000000000000000000000000000000000000000000000000082169050919050565b5f819050919050565b610c37610c3282610bf2565b610c1d565b82525050565b5f8160601b9050919050565b5f610c5382610c3d565b9050919050565b5f610c6482610c49565b9050919050565b610c7c610c77826105f3565b610c5a565b82525050565b5f610c8d8287610c26565b600182019150610c9d8286610c26565b600182019150610cad8285610c6b565b601482019150610cbd8284610c26565b60018201915081905095945050505050565b7f546865206e6f6e636520697320746f206869676820746f20636f756e742069745f8201527f206d616e75616c6c790a00000000000000000000000000000000000000000000602082015250565b5f610d29602a836106d1565b9150610d3482610ccf565b604082019050919050565b5f6020820190508181035f830152610d5681610d1d565b905091905056fea264697066735822122057e26df3a6150e7a6afd5018fc4b395cc3864ddbb21848492a64cbcb59b97b8264736f6c634300081e0033",
					"opcodes": "PUSH1 0x80 PUSH1 0x40 MSTORE PUSH20 0xDEADBEEF00000000000000000000000000000000 PUSH0 PUSH0 PUSH2 0x100 EXP DUP2 SLOAD DUP2 PUSH20 0xFFFFFFFFFFFFFFFFFFFFFFFFFFFFFFFFFFFFFFFF MUL NOT AND SWAP1 DUP4 PUSH20 0xFFFFFFFFFFFFFFFFFFFFFFFFFFFFFFFFFFFFFFFF AND MUL OR SWAP1 SSTORE POP PUSH32 0x7665727953656372657400000000000000000000000000000000000000000000 PUSH0 PUSH1 0x14 PUSH2 0x100 EXP DUP2 SLOAD DUP2 PUSH10 0xFFFFFFFFFFFFFFFFFFFF MUL NOT AND SWAP1 DUP4 PUSH1 0xB0 SHR MUL OR SWAP1 SSTORE POP CALLVALUE DUP1 ISZERO PUSH1 0xA4 JUMPI PUSH0 PUSH0 REVERT JUMPDEST POP PUSH2 0xD93 DUP1 PUSH2 0xB2 PUSH0 CODECOPY PUSH0 RETURN INVALID PUSH1 0x80 PUSH1 0x40 MSTORE CALLVALUE DUP1 ISZERO PUSH2 0xF JUMPI PUSH0 PUSH0 REVERT JUMPDEST POP PUSH1 0x4 CALLDATASIZE LT PUSH2 0x55 JUMPI PUSH0 CALLDATALOAD PUSH1 0xE0 SHR DUP1 PUSH4 0x17A8F8C6 EQ PUSH2 0x59 JUMPI DUP1 PUSH4 0x2E64CEC1 EQ PUSH2 0x75 JUMPI DUP1 PUSH4 0x3EAE68BB EQ PUSH2 0x93 JUMPI DUP1 PUSH4 0x8265789F EQ PUSH2 0xC3 JUMPI DUP1 PUSH4 0xD5D0A74F EQ PUSH2 0xF4 JUMPI JUMPDEST PUSH0 PUSH0 REVERT JUMPDEST PUSH2 0x73 PUSH1 0x4 DUP1 CALLDATASIZE SUB DUP2 ADD SWAP1 PUSH2 0x6E SWAP2 SWAP1 PUSH2 0x577 JUMP JUMPDEST PUSH2 0x124 JUMP JUMPDEST STOP JUMPDEST PUSH2 0x7D PUSH2 0x1EA JUMP JUMPDEST PUSH1 0x40 MLOAD PUSH2 0x8A SWAP2 SWAP1 PUSH2 0x613 JUMP JUMPDEST PUSH1 0x40 MLOAD DUP1 SWAP2 SUB SWAP1 RETURN JUMPDEST PUSH2 0xAD PUSH1 0x4 DUP1 CALLDATASIZE SUB DUP2 ADD SWAP1 PUSH2 0xA8 SWAP2 SWAP1 PUSH2 0x662 JUMP JUMPDEST PUSH2 0x211 JUMP JUMPDEST PUSH1 0x40 MLOAD PUSH2 0xBA SWAP2 SWAP1 PUSH2 0x613 JUMP JUMPDEST PUSH1 0x40 MLOAD DUP1 SWAP2 SUB SWAP1 RETURN JUMPDEST PUSH2 0xDD PUSH1 0x4 DUP1 CALLDATASIZE SUB DUP2 ADD SWAP1 PUSH2 0xD8 SWAP2 SWAP1 PUSH2 0x68D JUMP JUMPDEST PUSH2 0x23E JUMP JUMPDEST PUSH1 0x40 MLOAD PUSH2 0xEB SWAP3 SWAP2 SWAP1 PUSH2 0x737 JUMP JUMPDEST PUSH1 0x40 MLOAD DUP1 SWAP2 SUB SWAP1 RETURN JUMPDEST PUSH2 0x10E PUSH1 0x4 DUP1 CALLDATASIZE SUB DUP2 ADD SWAP1 PUSH2 0x109 SWAP2 SWAP1 PUSH2 0x68D JUMP JUMPDEST PUSH2 0x2F3 JUMP JUMPDEST PUSH1 0x40 MLOAD PUSH2 0x11B SWAP2 SWAP1 PUSH2 0x765 JUMP JUMPDEST PUSH1 0x40 MLOAD DUP1 SWAP2 SUB SWAP1 RETURN JUMPDEST PUSH1 0x2 PUSH1 0x40 MLOAD DUP1 PUSH1 0x40 ADD PUSH1 0x40 MSTORE DUP1 DUP6 DUP2 MSTORE PUSH1 0x20 ADD DUP5 DUP5 DUP1 DUP1 PUSH1 0x1F ADD PUSH1 0x20 DUP1 SWAP2 DIV MUL PUSH1 0x20 ADD PUSH1 0x40 MLOAD SWAP1 DUP2 ADD PUSH1 0x40 MSTORE DUP1 SWAP4 SWAP3 SWAP2 SWAP1 DUP2 DUP2 MSTORE PUSH1 0x20 ADD DUP4 DUP4 DUP1 DUP3 DUP5 CALLDATACOPY PUSH0 DUP2 DUP5 ADD MSTORE PUSH1 0x1F NOT PUSH1 0x1F DUP3 ADD AND SWAP1 POP DUP1 DUP4 ADD SWAP3 POP POP POP POP POP POP POP DUP2 MSTORE POP SWAP1 DUP1 PUSH1 0x1 DUP2 SLOAD ADD DUP1 DUP3 SSTORE DUP1 SWAP2 POP POP PUSH1 0x1 SWAP1 SUB SWAP1 PUSH0 MSTORE PUSH1 0x20 PUSH0 KECCAK256 SWAP1 PUSH1 0x2 MUL ADD PUSH0 SWAP1 SWAP2 SWAP1 SWAP2 SWAP1 SWAP2 POP PUSH0 DUP3 ADD MLOAD DUP2 PUSH0 ADD SSTORE PUSH1 0x20 DUP3 ADD MLOAD DUP2 PUSH1 0x1 ADD SWAP1 DUP2 PUSH2 0x1C1 SWAP2 SWAP1 PUSH2 0x9AF JUMP JUMPDEST POP POP POP DUP2 DUP2 PUSH1 0x1 PUSH0 DUP7 DUP2 MSTORE PUSH1 0x20 ADD SWAP1 DUP2 MSTORE PUSH1 0x20 ADD PUSH0 KECCAK256 SWAP2 DUP3 PUSH2 0x1E4 SWAP3 SWAP2 SWAP1 PUSH2 0xA88 JUMP JUMPDEST POP POP POP POP JUMP JUMPDEST PUSH0 PUSH0 PUSH0 SWAP1 SLOAD SWAP1 PUSH2 0x100 EXP SWAP1 DIV PUSH20 0xFFFFFFFFFFFFFFFFFFFFFFFFFFFFFFFFFFFFFFFF AND SWAP1 POP SWAP1 JUMP JUMPDEST PUSH0 PUSH0 PUSH1 0x8 DUP4 DUP5 PUSH2 0x221 SWAP2 SWAP1 PUSH2 0xB82 JUMP JUMPDEST PUSH2 0x22B SWAP2 SWAP1 PUSH2 0xBBE JUMP JUMPDEST SWAP1 POP PUSH2 0x236 DUP2 PUSH2 0x38E JUMP JUMPDEST SWAP2 POP POP SWAP2 SWAP1 POP JUMP JUMPDEST PUSH1 0x2 DUP2 DUP2 SLOAD DUP2 LT PUSH2 0x24D JUMPI PUSH0 DUP1 REVERT JUMPDEST SWAP1 PUSH0 MSTORE PUSH1 0x20 PUSH0 KECCAK256 SWAP1 PUSH1 0x2 MUL ADD PUSH0 SWAP2 POP SWAP1 POP DUP1 PUSH0 ADD SLOAD SWAP1 DUP1 PUSH1 0x1 ADD DUP1 SLOAD PUSH2 0x272 SWAP1 PUSH2 0x7DF JUMP JUMPDEST DUP1 PUSH1 0x1F ADD PUSH1 0x20 DUP1 SWAP2 DIV MUL PUSH1 0x20 ADD PUSH1 0x40 MLOAD SWAP1 DUP2 ADD PUSH1 0x40 MSTORE DUP1 SWAP3 SWAP2 SWAP1 DUP2 DUP2 MSTORE PUSH1 0x20 ADD DUP3 DUP1 SLOAD PUSH2 0x29E SWAP1 PUSH2 0x7DF JUMP JUMPDEST DUP1 ISZERO PUSH2 0x2E9 JUMPI DUP1 PUSH1 0x1F LT PUSH2 0x2C0 JUMPI PUSH2 0x100 DUP1 DUP4 SLOAD DIV MUL DUP4 MSTORE SWAP2 PUSH1 0x20 ADD SWAP2 PUSH2 0x2E9 JUMP JUMPDEST DUP3 ADD SWAP2 SWAP1 PUSH0 MSTORE PUSH1 0x20 PUSH0 KECCAK256 SWAP1 JUMPDEST DUP2 SLOAD DUP2 MSTORE SWAP1 PUSH1 0x1 ADD SWAP1 PUSH1 0x20 ADD DUP1 DUP4 GT PUSH2 0x2CC JUMPI DUP3 SWAP1 SUB PUSH1 0x1F AND DUP3 ADD SWAP2 JUMPDEST POP POP POP POP POP SWAP1 POP DUP3 JUMP JUMPDEST PUSH1 0x1 PUSH1 0x20 MSTORE DUP1 PUSH0 MSTORE PUSH1 0x40 PUSH0 KECCAK256 PUSH0 SWAP2 POP SWAP1 POP DUP1 SLOAD PUSH2 0x30F SWAP1 PUSH2 0x7DF JUMP JUMPDEST DUP1 PUSH1 0x1F ADD PUSH1 0x20 DUP1 SWAP2 DIV MUL PUSH1 0x20 ADD PUSH1 0x40 MLOAD SWAP1 DUP2 ADD PUSH1 0x40 MSTORE DUP1 SWAP3 SWAP2 SWAP1 DUP2 DUP2 MSTORE PUSH1 0x20 ADD DUP3 DUP1 SLOAD PUSH2 0x33B SWAP1 PUSH2 0x7DF JUMP JUMPDEST DUP1 ISZERO PUSH2 0x386 JUMPI DUP1 PUSH1 0x1F LT PUSH2 0x35D JUMPI PUSH2 0x100 DUP1 DUP4 SLOAD DIV MUL DUP4 MSTORE SWAP2 PUSH1 0x20 ADD SWAP2 PUSH2 0x386 JUMP JUMPDEST DUP3 ADD SWAP2 SWAP1 PUSH0 MSTORE PUSH1 0x20 PUSH0 KECCAK256 SWAP1 JUMPDEST DUP2 SLOAD DUP2 MSTORE SWAP1 PUSH1 0x1 ADD SWAP1 PUSH1 0x20 ADD DUP1 DUP4 GT PUSH2 0x369 JUMPI DUP3 SWAP1 SUB PUSH1 0x1F AND DUP3 ADD SWAP2 JUMPDEST POP POP POP POP POP DUP2 JUMP JUMPDEST PUSH0 PUSH1 0x60 PUSH0 DUP4 PUSH1 0xFF AND SUB PUSH2 0x410 JUMPI PUSH1 0xD5 PUSH1 0xF8 SHL PUSH1 0x94 PUSH1 0xF8 SHL PUSH0 PUSH0 SWAP1 SLOAD SWAP1 PUSH2 0x100 EXP SWAP1 DIV PUSH20 0xFFFFFFFFFFFFFFFFFFFFFFFFFFFFFFFFFFFFFFFF AND PUSH32 0x2000000000000000000000000000000000000000000000000000000000000000 PUSH1 0x40 MLOAD PUSH1 0x20 ADD PUSH2 0x3FA SWAP5 SWAP4 SWAP3 SWAP2 SWAP1 PUSH2 0xC82 JUMP JUMPDEST PUSH1 0x40 MLOAD PUSH1 0x20 DUP2 DUP4 SUB SUB DUP2 MSTORE SWAP1 PUSH1 0x40 MSTORE SWAP1 POP PUSH2 0x4BF JUMP JUMPDEST PUSH1 0x7F DUP4 PUSH1 0xFF AND GT ISZERO DUP1 ISZERO PUSH2 0x426 JUMPI POP PUSH0 DUP4 PUSH1 0xFF AND GT JUMPDEST ISZERO PUSH2 0x483 JUMPI PUSH1 0xD5 PUSH1 0xF8 SHL PUSH1 0x94 PUSH1 0xF8 SHL PUSH0 PUSH0 SWAP1 SLOAD SWAP1 PUSH2 0x100 EXP SWAP1 DIV PUSH20 0xFFFFFFFFFFFFFFFFFFFFFFFFFFFFFFFFFFFFFFFF AND DUP6 PUSH1 0xF8 SHL PUSH1 0x40 MLOAD PUSH1 0x20 ADD PUSH2 0x46D SWAP5 SWAP4 SWAP3 SWAP2 SWAP1 PUSH2 0xC82 JUMP JUMPDEST PUSH1 0x40 MLOAD PUSH1 0x20 DUP2 DUP4 SUB SUB DUP2 MSTORE SWAP1 PUSH1 0x40 MSTORE SWAP1 POP PUSH2 0x4BE JUMP JUMPDEST PUSH1 0x40 MLOAD PUSH32 0x8C379A000000000000000000000000000000000000000000000000000000000 DUP2 MSTORE PUSH1 0x4 ADD PUSH2 0x4B5 SWAP1 PUSH2 0xD3F JUMP JUMPDEST PUSH1 0x40 MLOAD DUP1 SWAP2 SUB SWAP1 REVERT JUMPDEST JUMPDEST PUSH0 DUP2 DUP1 MLOAD SWAP1 PUSH1 0x20 ADD KECCAK256 SWAP1 POP PUSH0 DUP2 PUSH0 SHR SWAP1 POP DUP1 SWAP4 POP POP POP POP SWAP2 SWAP1 POP JUMP JUMPDEST PUSH0 PUSH0 REVERT JUMPDEST PUSH0 PUSH0 REVERT JUMPDEST PUSH0 DUP2 SWAP1 POP SWAP2 SWAP1 POP JUMP JUMPDEST PUSH2 0x4F5 DUP2 PUSH2 0x4E3 JUMP JUMPDEST DUP2 EQ PUSH2 0x4FF JUMPI PUSH0 PUSH0 REVERT JUMPDEST POP JUMP JUMPDEST PUSH0 DUP2 CALLDATALOAD SWAP1 POP PUSH2 0x510 DUP2 PUSH2 0x4EC JUMP JUMPDEST SWAP3 SWAP2 POP POP JUMP JUMPDEST PUSH0 PUSH0 REVERT JUMPDEST PUSH0 PUSH0 REVERT JUMPDEST PUSH0 PUSH0 REVERT JUMPDEST PUSH0 PUSH0 DUP4 PUSH1 0x1F DUP5 ADD SLT PUSH2 0x537 JUMPI PUSH2 0x536 PUSH2 0x516 JUMP JUMPDEST JUMPDEST DUP3 CALLDATALOAD SWAP1 POP PUSH8 0xFFFFFFFFFFFFFFFF DUP2 GT ISZERO PUSH2 0x554 JUMPI PUSH2 0x553 PUSH2 0x51A JUMP JUMPDEST JUMPDEST PUSH1 0x20 DUP4 ADD SWAP2 POP DUP4 PUSH1 0x1 DUP3 MUL DUP4 ADD GT ISZERO PUSH2 0x570 JUMPI PUSH2 0x56F PUSH2 0x51E JUMP JUMPDEST JUMPDEST SWAP3 POP SWAP3 SWAP1 POP JUMP JUMPDEST PUSH0 PUSH0 PUSH0 PUSH1 0x40 DUP5 DUP7 SUB SLT ISZERO PUSH2 0x58E JUMPI PUSH2 0x58D PUSH2 0x4DB JUMP JUMPDEST JUMPDEST PUSH0 PUSH2 0x59B DUP7 DUP3 DUP8 ADD PUSH2 0x502 JUMP JUMPDEST SWAP4 POP POP PUSH1 0x20 DUP5 ADD CALLDATALOAD PUSH8 0xFFFFFFFFFFFFFFFF DUP2 GT ISZERO PUSH2 0x5BC JUMPI PUSH2 0x5BB PUSH2 0x4DF JUMP JUMPDEST JUMPDEST PUSH2 0x5C8 DUP7 DUP3 DUP8 ADD PUSH2 0x522 JUMP JUMPDEST SWAP3 POP SWAP3 POP POP SWAP3 POP SWAP3 POP SWAP3 JUMP JUMPDEST PUSH0 PUSH20 0xFFFFFFFFFFFFFFFFFFFFFFFFFFFFFFFFFFFFFFFF DUP3 AND SWAP1 POP SWAP2 SWAP1 POP JUMP JUMPDEST PUSH0 PUSH2 0x5FD DUP3 PUSH2 0x5D4 JUMP JUMPDEST SWAP1 POP SWAP2 SWAP1 POP JUMP JUMPDEST PUSH2 0x60D DUP2 PUSH2 0x5F3 JUMP JUMPDEST DUP3 MSTORE POP POP JUMP JUMPDEST PUSH0 PUSH1 0x20 DUP3 ADD SWAP1 POP PUSH2 0x626 PUSH0 DUP4 ADD DUP5 PUSH2 0x604 JUMP JUMPDEST SWAP3 SWAP2 POP POP JUMP JUMPDEST PUSH0 PUSH1 0xFF DUP3 AND SWAP1 POP SWAP2 SWAP1 POP JUMP JUMPDEST PUSH2 0x641 DUP2 PUSH2 0x62C JUMP JUMPDEST DUP2 EQ PUSH2 0x64B JUMPI PUSH0 PUSH0 REVERT JUMPDEST POP JUMP JUMPDEST PUSH0 DUP2 CALLDATALOAD SWAP1 POP PUSH2 0x65C DUP2 PUSH2 0x638 JUMP JUMPDEST SWAP3 SWAP2 POP POP JUMP JUMPDEST PUSH0 PUSH1 0x20 DUP3 DUP5 SUB SLT ISZERO PUSH2 0x677 JUMPI PUSH2 0x676 PUSH2 0x4DB JUMP JUMPDEST JUMPDEST PUSH0 PUSH2 0x684 DUP5 DUP3 DUP6 ADD PUSH2 0x64E JUMP JUMPDEST SWAP2 POP POP SWAP3 SWAP2 POP POP JUMP JUMPDEST PUSH0 PUSH1 0x20 DUP3 DUP5 SUB SLT ISZERO PUSH2 0x6A2 JUMPI PUSH2 0x6A1 PUSH2 0x4DB JUMP JUMPDEST JUMPDEST PUSH0 PUSH2 0x6AF DUP5 DUP3 DUP6 ADD PUSH2 0x502 JUMP JUMPDEST SWAP2 POP POP SWAP3 SWAP2 POP POP JUMP JUMPDEST PUSH2 0x6C1 DUP2 PUSH2 0x4E3 JUMP JUMPDEST DUP3 MSTORE POP POP JUMP JUMPDEST PUSH0 DUP2 MLOAD SWAP1 POP SWAP2 SWAP1 POP JUMP JUMPDEST PUSH0 DUP3 DUP3 MSTORE PUSH1 0x20 DUP3 ADD SWAP1 POP SWAP3 SWAP2 POP POP JUMP JUMPDEST DUP3 DUP2 DUP4 MCOPY PUSH0 DUP4 DUP4 ADD MSTORE POP POP POP JUMP JUMPDEST PUSH0 PUSH1 0x1F NOT PUSH1 0x1F DUP4 ADD AND SWAP1 POP SWAP2 SWAP1 POP JUMP JUMPDEST PUSH0 PUSH2 0x709 DUP3 PUSH2 0x6C7 JUMP JUMPDEST PUSH2 0x713 DUP2 DUP6 PUSH2 0x6D1 JUMP JUMPDEST SWAP4 POP PUSH2 0x723 DUP2 DUP6 PUSH1 0x20 DUP7 ADD PUSH2 0x6E1 JUMP JUMPDEST PUSH2 0x72C DUP2 PUSH2 0x6EF JUMP JUMPDEST DUP5 ADD SWAP2 POP POP SWAP3 SWAP2 POP POP JUMP JUMPDEST PUSH0 PUSH1 0x40 DUP3 ADD SWAP1 POP PUSH2 0x74A PUSH0 DUP4 ADD DUP6 PUSH2 0x6B8 JUMP JUMPDEST DUP2 DUP2 SUB PUSH1 0x20 DUP4 ADD MSTORE PUSH2 0x75C DUP2 DUP5 PUSH2 0x6FF JUMP JUMPDEST SWAP1 POP SWAP4 SWAP3 POP POP POP JUMP JUMPDEST PUSH0 PUSH1 0x20 DUP3 ADD SWAP1 POP DUP2 DUP2 SUB PUSH0 DUP4 ADD MSTORE PUSH2 0x77D DUP2 DUP5 PUSH2 0x6FF JUMP JUMPDEST SWAP1 POP SWAP3 SWAP2 POP POP JUMP JUMPDEST PUSH32 0x4E487B7100000000000000000000000000000000000000000000000000000000 PUSH0 MSTORE PUSH1 0x41 PUSH1 0x4 MSTORE PUSH1 0x24 PUSH0 REVERT JUMPDEST PUSH32 0x4E487B7100000000000000000000000000000000000000000000000000000000 PUSH0 MSTORE PUSH1 0x22 PUSH1 0x4 MSTORE PUSH1 0x24 PUSH0 REVERT JUMPDEST PUSH0 PUSH1 0x2 DUP3 DIV SWAP1 POP PUSH1 0x1 DUP3 AND DUP1 PUSH2 0x7F6 JUMPI PUSH1 0x7F DUP3 AND SWAP2 POP JUMPDEST PUSH1 0x20 DUP3 LT DUP2 SUB PUSH2 0x809 JUMPI PUSH2 0x808 PUSH2 0x7B2 JUMP JUMPDEST JUMPDEST POP SWAP2 SWAP1 POP JUMP JUMPDEST PUSH0 DUP2 SWAP1 POP DUP2 PUSH0 MSTORE PUSH1 0x20 PUSH0 KECCAK256 SWAP1 POP SWAP2 SWAP1 POP JUMP JUMPDEST PUSH0 PUSH1 0x20 PUSH1 0x1F DUP4 ADD DIV SWAP1 POP SWAP2 SWAP1 POP JUMP JUMPDEST PUSH0 DUP3 DUP3 SHL SWAP1 POP SWAP3 SWAP2 POP POP JUMP JUMPDEST PUSH0 PUSH1 0x8 DUP4 MUL PUSH2 0x86B PUSH32 0xFFFFFFFFFFFFFFFFFFFFFFFFFFFFFFFFFFFFFFFFFFFFFFFFFFFFFFFFFFFFFFFF DUP3 PUSH2 0x830 JUMP JUMPDEST PUSH2 0x875 DUP7 DUP4 PUSH2 0x830 JUMP JUMPDEST SWAP6 POP DUP1 NOT DUP5 AND SWAP4 POP DUP1 DUP7 AND DUP5 OR SWAP3 POP POP POP SWAP4 SWAP3 POP POP POP JUMP JUMPDEST PUSH0 DUP2 SWAP1 POP SWAP2 SWAP1 POP JUMP JUMPDEST PUSH0 PUSH2 0x8B0 PUSH2 0x8AB PUSH2 0x8A6 DUP5 PUSH2 0x4E3 JUMP JUMPDEST PUSH2 0x88D JUMP JUMPDEST PUSH2 0x4E3 JUMP JUMPDEST SWAP1 POP SWAP2 SWAP1 POP JUMP JUMPDEST PUSH0 DUP2 SWAP1 POP SWAP2 SWAP1 POP JUMP JUMPDEST PUSH2 0x8C9 DUP4 PUSH2 0x896 JUMP JUMPDEST PUSH2 0x8DD PUSH2 0x8D5 DUP3 PUSH2 0x8B7 JUMP JUMPDEST DUP5 DUP5 SLOAD PUSH2 0x83C JUMP JUMPDEST DUP3 SSTORE POP POP POP POP JUMP JUMPDEST PUSH0 PUSH0 SWAP1 POP SWAP1 JUMP JUMPDEST PUSH2 0x8F4 PUSH2 0x8E5 JUMP JUMPDEST PUSH2 0x8FF DUP2 DUP5 DUP5 PUSH2 0x8C0 JUMP JUMPDEST POP POP POP JUMP JUMPDEST JUMPDEST DUP2 DUP2 LT ISZERO PUSH2 0x922 JUMPI PUSH2 0x917 PUSH0 DUP3 PUSH2 0x8EC JUMP JUMPDEST PUSH1 0x1 DUP2 ADD SWAP1 POP PUSH2 0x905 JUMP JUMPDEST POP POP JUMP JUMPDEST PUSH1 0x1F DUP3 GT ISZERO PUSH2 0x967 JUMPI PUSH2 0x938 DUP2 PUSH2 0x80F JUMP JUMPDEST PUSH2 0x941 DUP5 PUSH2 0x821 JUMP JUMPDEST DUP2 ADD PUSH1 0x20 DUP6 LT ISZERO PUSH2 0x950 JUMPI DUP2 SWAP1 POP JUMPDEST PUSH2 0x964 PUSH2 0x95C DUP6 PUSH2 0x821 JUMP JUMPDEST DUP4 ADD DUP3 PUSH2 0x904 JUMP JUMPDEST POP POP JUMPDEST POP POP POP JUMP JUMPDEST PUSH0 DUP3 DUP3 SHR SWAP1 POP SWAP3 SWAP2 POP POP JUMP JUMPDEST PUSH0 PUSH2 0x987 PUSH0 NOT DUP5 PUSH1 0x8 MUL PUSH2 0x96C JUMP JUMPDEST NOT DUP1 DUP4 AND SWAP2 POP POP SWAP3 SWAP2 POP POP JUMP JUMPDEST PUSH0 PUSH2 0x99F DUP4 DUP4 PUSH2 0x978 JUMP JUMPDEST SWAP2 POP DUP3 PUSH1 0x2 MUL DUP3 OR SWAP1 POP SWAP3 SWAP2 POP POP JUMP JUMPDEST PUSH2 0x9B8 DUP3 PUSH2 0x6C7 JUMP JUMPDEST PUSH8 0xFFFFFFFFFFFFFFFF DUP2 GT ISZERO PUSH2 0x9D1 JUMPI PUSH2 0x9D0 PUSH2 0x785 JUMP JUMPDEST JUMPDEST PUSH2 0x9DB DUP3 SLOAD PUSH2 0x7DF JUMP JUMPDEST PUSH2 0x9E6 DUP3 DUP3 DUP6 PUSH2 0x926 JUMP JUMPDEST PUSH0 PUSH1 0x20 SWAP1 POP PUSH1 0x1F DUP4 GT PUSH1 0x1 DUP2 EQ PUSH2 0xA17 JUMPI PUSH0 DUP5 ISZERO PUSH2 0xA05 JUMPI DUP3 DUP8 ADD MLOAD SWAP1 POP JUMPDEST PUSH2 0xA0F DUP6 DUP3 PUSH2 0x994 JUMP JUMPDEST DUP7 SSTORE POP PUSH2 0xA76 JUMP JUMPDEST PUSH1 0x1F NOT DUP5 AND PUSH2 0xA25 DUP7 PUSH2 0x80F JUMP JUMPDEST PUSH0 JUMPDEST DUP3 DUP2 LT ISZERO PUSH2 0xA4C JUMPI DUP5 DUP10 ADD MLOAD DUP3 SSTORE PUSH1 0x1 DUP3 ADD SWAP2 POP PUSH1 0x20 DUP6 ADD SWAP5 POP PUSH1 0x20 DUP2 ADD SWAP1 POP PUSH2 0xA27 JUMP JUMPDEST DUP7 DUP4 LT ISZERO PUSH2 0xA69 JUMPI DUP5 DUP10 ADD MLOAD PUSH2 0xA65 PUSH1 0x1F DUP10 AND DUP3 PUSH2 0x978 JUMP JUMPDEST DUP4 SSTORE POP JUMPDEST PUSH1 0x1 PUSH1 0x2 DUP9 MUL ADD DUP9 SSTORE POP POP POP JUMPDEST POP POP POP POP POP POP JUMP JUMPDEST PUSH0 DUP3 SWAP1 POP SWAP3 SWAP2 POP POP JUMP JUMPDEST PUSH2 0xA92 DUP4 DUP4 PUSH2 0xA7E JUMP JUMPDEST PUSH8 0xFFFFFFFFFFFFFFFF DUP2 GT ISZERO PUSH2 0xAAB JUMPI PUSH2 0xAAA PUSH2 0x785 JUMP JUMPDEST JUMPDEST PUSH2 0xAB5 DUP3 SLOAD PUSH2 0x7DF JUMP JUMPDEST PUSH2 0xAC0 DUP3 DUP3 DUP6 PUSH2 0x926 JUMP JUMPDEST PUSH0 PUSH1 0x1F DUP4 GT PUSH1 0x1 DUP2 EQ PUSH2 0xAED JUMPI PUSH0 DUP5 ISZERO PUSH2 0xADB JUMPI DUP3 DUP8 ADD CALLDATALOAD SWAP1 POP JUMPDEST PUSH2 0xAE5 DUP6 DUP3 PUSH2 0x994 JUMP JUMPDEST DUP7 SSTORE POP PUSH2 0xB4C JUMP JUMPDEST PUSH1 0x1F NOT DUP5 AND PUSH2 0xAFB DUP7 PUSH2 0x80F JUMP JUMPDEST PUSH0 JUMPDEST DUP3 DUP2 LT ISZERO PUSH2 0xB22 JUMPI DUP5 DUP10 ADD CALLDATALOAD DUP3 SSTORE PUSH1 0x1 DUP3 ADD SWAP2 POP PUSH1 0x20 DUP6 ADD SWAP5 POP PUSH1 0x20 DUP2 ADD SWAP1 POP PUSH2 0xAFD JUMP JUMPDEST DUP7 DUP4 LT ISZERO PUSH2 0xB3F JUMPI DUP5 DUP10 ADD CALLDATALOAD PUSH2 0xB3B PUSH1 0x1F DUP10 AND DUP3 PUSH2 0x978 JUMP JUMPDEST DUP4 SSTORE POP JUMPDEST PUSH1 0x1 PUSH1 0x2 DUP9 MUL ADD DUP9 SSTORE POP POP POP JUMPDEST POP POP POP POP POP POP POP JUMP JUMPDEST PUSH32 0x4E487B7100000000000000000000000000000000000000000000000000000000 PUSH0 MSTORE PUSH1 0x11 PUSH1 0x4 MSTORE PUSH1 0x24 PUSH0 REVERT JUMPDEST PUSH0 PUSH2 0xB8C DUP3 PUSH2 0x62C JUMP JUMPDEST SWAP2 POP PUSH2 0xB97 DUP4 PUSH2 0x62C JUMP JUMPDEST SWAP3 POP DUP3 DUP3 MUL PUSH2 0xBA5 DUP2 PUSH2 0x62C JUMP JUMPDEST SWAP2 POP DUP1 DUP3 EQ PUSH2 0xBB7 JUMPI PUSH2 0xBB6 PUSH2 0xB55 JUMP JUMPDEST JUMPDEST POP SWAP3 SWAP2 POP POP JUMP JUMPDEST PUSH0 PUSH2 0xBC8 DUP3 PUSH2 0x62C JUMP JUMPDEST SWAP2 POP PUSH2 0xBD3 DUP4 PUSH2 0x62C JUMP JUMPDEST SWAP3 POP DUP3 DUP3 ADD SWAP1 POP PUSH1 0xFF DUP2 GT ISZERO PUSH2 0xBEC JUMPI PUSH2 0xBEB PUSH2 0xB55 JUMP JUMPDEST JUMPDEST SWAP3 SWAP2 POP POP JUMP JUMPDEST PUSH0 PUSH32 0xFF00000000000000000000000000000000000000000000000000000000000000 DUP3 AND SWAP1 POP SWAP2 SWAP1 POP JUMP JUMPDEST PUSH0 DUP2 SWAP1 POP SWAP2 SWAP1 POP JUMP JUMPDEST PUSH2 0xC37 PUSH2 0xC32 DUP3 PUSH2 0xBF2 JUMP JUMPDEST PUSH2 0xC1D JUMP JUMPDEST DUP3 MSTORE POP POP JUMP JUMPDEST PUSH0 DUP2 PUSH1 0x60 SHL SWAP1 POP SWAP2 SWAP1 POP JUMP JUMPDEST PUSH0 PUSH2 0xC53 DUP3 PUSH2 0xC3D JUMP JUMPDEST SWAP1 POP SWAP2 SWAP1 POP JUMP JUMPDEST PUSH0 PUSH2 0xC64 DUP3 PUSH2 0xC49 JUMP JUMPDEST SWAP1 POP SWAP2 SWAP1 POP JUMP JUMPDEST PUSH2 0xC7C PUSH2 0xC77 DUP3 PUSH2 0x5F3 JUMP JUMPDEST PUSH2 0xC5A JUMP JUMPDEST DUP3 MSTORE POP POP JUMP JUMPDEST PUSH0 PUSH2 0xC8D DUP3 DUP8 PUSH2 0xC26 JUMP JUMPDEST PUSH1 0x1 DUP3 ADD SWAP2 POP PUSH2 0xC9D DUP3 DUP7 PUSH2 0xC26 JUMP JUMPDEST PUSH1 0x1 DUP3 ADD SWAP2 POP PUSH2 0xCAD DUP3 DUP6 PUSH2 0xC6B JUMP JUMPDEST PUSH1 0x14 DUP3 ADD SWAP2 POP PUSH2 0xCBD DUP3 DUP5 PUSH2 0xC26 JUMP JUMPDEST PUSH1 0x1 DUP3 ADD SWAP2 POP DUP2 SWAP1 POP SWAP6 SWAP5 POP POP POP POP POP JUMP JUMPDEST PUSH32 0x546865206E6F6E636520697320746F206869676820746F20636F756E74206974 PUSH0 DUP3 ADD MSTORE PUSH32 0x206D616E75616C6C790A00000000000000000000000000000000000000000000 PUSH1 0x20 DUP3 ADD MSTORE POP JUMP JUMPDEST PUSH0 PUSH2 0xD29 PUSH1 0x2A DUP4 PUSH2 0x6D1 JUMP JUMPDEST SWAP2 POP PUSH2 0xD34 DUP3 PUSH2 0xCCF JUMP JUMPDEST PUSH1 0x40 DUP3 ADD SWAP1 POP SWAP2 SWAP1 POP JUMP JUMPDEST PUSH0 PUSH1 0x20 DUP3 ADD SWAP1 POP DUP2 DUP2 SUB PUSH0 DUP4 ADD MSTORE PUSH2 0xD56 DUP2 PUSH2 0xD1D JUMP JUMPDEST SWAP1 POP SWAP2 SWAP1 POP JUMP INVALID LOG2 PUSH5 0x6970667358 0x22 SLT KECCAK256 JUMPI 0xE2 PUSH14 0xF3A6150E7A6AFD5018FC4B395CC3 DUP7 0x4D 0xDB 0xB2 XOR BASEFEE BLOBHASH 0x2A PUSH5 0xCBCB59B97B DUP3 PUSH5 0x736F6C6343 STOP ADDMOD 0x1E STOP CALLER "
				},
				"gasEstimates": {
					"creation": {
						"codeDepositCost": "695000",
						"executionCost": "49307",
						"totalCost": "744307"
					},
					"external": {
						"addInfo(uint256,string)": "infinite",
						"contractAddress(uint8)": "infinite",
						"dayToMonth(uint256)": "infinite",
						"listOfInfo(uint256)": "infinite",
						"retrieve()": "2514"
					}
				},
				"methodIdentifiers": {
					"addInfo(uint256,string)": "17a8f8c6",
					"contractAddress(uint8)": "3eae68bb",
					"dayToMonth(uint256)": "d5d0a74f",
					"listOfInfo(uint256)": "8265789f",
					"retrieve()": "2e64cec1"
				}
			},
			"storageLayout": {
				"storage": [
					{
						"astId": 36,
						"contract": "contracts/complicateNonce.sol:complicateNonce",
						"label": "senderAddress",
						"offset": 0,
						"slot": "0",
						"type": "t_address"
					},
					{
						"astId": 39,
						"contract": "contracts/complicateNonce.sol:complicateNonce",
						"label": "myKey",
						"offset": 20,
						"slot": "0",
						"type": "t_bytes10"
					},
					{
						"astId": 48,
						"contract": "contracts/complicateNonce.sol:complicateNonce",
						"label": "dayToMonth",
						"offset": 0,
						"slot": "1",
						"type": "t_mapping(t_uint256,t_string_storage)"
					},
					{
						"astId": 52,
						"contract": "contracts/complicateNonce.sol:complicateNonce",
						"label": "listOfInfo",
						"offset": 0,
						"slot": "2",
						"type": "t_array(t_struct(trxInfo)44_storage)dyn_storage"
					}
				],
				"types": {
					"t_address": {
						"encoding": "inplace",
						"label": "address",
						"numberOfBytes": "20"
					},
					"t_array(t_struct(trxInfo)44_storage)dyn_storage": {
						"base": "t_struct(trxInfo)44_storage",
						"encoding": "dynamic_array",
						"label": "struct createAddress.trxInfo[]",
						"numberOfBytes": "32"
					},
					"t_bytes10": {
						"encoding": "inplace",
						"label": "bytes10",
						"numberOfBytes": "10"
					},
					"t_mapping(t_uint256,t_string_storage)": {
						"encoding": "mapping",
						"key": "t_uint256",
						"label": "mapping(uint256 => string)",
						"numberOfBytes": "32",
						"value": "t_string_storage"
					},
					"t_string_storage": {
						"encoding": "bytes",
						"label": "string",
						"numberOfBytes": "32"
					},
					"t_struct(trxInfo)44_storage": {
						"encoding": "inplace",
						"label": "struct createAddress.trxInfo",
						"members": [
							{
								"astId": 41,
								"contract": "contracts/complicateNonce.sol:complicateNonce",
								"label": "day",
								"offset": 0,
								"slot": "0",
								"type": "t_uint256"
							},
							{
								"astId": 43,
								"contract": "contracts/complicateNonce.sol:complicateNonce",
								"label": "month",
								"offset": 0,
								"slot": "1",
								"type": "t_string_storage"
							}
						],
						"numberOfBytes": "64"
					},
					"t_uint256": {
						"encoding": "inplace",
						"label": "uint256",
						"numberOfBytes": "32"
					}
				}
			},
			"userdoc": {
				"kind": "user",
				"methods": {},
				"version": 1
			}
		}
	}
}