{
	"contracts/simpleStorage.sol": {
		"SimpleStorage": {
			"abi": [
				{
					"inputs": [],
					"name": "getBytes",
					"outputs": [
						{
							"internalType": "bytes",
							"name": "",
							"type": "bytes"
						},
						{
							"internalType": "bytes8",
							"name": "",
							"type": "bytes8"
						},
						{
							"internalType": "bytes32",
							"name": "",
							"type": "bytes32"
						},
						{
							"internalType": "string",
							"name": "",
							"type": "string"
						}
					],
					"stateMutability": "pure",
					"type": "function"
				},
				{
					"inputs": [],
					"name": "lala",
					"outputs": [
						{
							"internalType": "bytes8",
							"name": "",
							"type": "bytes8"
						}
					],
					"stateMutability": "view",
					"type": "function"
				},
				{
					"inputs": [],
					"name": "nbr",
					"outputs": [
						{
							"internalType": "uint256",
							"name": "",
							"type": "uint256"
						}
					],
					"stateMutability": "view",
					"type": "function"
				},
				{
					"inputs": [],
					"name": "newStr",
					"outputs": [
						{
							"internalType": "string",
							"name": "",
							"type": "string"
						}
					],
					"stateMutability": "view",
					"type": "function"
				},
				{
					"inputs": [],
					"name": "retrieve",
					"outputs": [
						{
							"internalType": "uint256",
							"name": "",
							"type": "uint256"
						}
					],
					"stateMutability": "view",
					"type": "function"
				},
				{
					"inputs": [],
					"name": "something",
					"outputs": [
						{
							"internalType": "bytes8",
							"name": "",
							"type": "bytes8"
						}
					],
					"stateMutability": "view",
					"type": "function"
				},
				{
					"inputs": [
						{
							"internalType": "uint256",
							"name": "_newNbr",
							"type": "uint256"
						}
					],
					"name": "updateNbr",
					"outputs": [],
					"stateMutability": "nonpayable",
					"type": "function"
				}
			],
			"devdoc": {
				"kind": "dev",
				"methods": {},
				"version": 1
			},
			"evm": {
				"assembly": "    /* \"contracts/simpleStorage.sol\":78:1235  contract SimpleStorage {... */\n  mstore(0x40, 0x80)\n    /* \"contracts/simpleStorage.sol\":126:168  0x0790248b39886759cA52dfCf44801E5AC0414c4f */\n  0x0790248b39886759ca52dfcf44801e5ac0414c4f\n    /* \"contracts/simpleStorage.sol\":107:168  address metaMask = 0x0790248b39886759cA52dfCf44801E5AC0414c4f */\n  0x00\n  exp(0x0100, 0x00)\n  dup2\n  sload\n  dup2\n  0xffffffffffffffffffffffffffffffffffffffff\n  mul\n  not\n  and\n  swap1\n  dup4\n  0xffffffffffffffffffffffffffffffffffffffff\n  and\n  mul\n  or\n  swap1\n  sstore\n  pop\n    /* \"contracts/simpleStorage.sol\":198:233  string  public newStr = \"im string\" */\n  mload(0x40)\n  dup1\n  0x40\n  add\n  0x40\n  mstore\n  dup1\n  0x09\n  dup2\n  mstore\n  0x20\n  add\n  0x696d20737472696e670000000000000000000000000000000000000000000000\n  dup2\n  mstore\n  pop\n  0x02\n  swap1\n  dup2\n  tag_1\n  swap2\n  swap1\n  tag_2\n  jump\t// in\ntag_1:\n  pop\n    /* \"contracts/simpleStorage.sol\":239:269  bytes8 public lala = \"working\" */\n  0x776f726b696e6700000000000000000000000000000000000000000000000000\n  0x03\n  exp(0x0100, 0x00)\n  dup2\n  sload\n  dup2\n  0xffffffffffffffff\n  mul\n  not\n  and\n  swap1\n  dup4\n  0xc0\n  shr\n  mul\n  or\n  swap1\n  sstore\n  pop\n    /* \"contracts/simpleStorage.sol\":78:1235  contract SimpleStorage {... */\n  callvalue\n  dup1\n  iszero\n  tag_3\n  jumpi\n  revert(0x00, 0x00)\ntag_3:\n  pop\n  jump(tag_4)\n    /* \"#utility.yul\":7:106   */\ntag_5:\n    /* \"#utility.yul\":59:65   */\n  0x00\n    /* \"#utility.yul\":93:98   */\n  dup2\n    /* \"#utility.yul\":87:99   */\n  mload\n    /* \"#utility.yul\":77:99   */\n  swap1\n  pop\n    /* \"#utility.yul\":7:106   */\n  swap2\n  swap1\n  pop\n  jump\t// out\n    /* \"#utility.yul\":112:292   */\ntag_6:\n    /* \"#utility.yul\":160:237   */\n  0x4e487b7100000000000000000000000000000000000000000000000000000000\n    /* \"#utility.yul\":157:158   */\n  0x00\n    /* \"#utility.yul\":150:238   */\n  mstore\n    /* \"#utility.yul\":257:261   */\n  0x41\n    /* \"#utility.yul\":254:255   */\n  0x04\n    /* \"#utility.yul\":247:262   */\n  mstore\n    /* \"#utility.yul\":281:285   */\n  0x24\n    /* \"#utility.yul\":278:279   */\n  0x00\n    /* \"#utility.yul\":271:286   */\n  revert\n    /* \"#utility.yul\":298:478   */\ntag_7:\n    /* \"#utility.yul\":346:423   */\n  0x4e487b7100000000000000000000000000000000000000000000000000000000\n    /* \"#utility.yul\":343:344   */\n  0x00\n    /* \"#utility.yul\":336:424   */\n  mstore\n    /* \"#utility.yul\":443:447   */\n  0x22\n    /* \"#utility.yul\":440:441   */\n  0x04\n    /* \"#utility.yul\":433:448   */\n  mstore\n    /* \"#utility.yul\":467:471   */\n  0x24\n    /* \"#utility.yul\":464:465   */\n  0x00\n    /* \"#utility.yul\":457:472   */\n  revert\n    /* \"#utility.yul\":484:804   */\ntag_8:\n    /* \"#utility.yul\":528:534   */\n  0x00\n    /* \"#utility.yul\":565:566   */\n  0x02\n    /* \"#utility.yul\":559:563   */\n  dup3\n    /* \"#utility.yul\":555:567   */\n  div\n    /* \"#utility.yul\":545:567   */\n  swap1\n  pop\n    /* \"#utility.yul\":612:613   */\n  0x01\n    /* \"#utility.yul\":606:610   */\n  dup3\n    /* \"#utility.yul\":602:614   */\n  and\n    /* \"#utility.yul\":633:651   */\n  dup1\n    /* \"#utility.yul\":623:704   */\n  tag_30\n  jumpi\n    /* \"#utility.yul\":689:693   */\n  0x7f\n    /* \"#utility.yul\":681:687   */\n  dup3\n    /* \"#utility.yul\":677:694   */\n  and\n    /* \"#utility.yul\":667:694   */\n  swap2\n  pop\n    /* \"#utility.yul\":623:704   */\ntag_30:\n    /* \"#utility.yul\":751:753   */\n  0x20\n    /* \"#utility.yul\":743:749   */\n  dup3\n    /* \"#utility.yul\":740:754   */\n  lt\n    /* \"#utility.yul\":720:738   */\n  dup2\n    /* \"#utility.yul\":717:755   */\n  sub\n    /* \"#utility.yul\":714:798   */\n  tag_31\n  jumpi\n    /* \"#utility.yul\":770:788   */\n  tag_32\n  tag_7\n  jump\t// in\ntag_32:\n    /* \"#utility.yul\":714:798   */\ntag_31:\n    /* \"#utility.yul\":535:804   */\n  pop\n    /* \"#utility.yul\":484:804   */\n  swap2\n  swap1\n  pop\n  jump\t// out\n    /* \"#utility.yul\":810:951   */\ntag_9:\n    /* \"#utility.yul\":859:863   */\n  0x00\n    /* \"#utility.yul\":882:885   */\n  dup2\n    /* \"#utility.yul\":874:885   */\n  swap1\n  pop\n    /* \"#utility.yul\":905:908   */\n  dup2\n    /* \"#utility.yul\":902:903   */\n  0x00\n    /* \"#utility.yul\":895:909   */\n  mstore\n    /* \"#utility.yul\":939:943   */\n  0x20\n    /* \"#utility.yul\":936:937   */\n  0x00\n    /* \"#utility.yul\":926:944   */\n  keccak256\n    /* \"#utility.yul\":918:944   */\n  swap1\n  pop\n    /* \"#utility.yul\":810:951   */\n  swap2\n  swap1\n  pop\n  jump\t// out\n    /* \"#utility.yul\":957:1050   */\ntag_10:\n    /* \"#utility.yul\":994:1000   */\n  0x00\n    /* \"#utility.yul\":1041:1043   */\n  0x20\n    /* \"#utility.yul\":1036:1038   */\n  0x1f\n    /* \"#utility.yul\":1029:1034   */\n  dup4\n    /* \"#utility.yul\":1025:1039   */\n  add\n    /* \"#utility.yul\":1021:1044   */\n  div\n    /* \"#utility.yul\":1011:1044   */\n  swap1\n  pop\n    /* \"#utility.yul\":957:1050   */\n  swap2\n  swap1\n  pop\n  jump\t// out\n    /* \"#utility.yul\":1056:1163   */\ntag_11:\n    /* \"#utility.yul\":1100:1108   */\n  0x00\n    /* \"#utility.yul\":1150:1155   */\n  dup3\n    /* \"#utility.yul\":1144:1148   */\n  dup3\n    /* \"#utility.yul\":1140:1156   */\n  shl\n    /* \"#utility.yul\":1119:1156   */\n  swap1\n  pop\n    /* \"#utility.yul\":1056:1163   */\n  swap3\n  swap2\n  pop\n  pop\n  jump\t// out\n    /* \"#utility.yul\":1169:1562   */\ntag_12:\n    /* \"#utility.yul\":1238:1244   */\n  0x00\n    /* \"#utility.yul\":1288:1289   */\n  0x08\n    /* \"#utility.yul\":1276:1286   */\n  dup4\n    /* \"#utility.yul\":1272:1290   */\n  mul\n    /* \"#utility.yul\":1311:1408   */\n  tag_37\n    /* \"#utility.yul\":1341:1407   */\n  0xffffffffffffffffffffffffffffffffffffffffffffffffffffffffffffffff\n    /* \"#utility.yul\":1330:1339   */\n  dup3\n    /* \"#utility.yul\":1311:1408   */\n  tag_11\n  jump\t// in\ntag_37:\n    /* \"#utility.yul\":1429:1468   */\n  tag_38\n    /* \"#utility.yul\":1459:1467   */\n  dup7\n    /* \"#utility.yul\":1448:1457   */\n  dup4\n    /* \"#utility.yul\":1429:1468   */\n  tag_11\n  jump\t// in\ntag_38:\n    /* \"#utility.yul\":1417:1468   */\n  swap6\n  pop\n    /* \"#utility.yul\":1501:1505   */\n  dup1\n    /* \"#utility.yul\":1497:1506   */\n  not\n    /* \"#utility.yul\":1490:1495   */\n  dup5\n    /* \"#utility.yul\":1486:1507   */\n  and\n    /* \"#utility.yul\":1477:1507   */\n  swap4\n  pop\n    /* \"#utility.yul\":1550:1554   */\n  dup1\n    /* \"#utility.yul\":1540:1548   */\n  dup7\n    /* \"#utility.yul\":1536:1555   */\n  and\n    /* \"#utility.yul\":1529:1534   */\n  dup5\n    /* \"#utility.yul\":1526:1556   */\n  or\n    /* \"#utility.yul\":1516:1556   */\n  swap3\n  pop\n    /* \"#utility.yul\":1245:1562   */\n  pop\n  pop\n    /* \"#utility.yul\":1169:1562   */\n  swap4\n  swap3\n  pop\n  pop\n  pop\n  jump\t// out\n    /* \"#utility.yul\":1568:1645   */\ntag_13:\n    /* \"#utility.yul\":1605:1612   */\n  0x00\n    /* \"#utility.yul\":1634:1639   */\n  dup2\n    /* \"#utility.yul\":1623:1639   */\n  swap1\n  pop\n    /* \"#utility.yul\":1568:1645   */\n  swap2\n  swap1\n  pop\n  jump\t// out\n    /* \"#utility.yul\":1651:1711   */\ntag_14:\n    /* \"#utility.yul\":1679:1682   */\n  0x00\n    /* \"#utility.yul\":1700:1705   */\n  dup2\n    /* \"#utility.yul\":1693:1705   */\n  swap1\n  pop\n    /* \"#utility.yul\":1651:1711   */\n  swap2\n  swap1\n  pop\n  jump\t// out\n    /* \"#utility.yul\":1717:1859   */\ntag_15:\n    /* \"#utility.yul\":1767:1776   */\n  0x00\n    /* \"#utility.yul\":1800:1853   */\n  tag_42\n    /* \"#utility.yul\":1818:1852   */\n  tag_43\n    /* \"#utility.yul\":1827:1851   */\n  tag_44\n    /* \"#utility.yul\":1845:1850   */\n  dup5\n    /* \"#utility.yul\":1827:1851   */\n  tag_13\n  jump\t// in\ntag_44:\n    /* \"#utility.yul\":1818:1852   */\n  tag_14\n  jump\t// in\ntag_43:\n    /* \"#utility.yul\":1800:1853   */\n  tag_13\n  jump\t// in\ntag_42:\n    /* \"#utility.yul\":1787:1853   */\n  swap1\n  pop\n    /* \"#utility.yul\":1717:1859   */\n  swap2\n  swap1\n  pop\n  jump\t// out\n    /* \"#utility.yul\":1865:1940   */\ntag_16:\n    /* \"#utility.yul\":1908:1911   */\n  0x00\n    /* \"#utility.yul\":1929:1934   */\n  dup2\n    /* \"#utility.yul\":1922:1934   */\n  swap1\n  pop\n    /* \"#utility.yul\":1865:1940   */\n  swap2\n  swap1\n  pop\n  jump\t// out\n    /* \"#utility.yul\":1946:2215   */\ntag_17:\n    /* \"#utility.yul\":2056:2095   */\n  tag_47\n    /* \"#utility.yul\":2087:2094   */\n  dup4\n    /* \"#utility.yul\":2056:2095   */\n  tag_15\n  jump\t// in\ntag_47:\n    /* \"#utility.yul\":2117:2208   */\n  tag_48\n    /* \"#utility.yul\":2166:2207   */\n  tag_49\n    /* \"#utility.yul\":2190:2206   */\n  dup3\n    /* \"#utility.yul\":2166:2207   */\n  tag_16\n  jump\t// in\ntag_49:\n    /* \"#utility.yul\":2158:2164   */\n  dup5\n    /* \"#utility.yul\":2151:2155   */\n  dup5\n    /* \"#utility.yul\":2145:2156   */\n  sload\n    /* \"#utility.yul\":2117:2208   */\n  tag_12\n  jump\t// in\ntag_48:\n    /* \"#utility.yul\":2111:2115   */\n  dup3\n    /* \"#utility.yul\":2104:2209   */\n  sstore\n    /* \"#utility.yul\":2022:2215   */\n  pop\n    /* \"#utility.yul\":1946:2215   */\n  pop\n  pop\n  pop\n  jump\t// out\n    /* \"#utility.yul\":2221:2294   */\ntag_18:\n    /* \"#utility.yul\":2266:2269   */\n  0x00\n    /* \"#utility.yul\":2287:2288   */\n  0x00\n    /* \"#utility.yul\":2280:2288   */\n  swap1\n  pop\n    /* \"#utility.yul\":2221:2294   */\n  swap1\n  jump\t// out\n    /* \"#utility.yul\":2300:2489   */\ntag_19:\n    /* \"#utility.yul\":2377:2409   */\n  tag_52\n  tag_18\n  jump\t// in\ntag_52:\n    /* \"#utility.yul\":2418:2483   */\n  tag_53\n    /* \"#utility.yul\":2476:2482   */\n  dup2\n    /* \"#utility.yul\":2468:2474   */\n  dup5\n    /* \"#utility.yul\":2462:2466   */\n  dup5\n    /* \"#utility.yul\":2418:2483   */\n  tag_17\n  jump\t// in\ntag_53:\n    /* \"#utility.yul\":2353:2489   */\n  pop\n    /* \"#utility.yul\":2300:2489   */\n  pop\n  pop\n  jump\t// out\n    /* \"#utility.yul\":2495:2681   */\ntag_20:\n    /* \"#utility.yul\":2555:2675   */\ntag_55:\n    /* \"#utility.yul\":2572:2575   */\n  dup2\n    /* \"#utility.yul\":2565:2570   */\n  dup2\n    /* \"#utility.yul\":2562:2576   */\n  lt\n    /* \"#utility.yul\":2555:2675   */\n  iszero\n  tag_57\n  jumpi\n    /* \"#utility.yul\":2626:2665   */\n  tag_58\n    /* \"#utility.yul\":2663:2664   */\n  0x00\n    /* \"#utility.yul\":2656:2661   */\n  dup3\n    /* \"#utility.yul\":2626:2665   */\n  tag_19\n  jump\t// in\ntag_58:\n    /* \"#utility.yul\":2599:2600   */\n  0x01\n    /* \"#utility.yul\":2592:2597   */\n  dup2\n    /* \"#utility.yul\":2588:2601   */\n  add\n    /* \"#utility.yul\":2579:2601   */\n  swap1\n  pop\n    /* \"#utility.yul\":2555:2675   */\n  jump(tag_55)\ntag_57:\n    /* \"#utility.yul\":2495:2681   */\n  pop\n  pop\n  jump\t// out\n    /* \"#utility.yul\":2687:3230   */\ntag_21:\n    /* \"#utility.yul\":2788:2790   */\n  0x1f\n    /* \"#utility.yul\":2783:2786   */\n  dup3\n    /* \"#utility.yul\":2780:2791   */\n  gt\n    /* \"#utility.yul\":2777:3223   */\n  iszero\n  tag_60\n  jumpi\n    /* \"#utility.yul\":2822:2860   */\n  tag_61\n    /* \"#utility.yul\":2854:2859   */\n  dup2\n    /* \"#utility.yul\":2822:2860   */\n  tag_9\n  jump\t// in\ntag_61:\n    /* \"#utility.yul\":2906:2935   */\n  tag_62\n    /* \"#utility.yul\":2924:2934   */\n  dup5\n    /* \"#utility.yul\":2906:2935   */\n  tag_10\n  jump\t// in\ntag_62:\n    /* \"#utility.yul\":2896:2904   */\n  dup2\n    /* \"#utility.yul\":2892:2936   */\n  add\n    /* \"#utility.yul\":3089:3091   */\n  0x20\n    /* \"#utility.yul\":3077:3087   */\n  dup6\n    /* \"#utility.yul\":3074:3092   */\n  lt\n    /* \"#utility.yul\":3071:3120   */\n  iszero\n  tag_63\n  jumpi\n    /* \"#utility.yul\":3110:3118   */\n  dup2\n    /* \"#utility.yul\":3095:3118   */\n  swap1\n  pop\n    /* \"#utility.yul\":3071:3120   */\ntag_63:\n    /* \"#utility.yul\":3133:3213   */\n  tag_64\n    /* \"#utility.yul\":3189:3211   */\n  tag_65\n    /* \"#utility.yul\":3207:3210   */\n  dup6\n    /* \"#utility.yul\":3189:3211   */\n  tag_10\n  jump\t// in\ntag_65:\n    /* \"#utility.yul\":3179:3187   */\n  dup4\n    /* \"#utility.yul\":3175:3212   */\n  add\n    /* \"#utility.yul\":3162:3173   */\n  dup3\n    /* \"#utility.yul\":3133:3213   */\n  tag_20\n  jump\t// in\ntag_64:\n    /* \"#utility.yul\":2792:3223   */\n  pop\n  pop\n    /* \"#utility.yul\":2777:3223   */\ntag_60:\n    /* \"#utility.yul\":2687:3230   */\n  pop\n  pop\n  pop\n  jump\t// out\n    /* \"#utility.yul\":3236:3353   */\ntag_22:\n    /* \"#utility.yul\":3290:3298   */\n  0x00\n    /* \"#utility.yul\":3340:3345   */\n  dup3\n    /* \"#utility.yul\":3334:3338   */\n  dup3\n    /* \"#utility.yul\":3330:3346   */\n  shr\n    /* \"#utility.yul\":3309:3346   */\n  swap1\n  pop\n    /* \"#utility.yul\":3236:3353   */\n  swap3\n  swap2\n  pop\n  pop\n  jump\t// out\n    /* \"#utility.yul\":3359:3528   */\ntag_23:\n    /* \"#utility.yul\":3403:3409   */\n  0x00\n    /* \"#utility.yul\":3436:3487   */\n  tag_68\n    /* \"#utility.yul\":3484:3485   */\n  0x00\n    /* \"#utility.yul\":3480:3486   */\n  not\n    /* \"#utility.yul\":3472:3477   */\n  dup5\n    /* \"#utility.yul\":3469:3470   */\n  0x08\n    /* \"#utility.yul\":3465:3478   */\n  mul\n    /* \"#utility.yul\":3436:3487   */\n  tag_22\n  jump\t// in\ntag_68:\n    /* \"#utility.yul\":3432:3488   */\n  not\n    /* \"#utility.yul\":3517:3521   */\n  dup1\n    /* \"#utility.yul\":3511:3515   */\n  dup4\n    /* \"#utility.yul\":3507:3522   */\n  and\n    /* \"#utility.yul\":3497:3522   */\n  swap2\n  pop\n    /* \"#utility.yul\":3410:3528   */\n  pop\n    /* \"#utility.yul\":3359:3528   */\n  swap3\n  swap2\n  pop\n  pop\n  jump\t// out\n    /* \"#utility.yul\":3533:3828   */\ntag_24:\n    /* \"#utility.yul\":3609:3613   */\n  0x00\n    /* \"#utility.yul\":3755:3784   */\n  tag_70\n    /* \"#utility.yul\":3780:3783   */\n  dup4\n    /* \"#utility.yul\":3774:3778   */\n  dup4\n    /* \"#utility.yul\":3755:3784   */\n  tag_23\n  jump\t// in\ntag_70:\n    /* \"#utility.yul\":3747:3784   */\n  swap2\n  pop\n    /* \"#utility.yul\":3817:3820   */\n  dup3\n    /* \"#utility.yul\":3814:3815   */\n  0x02\n    /* \"#utility.yul\":3810:3821   */\n  mul\n    /* \"#utility.yul\":3804:3808   */\n  dup3\n    /* \"#utility.yul\":3801:3822   */\n  or\n    /* \"#utility.yul\":3793:3822   */\n  swap1\n  pop\n    /* \"#utility.yul\":3533:3828   */\n  swap3\n  swap2\n  pop\n  pop\n  jump\t// out\n    /* \"#utility.yul\":3833:5228   */\ntag_2:\n    /* \"#utility.yul\":3950:3987   */\n  tag_72\n    /* \"#utility.yul\":3983:3986   */\n  dup3\n    /* \"#utility.yul\":3950:3987   */\n  tag_5\n  jump\t// in\ntag_72:\n    /* \"#utility.yul\":4052:4070   */\n  0xffffffffffffffff\n    /* \"#utility.yul\":4044:4050   */\n  dup2\n    /* \"#utility.yul\":4041:4071   */\n  gt\n    /* \"#utility.yul\":4038:4094   */\n  iszero\n  tag_73\n  jumpi\n    /* \"#utility.yul\":4074:4092   */\n  tag_74\n  tag_6\n  jump\t// in\ntag_74:\n    /* \"#utility.yul\":4038:4094   */\ntag_73:\n    /* \"#utility.yul\":4118:4156   */\n  tag_75\n    /* \"#utility.yul\":4150:4154   */\n  dup3\n    /* \"#utility.yul\":4144:4155   */\n  sload\n    /* \"#utility.yul\":4118:4156   */\n  tag_8\n  jump\t// in\ntag_75:\n    /* \"#utility.yul\":4203:4270   */\n  tag_76\n    /* \"#utility.yul\":4263:4269   */\n  dup3\n    /* \"#utility.yul\":4255:4261   */\n  dup3\n    /* \"#utility.yul\":4249:4253   */\n  dup6\n    /* \"#utility.yul\":4203:4270   */\n  tag_21\n  jump\t// in\ntag_76:\n    /* \"#utility.yul\":4297:4298   */\n  0x00\n    /* \"#utility.yul\":4321:4325   */\n  0x20\n    /* \"#utility.yul\":4308:4325   */\n  swap1\n  pop\n    /* \"#utility.yul\":4353:4355   */\n  0x1f\n    /* \"#utility.yul\":4345:4351   */\n  dup4\n    /* \"#utility.yul\":4342:4356   */\n  gt\n    /* \"#utility.yul\":4370:4371   */\n  0x01\n    /* \"#utility.yul\":4365:4983   */\n  dup2\n  eq\n  tag_78\n  jumpi\n    /* \"#utility.yul\":5027:5028   */\n  0x00\n    /* \"#utility.yul\":5044:5050   */\n  dup5\n    /* \"#utility.yul\":5041:5118   */\n  iszero\n  tag_79\n  jumpi\n    /* \"#utility.yul\":5093:5102   */\n  dup3\n    /* \"#utility.yul\":5088:5091   */\n  dup8\n    /* \"#utility.yul\":5084:5103   */\n  add\n    /* \"#utility.yul\":5078:5104   */\n  mload\n    /* \"#utility.yul\":5069:5104   */\n  swap1\n  pop\n    /* \"#utility.yul\":5041:5118   */\ntag_79:\n    /* \"#utility.yul\":5144:5211   */\n  tag_80\n    /* \"#utility.yul\":5204:5210   */\n  dup6\n    /* \"#utility.yul\":5197:5202   */\n  dup3\n    /* \"#utility.yul\":5144:5211   */\n  tag_24\n  jump\t// in\ntag_80:\n    /* \"#utility.yul\":5138:5142   */\n  dup7\n    /* \"#utility.yul\":5131:5212   */\n  sstore\n    /* \"#utility.yul\":5000:5222   */\n  pop\n    /* \"#utility.yul\":4335:5222   */\n  jump(tag_77)\n    /* \"#utility.yul\":4365:4983   */\ntag_78:\n    /* \"#utility.yul\":4417:4421   */\n  0x1f\n    /* \"#utility.yul\":4413:4422   */\n  not\n    /* \"#utility.yul\":4405:4411   */\n  dup5\n    /* \"#utility.yul\":4401:4423   */\n  and\n    /* \"#utility.yul\":4451:4488   */\n  tag_81\n    /* \"#utility.yul\":4483:4487   */\n  dup7\n    /* \"#utility.yul\":4451:4488   */\n  tag_9\n  jump\t// in\ntag_81:\n    /* \"#utility.yul\":4510:4511   */\n  0x00\n    /* \"#utility.yul\":4524:4732   */\ntag_82:\n    /* \"#utility.yul\":4538:4545   */\n  dup3\n    /* \"#utility.yul\":4535:4536   */\n  dup2\n    /* \"#utility.yul\":4532:4546   */\n  lt\n    /* \"#utility.yul\":4524:4732   */\n  iszero\n  tag_84\n  jumpi\n    /* \"#utility.yul\":4617:4626   */\n  dup5\n    /* \"#utility.yul\":4612:4615   */\n  dup10\n    /* \"#utility.yul\":4608:4627   */\n  add\n    /* \"#utility.yul\":4602:4628   */\n  mload\n    /* \"#utility.yul\":4594:4600   */\n  dup3\n    /* \"#utility.yul\":4587:4629   */\n  sstore\n    /* \"#utility.yul\":4668:4669   */\n  0x01\n    /* \"#utility.yul\":4660:4666   */\n  dup3\n    /* \"#utility.yul\":4656:4670   */\n  add\n    /* \"#utility.yul\":4646:4670   */\n  swap2\n  pop\n    /* \"#utility.yul\":4715:4717   */\n  0x20\n    /* \"#utility.yul\":4704:4713   */\n  dup6\n    /* \"#utility.yul\":4700:4718   */\n  add\n    /* \"#utility.yul\":4687:4718   */\n  swap5\n  pop\n    /* \"#utility.yul\":4561:4565   */\n  0x20\n    /* \"#utility.yul\":4558:4559   */\n  dup2\n    /* \"#utility.yul\":4554:4566   */\n  add\n    /* \"#utility.yul\":4549:4566   */\n  swap1\n  pop\n    /* \"#utility.yul\":4524:4732   */\n  jump(tag_82)\ntag_84:\n    /* \"#utility.yul\":4760:4766   */\n  dup7\n    /* \"#utility.yul\":4751:4758   */\n  dup4\n    /* \"#utility.yul\":4748:4767   */\n  lt\n    /* \"#utility.yul\":4745:4924   */\n  iszero\n  tag_85\n  jumpi\n    /* \"#utility.yul\":4818:4827   */\n  dup5\n    /* \"#utility.yul\":4813:4816   */\n  dup10\n    /* \"#utility.yul\":4809:4828   */\n  add\n    /* \"#utility.yul\":4803:4829   */\n  mload\n    /* \"#utility.yul\":4861:4909   */\n  tag_86\n    /* \"#utility.yul\":4903:4907   */\n  0x1f\n    /* \"#utility.yul\":4895:4901   */\n  dup10\n    /* \"#utility.yul\":4891:4908   */\n  and\n    /* \"#utility.yul\":4880:4889   */\n  dup3\n    /* \"#utility.yul\":4861:4909   */\n  tag_23\n  jump\t// in\ntag_86:\n    /* \"#utility.yul\":4853:4859   */\n  dup4\n    /* \"#utility.yul\":4846:4910   */\n  sstore\n    /* \"#utility.yul\":4768:4924   */\n  pop\n    /* \"#utility.yul\":4745:4924   */\ntag_85:\n    /* \"#utility.yul\":4970:4971   */\n  0x01\n    /* \"#utility.yul\":4966:4967   */\n  0x02\n    /* \"#utility.yul\":4958:4964   */\n  dup9\n    /* \"#utility.yul\":4954:4968   */\n  mul\n    /* \"#utility.yul\":4950:4972   */\n  add\n    /* \"#utility.yul\":4944:4948   */\n  dup9\n    /* \"#utility.yul\":4937:4973   */\n  sstore\n    /* \"#utility.yul\":4372:4983   */\n  pop\n  pop\n  pop\n    /* \"#utility.yul\":4335:5222   */\ntag_77:\n  pop\n    /* \"#utility.yul\":3925:5228   */\n  pop\n  pop\n  pop\n    /* \"#utility.yul\":3833:5228   */\n  pop\n  pop\n  jump\t// out\n    /* \"contracts/simpleStorage.sol\":78:1235  contract SimpleStorage {... */\ntag_4:\n  dataSize(sub_0)\n  dup1\n  dataOffset(sub_0)\n  0x00\n  codecopy\n  0x00\n  return\nstop\n\nsub_0: assembly {\n        /* \"contracts/simpleStorage.sol\":78:1235  contract SimpleStorage {... */\n      mstore(0x40, 0x80)\n      callvalue\n      dup1\n      iszero\n      tag_1\n      jumpi\n      revert(0x00, 0x00)\n    tag_1:\n      pop\n      jumpi(tag_2, lt(calldatasize, 0x04))\n      shr(0xe0, calldataload(0x00))\n      dup1\n      0x3b6dc266\n      gt\n      tag_10\n      jumpi\n      dup1\n      0x3b6dc266\n      eq\n      tag_6\n      jumpi\n      dup1\n      0xa7a0d537\n      eq\n      tag_7\n      jumpi\n      dup1\n      0xcad08b8b\n      eq\n      tag_8\n      jumpi\n      dup1\n      0xdb50be82\n      eq\n      tag_9\n      jumpi\n      jump(tag_2)\n    tag_10:\n      dup1\n      0x0bcd3b33\n      eq\n      tag_3\n      jumpi\n      dup1\n      0x204667a1\n      eq\n      tag_4\n      jumpi\n      dup1\n      0x2e64cec1\n      eq\n      tag_5\n      jumpi\n    tag_2:\n      revert(0x00, 0x00)\n        /* \"contracts/simpleStorage.sol\":616:1022  function getBytes() public pure returns (bytes memory, bytes8, bytes32, string memory){... */\n    tag_3:\n      tag_11\n      tag_12\n      jump\t// in\n    tag_11:\n      mload(0x40)\n      tag_13\n      swap5\n      swap4\n      swap3\n      swap2\n      swap1\n      tag_14\n      jump\t// in\n    tag_13:\n      mload(0x40)\n      dup1\n      swap2\n      sub\n      swap1\n      return\n        /* \"contracts/simpleStorage.sol\":174:192  uint256 public nbr */\n    tag_4:\n      tag_15\n      tag_16\n      jump\t// in\n    tag_15:\n      mload(0x40)\n      tag_17\n      swap2\n      swap1\n      tag_18\n      jump\t// in\n    tag_17:\n      mload(0x40)\n      dup1\n      swap2\n      sub\n      swap1\n      return\n        /* \"contracts/simpleStorage.sol\":1157:1233  function retrieve() public view returns (uint256){... */\n    tag_5:\n      tag_19\n      tag_20\n      jump\t// in\n    tag_19:\n      mload(0x40)\n      tag_21\n      swap2\n      swap1\n      tag_18\n      jump\t// in\n    tag_21:\n      mload(0x40)\n      dup1\n      swap2\n      sub\n      swap1\n      return\n        /* \"contracts/simpleStorage.sol\":198:233  string  public newStr = \"im string\" */\n    tag_6:\n      tag_22\n      tag_23\n      jump\t// in\n    tag_22:\n      mload(0x40)\n      tag_24\n      swap2\n      swap1\n      tag_25\n      jump\t// in\n    tag_24:\n      mload(0x40)\n      dup1\n      swap2\n      sub\n      swap1\n      return\n        /* \"contracts/simpleStorage.sol\":340:513  function something() public view returns (bytes8){... */\n    tag_7:\n      tag_26\n      tag_27\n      jump\t// in\n    tag_26:\n      mload(0x40)\n      tag_28\n      swap2\n      swap1\n      tag_29\n      jump\t// in\n    tag_28:\n      mload(0x40)\n      dup1\n      swap2\n      sub\n      swap1\n      return\n        /* \"contracts/simpleStorage.sol\":1055:1152  function updateNbr(uint256 _newNbr) public {... */\n    tag_8:\n      tag_30\n      0x04\n      dup1\n      calldatasize\n      sub\n      dup2\n      add\n      swap1\n      tag_31\n      swap2\n      swap1\n      tag_32\n      jump\t// in\n    tag_31:\n      tag_33\n      jump\t// in\n    tag_30:\n      stop\n        /* \"contracts/simpleStorage.sol\":239:269  bytes8 public lala = \"working\" */\n    tag_9:\n      tag_34\n      tag_35\n      jump\t// in\n    tag_34:\n      mload(0x40)\n      tag_36\n      swap2\n      swap1\n      tag_29\n      jump\t// in\n    tag_36:\n      mload(0x40)\n      dup1\n      swap2\n      sub\n      swap1\n      return\n        /* \"contracts/simpleStorage.sol\":616:1022  function getBytes() public pure returns (bytes memory, bytes8, bytes32, string memory){... */\n    tag_12:\n        /* \"contracts/simpleStorage.sol\":657:669  bytes memory */\n      0x60\n        /* \"contracts/simpleStorage.sol\":671:677  bytes8 */\n      0x00\n        /* \"contracts/simpleStorage.sol\":679:686  bytes32 */\n      0x00\n        /* \"contracts/simpleStorage.sol\":688:701  string memory */\n      0x60\n        /* \"contracts/simpleStorage.sol\":712:738  bytes memory _autoCntBytes */\n      0x00\n        /* \"contracts/simpleStorage.sol\":741:755  bytes(\"bytes\") */\n      mload(0x40)\n      dup1\n      0x40\n      add\n      0x40\n      mstore\n      dup1\n      0x05\n      dup2\n      mstore\n      0x20\n      add\n      0x6279746573000000000000000000000000000000000000000000000000000000\n      dup2\n      mstore\n      pop\n        /* \"contracts/simpleStorage.sol\":712:755  bytes memory _autoCntBytes = bytes(\"bytes\") */\n      swap1\n      pop\n        /* \"contracts/simpleStorage.sol\":765:784  bytes8 _fixedBytes8 */\n      0x00\n        /* \"contracts/simpleStorage.sol\":765:794  bytes8 _fixedBytes8 = \"bytes\" */\n      0x6279746573000000000000000000000000000000000000000000000000000000\n      swap1\n      pop\n        /* \"contracts/simpleStorage.sol\":804:825  bytes32 _fixedBytes32 */\n      0x00\n        /* \"contracts/simpleStorage.sol\":804:835  bytes32 _fixedBytes32 = \"bytes\" */\n      0x6279746573000000000000000000000000000000000000000000000000000000\n      swap1\n      pop\n        /* \"contracts/simpleStorage.sol\":920:938  string memory _str */\n      0x00\n        /* \"contracts/simpleStorage.sol\":920:948  string memory _str = \"bytes\" */\n      mload(0x40)\n      dup1\n      0x40\n      add\n      0x40\n      mstore\n      dup1\n      0x05\n      dup2\n      mstore\n      0x20\n      add\n      0x6279746573000000000000000000000000000000000000000000000000000000\n      dup2\n      mstore\n      pop\n      swap1\n      pop\n        /* \"contracts/simpleStorage.sol\":966:979  _autoCntBytes */\n      dup4\n        /* \"contracts/simpleStorage.sol\":981:993  _fixedBytes8 */\n      dup4\n        /* \"contracts/simpleStorage.sol\":995:1008  _fixedBytes32 */\n      dup4\n        /* \"contracts/simpleStorage.sol\":1010:1014  _str */\n      dup4\n        /* \"contracts/simpleStorage.sol\":958:1015  return (_autoCntBytes, _fixedBytes8, _fixedBytes32, _str) */\n      swap8\n      pop\n      swap8\n      pop\n      swap8\n      pop\n      swap8\n      pop\n      pop\n      pop\n      pop\n      pop\n        /* \"contracts/simpleStorage.sol\":616:1022  function getBytes() public pure returns (bytes memory, bytes8, bytes32, string memory){... */\n      swap1\n      swap2\n      swap3\n      swap4\n      jump\t// out\n        /* \"contracts/simpleStorage.sol\":174:192  uint256 public nbr */\n    tag_16:\n      sload(0x01)\n      dup2\n      jump\t// out\n        /* \"contracts/simpleStorage.sol\":1157:1233  function retrieve() public view returns (uint256){... */\n    tag_20:\n        /* \"contracts/simpleStorage.sol\":1198:1205  uint256 */\n      0x00\n        /* \"contracts/simpleStorage.sol\":1223:1226  nbr */\n      sload(0x01)\n        /* \"contracts/simpleStorage.sol\":1216:1226  return nbr */\n      swap1\n      pop\n        /* \"contracts/simpleStorage.sol\":1157:1233  function retrieve() public view returns (uint256){... */\n      swap1\n      jump\t// out\n        /* \"contracts/simpleStorage.sol\":198:233  string  public newStr = \"im string\" */\n    tag_23:\n      0x02\n      dup1\n      sload\n      tag_39\n      swap1\n      tag_40\n      jump\t// in\n    tag_39:\n      dup1\n      0x1f\n      add\n      0x20\n      dup1\n      swap2\n      div\n      mul\n      0x20\n      add\n      mload(0x40)\n      swap1\n      dup2\n      add\n      0x40\n      mstore\n      dup1\n      swap3\n      swap2\n      swap1\n      dup2\n      dup2\n      mstore\n      0x20\n      add\n      dup3\n      dup1\n      sload\n      tag_41\n      swap1\n      tag_40\n      jump\t// in\n    tag_41:\n      dup1\n      iszero\n      tag_42\n      jumpi\n      dup1\n      0x1f\n      lt\n      tag_43\n      jumpi\n      0x0100\n      dup1\n      dup4\n      sload\n      div\n      mul\n      dup4\n      mstore\n      swap2\n      0x20\n      add\n      swap2\n      jump(tag_42)\n    tag_43:\n      dup3\n      add\n      swap2\n      swap1\n      0x00\n      mstore\n      keccak256(0x00, 0x20)\n      swap1\n    tag_44:\n      dup2\n      sload\n      dup2\n      mstore\n      swap1\n      0x01\n      add\n      swap1\n      0x20\n      add\n      dup1\n      dup4\n      gt\n      tag_44\n      jumpi\n      dup3\n      swap1\n      sub\n      0x1f\n      and\n      dup3\n      add\n      swap2\n    tag_42:\n      pop\n      pop\n      pop\n      pop\n      pop\n      dup2\n      jump\t// out\n        /* \"contracts/simpleStorage.sol\":340:513  function something() public view returns (bytes8){... */\n    tag_27:\n        /* \"contracts/simpleStorage.sol\":382:388  bytes8 */\n      0x00\n        /* \"contracts/simpleStorage.sol\":400:419  bytes8 _fixedBytes8 */\n      0x00\n        /* \"contracts/simpleStorage.sol\":422:426  lala */\n      0x03\n      0x00\n      swap1\n      sload\n      swap1\n      0x0100\n      exp\n      swap1\n      div\n      0xc0\n      shl\n        /* \"contracts/simpleStorage.sol\":400:426  bytes8 _fixedBytes8 = lala */\n      swap1\n      pop\n        /* \"contracts/simpleStorage.sol\":493:505  _fixedBytes8 */\n      dup1\n        /* \"contracts/simpleStorage.sol\":485:506  return (_fixedBytes8) */\n      swap2\n      pop\n      pop\n        /* \"contracts/simpleStorage.sol\":340:513  function something() public view returns (bytes8){... */\n      swap1\n      jump\t// out\n        /* \"contracts/simpleStorage.sol\":1055:1152  function updateNbr(uint256 _newNbr) public {... */\n    tag_33:\n        /* \"contracts/simpleStorage.sol\":1114:1121  _newNbr */\n      dup1\n        /* \"contracts/simpleStorage.sol\":1108:1111  nbr */\n      0x01\n        /* \"contracts/simpleStorage.sol\":1108:1121  nbr = _newNbr */\n      dup2\n      swap1\n      sstore\n      pop\n        /* \"contracts/simpleStorage.sol\":1055:1152  function updateNbr(uint256 _newNbr) public {... */\n      pop\n      jump\t// out\n        /* \"contracts/simpleStorage.sol\":239:269  bytes8 public lala = \"working\" */\n    tag_35:\n      0x03\n      0x00\n      swap1\n      sload\n      swap1\n      0x0100\n      exp\n      swap1\n      div\n      0xc0\n      shl\n      dup2\n      jump\t// out\n        /* \"#utility.yul\":7:105   */\n    tag_47:\n        /* \"#utility.yul\":58:64   */\n      0x00\n        /* \"#utility.yul\":92:97   */\n      dup2\n        /* \"#utility.yul\":86:98   */\n      mload\n        /* \"#utility.yul\":76:98   */\n      swap1\n      pop\n        /* \"#utility.yul\":7:105   */\n      swap2\n      swap1\n      pop\n      jump\t// out\n        /* \"#utility.yul\":111:279   */\n    tag_48:\n        /* \"#utility.yul\":194:205   */\n      0x00\n        /* \"#utility.yul\":228:234   */\n      dup3\n        /* \"#utility.yul\":223:226   */\n      dup3\n        /* \"#utility.yul\":216:235   */\n      mstore\n        /* \"#utility.yul\":268:272   */\n      0x20\n        /* \"#utility.yul\":263:266   */\n      dup3\n        /* \"#utility.yul\":259:273   */\n      add\n        /* \"#utility.yul\":244:273   */\n      swap1\n      pop\n        /* \"#utility.yul\":111:279   */\n      swap3\n      swap2\n      pop\n      pop\n      jump\t// out\n        /* \"#utility.yul\":285:424   */\n    tag_49:\n        /* \"#utility.yul\":374:380   */\n      dup3\n        /* \"#utility.yul\":369:372   */\n      dup2\n        /* \"#utility.yul\":364:367   */\n      dup4\n        /* \"#utility.yul\":358:381   */\n      mcopy\n        /* \"#utility.yul\":415:416   */\n      0x00\n        /* \"#utility.yul\":406:412   */\n      dup4\n        /* \"#utility.yul\":401:404   */\n      dup4\n        /* \"#utility.yul\":397:413   */\n      add\n        /* \"#utility.yul\":390:417   */\n      mstore\n        /* \"#utility.yul\":285:424   */\n      pop\n      pop\n      pop\n      jump\t// out\n        /* \"#utility.yul\":430:532   */\n    tag_50:\n        /* \"#utility.yul\":471:477   */\n      0x00\n        /* \"#utility.yul\":522:524   */\n      0x1f\n        /* \"#utility.yul\":518:525   */\n      not\n        /* \"#utility.yul\":513:515   */\n      0x1f\n        /* \"#utility.yul\":506:511   */\n      dup4\n        /* \"#utility.yul\":502:516   */\n      add\n        /* \"#utility.yul\":498:526   */\n      and\n        /* \"#utility.yul\":488:526   */\n      swap1\n      pop\n        /* \"#utility.yul\":430:532   */\n      swap2\n      swap1\n      pop\n      jump\t// out\n        /* \"#utility.yul\":538:911   */\n    tag_51:\n        /* \"#utility.yul\":624:627   */\n      0x00\n        /* \"#utility.yul\":652:690   */\n      tag_73\n        /* \"#utility.yul\":684:689   */\n      dup3\n        /* \"#utility.yul\":652:690   */\n      tag_47\n      jump\t// in\n    tag_73:\n        /* \"#utility.yul\":706:776   */\n      tag_74\n        /* \"#utility.yul\":769:775   */\n      dup2\n        /* \"#utility.yul\":764:767   */\n      dup6\n        /* \"#utility.yul\":706:776   */\n      tag_48\n      jump\t// in\n    tag_74:\n        /* \"#utility.yul\":699:776   */\n      swap4\n      pop\n        /* \"#utility.yul\":785:850   */\n      tag_75\n        /* \"#utility.yul\":843:849   */\n      dup2\n        /* \"#utility.yul\":838:841   */\n      dup6\n        /* \"#utility.yul\":831:835   */\n      0x20\n        /* \"#utility.yul\":824:829   */\n      dup7\n        /* \"#utility.yul\":820:836   */\n      add\n        /* \"#utility.yul\":785:850   */\n      tag_49\n      jump\t// in\n    tag_75:\n        /* \"#utility.yul\":875:904   */\n      tag_76\n        /* \"#utility.yul\":897:903   */\n      dup2\n        /* \"#utility.yul\":875:904   */\n      tag_50\n      jump\t// in\n    tag_76:\n        /* \"#utility.yul\":870:873   */\n      dup5\n        /* \"#utility.yul\":866:905   */\n      add\n        /* \"#utility.yul\":859:905   */\n      swap2\n      pop\n        /* \"#utility.yul\":628:911   */\n      pop\n        /* \"#utility.yul\":538:911   */\n      swap3\n      swap2\n      pop\n      pop\n      jump\t// out\n        /* \"#utility.yul\":917:1066   */\n    tag_52:\n        /* \"#utility.yul\":953:960   */\n      0x00\n        /* \"#utility.yul\":993:1059   */\n      0xffffffffffffffff000000000000000000000000000000000000000000000000\n        /* \"#utility.yul\":986:991   */\n      dup3\n        /* \"#utility.yul\":982:1060   */\n      and\n        /* \"#utility.yul\":971:1060   */\n      swap1\n      pop\n        /* \"#utility.yul\":917:1066   */\n      swap2\n      swap1\n      pop\n      jump\t// out\n        /* \"#utility.yul\":1072:1187   */\n    tag_53:\n        /* \"#utility.yul\":1157:1180   */\n      tag_79\n        /* \"#utility.yul\":1174:1179   */\n      dup2\n        /* \"#utility.yul\":1157:1180   */\n      tag_52\n      jump\t// in\n    tag_79:\n        /* \"#utility.yul\":1152:1155   */\n      dup3\n        /* \"#utility.yul\":1145:1181   */\n      mstore\n        /* \"#utility.yul\":1072:1187   */\n      pop\n      pop\n      jump\t// out\n        /* \"#utility.yul\":1193:1270   */\n    tag_54:\n        /* \"#utility.yul\":1230:1237   */\n      0x00\n        /* \"#utility.yul\":1259:1264   */\n      dup2\n        /* \"#utility.yul\":1248:1264   */\n      swap1\n      pop\n        /* \"#utility.yul\":1193:1270   */\n      swap2\n      swap1\n      pop\n      jump\t// out\n        /* \"#utility.yul\":1276:1394   */\n    tag_55:\n        /* \"#utility.yul\":1363:1387   */\n      tag_82\n        /* \"#utility.yul\":1381:1386   */\n      dup2\n        /* \"#utility.yul\":1363:1387   */\n      tag_54\n      jump\t// in\n    tag_82:\n        /* \"#utility.yul\":1358:1361   */\n      dup3\n        /* \"#utility.yul\":1351:1388   */\n      mstore\n        /* \"#utility.yul\":1276:1394   */\n      pop\n      pop\n      jump\t// out\n        /* \"#utility.yul\":1400:1499   */\n    tag_56:\n        /* \"#utility.yul\":1452:1458   */\n      0x00\n        /* \"#utility.yul\":1486:1491   */\n      dup2\n        /* \"#utility.yul\":1480:1492   */\n      mload\n        /* \"#utility.yul\":1470:1492   */\n      swap1\n      pop\n        /* \"#utility.yul\":1400:1499   */\n      swap2\n      swap1\n      pop\n      jump\t// out\n        /* \"#utility.yul\":1505:1674   */\n    tag_57:\n        /* \"#utility.yul\":1589:1600   */\n      0x00\n        /* \"#utility.yul\":1623:1629   */\n      dup3\n        /* \"#utility.yul\":1618:1621   */\n      dup3\n        /* \"#utility.yul\":1611:1630   */\n      mstore\n        /* \"#utility.yul\":1663:1667   */\n      0x20\n        /* \"#utility.yul\":1658:1661   */\n      dup3\n        /* \"#utility.yul\":1654:1668   */\n      add\n        /* \"#utility.yul\":1639:1668   */\n      swap1\n      pop\n        /* \"#utility.yul\":1505:1674   */\n      swap3\n      swap2\n      pop\n      pop\n      jump\t// out\n        /* \"#utility.yul\":1680:2057   */\n    tag_58:\n        /* \"#utility.yul\":1768:1771   */\n      0x00\n        /* \"#utility.yul\":1796:1835   */\n      tag_86\n        /* \"#utility.yul\":1829:1834   */\n      dup3\n        /* \"#utility.yul\":1796:1835   */\n      tag_56\n      jump\t// in\n    tag_86:\n        /* \"#utility.yul\":1851:1922   */\n      tag_87\n        /* \"#utility.yul\":1915:1921   */\n      dup2\n        /* \"#utility.yul\":1910:1913   */\n      dup6\n        /* \"#utility.yul\":1851:1922   */\n      tag_57\n      jump\t// in\n    tag_87:\n        /* \"#utility.yul\":1844:1922   */\n      swap4\n      pop\n        /* \"#utility.yul\":1931:1996   */\n      tag_88\n        /* \"#utility.yul\":1989:1995   */\n      dup2\n        /* \"#utility.yul\":1984:1987   */\n      dup6\n        /* \"#utility.yul\":1977:1981   */\n      0x20\n        /* \"#utility.yul\":1970:1975   */\n      dup7\n        /* \"#utility.yul\":1966:1982   */\n      add\n        /* \"#utility.yul\":1931:1996   */\n      tag_49\n      jump\t// in\n    tag_88:\n        /* \"#utility.yul\":2021:2050   */\n      tag_89\n        /* \"#utility.yul\":2043:2049   */\n      dup2\n        /* \"#utility.yul\":2021:2050   */\n      tag_50\n      jump\t// in\n    tag_89:\n        /* \"#utility.yul\":2016:2019   */\n      dup5\n        /* \"#utility.yul\":2012:2051   */\n      add\n        /* \"#utility.yul\":2005:2051   */\n      swap2\n      pop\n        /* \"#utility.yul\":1772:2057   */\n      pop\n        /* \"#utility.yul\":1680:2057   */\n      swap3\n      swap2\n      pop\n      pop\n      jump\t// out\n        /* \"#utility.yul\":2063:2790   */\n    tag_14:\n        /* \"#utility.yul\":2276:2280   */\n      0x00\n        /* \"#utility.yul\":2314:2317   */\n      0x80\n        /* \"#utility.yul\":2303:2312   */\n      dup3\n        /* \"#utility.yul\":2299:2318   */\n      add\n        /* \"#utility.yul\":2291:2318   */\n      swap1\n      pop\n        /* \"#utility.yul\":2364:2373   */\n      dup2\n        /* \"#utility.yul\":2358:2362   */\n      dup2\n        /* \"#utility.yul\":2354:2374   */\n      sub\n        /* \"#utility.yul\":2350:2351   */\n      0x00\n        /* \"#utility.yul\":2339:2348   */\n      dup4\n        /* \"#utility.yul\":2335:2352   */\n      add\n        /* \"#utility.yul\":2328:2375   */\n      mstore\n        /* \"#utility.yul\":2392:2468   */\n      tag_91\n        /* \"#utility.yul\":2463:2467   */\n      dup2\n        /* \"#utility.yul\":2454:2460   */\n      dup8\n        /* \"#utility.yul\":2392:2468   */\n      tag_51\n      jump\t// in\n    tag_91:\n        /* \"#utility.yul\":2384:2468   */\n      swap1\n      pop\n        /* \"#utility.yul\":2478:2548   */\n      tag_92\n        /* \"#utility.yul\":2544:2546   */\n      0x20\n        /* \"#utility.yul\":2533:2542   */\n      dup4\n        /* \"#utility.yul\":2529:2547   */\n      add\n        /* \"#utility.yul\":2520:2526   */\n      dup7\n        /* \"#utility.yul\":2478:2548   */\n      tag_53\n      jump\t// in\n    tag_92:\n        /* \"#utility.yul\":2558:2630   */\n      tag_93\n        /* \"#utility.yul\":2626:2628   */\n      0x40\n        /* \"#utility.yul\":2615:2624   */\n      dup4\n        /* \"#utility.yul\":2611:2629   */\n      add\n        /* \"#utility.yul\":2602:2608   */\n      dup6\n        /* \"#utility.yul\":2558:2630   */\n      tag_55\n      jump\t// in\n    tag_93:\n        /* \"#utility.yul\":2677:2686   */\n      dup2\n        /* \"#utility.yul\":2671:2675   */\n      dup2\n        /* \"#utility.yul\":2667:2687   */\n      sub\n        /* \"#utility.yul\":2662:2664   */\n      0x60\n        /* \"#utility.yul\":2651:2660   */\n      dup4\n        /* \"#utility.yul\":2647:2665   */\n      add\n        /* \"#utility.yul\":2640:2688   */\n      mstore\n        /* \"#utility.yul\":2705:2783   */\n      tag_94\n        /* \"#utility.yul\":2778:2782   */\n      dup2\n        /* \"#utility.yul\":2769:2775   */\n      dup5\n        /* \"#utility.yul\":2705:2783   */\n      tag_58\n      jump\t// in\n    tag_94:\n        /* \"#utility.yul\":2697:2783   */\n      swap1\n      pop\n        /* \"#utility.yul\":2063:2790   */\n      swap6\n      swap5\n      pop\n      pop\n      pop\n      pop\n      pop\n      jump\t// out\n        /* \"#utility.yul\":2796:2873   */\n    tag_59:\n        /* \"#utility.yul\":2833:2840   */\n      0x00\n        /* \"#utility.yul\":2862:2867   */\n      dup2\n        /* \"#utility.yul\":2851:2867   */\n      swap1\n      pop\n        /* \"#utility.yul\":2796:2873   */\n      swap2\n      swap1\n      pop\n      jump\t// out\n        /* \"#utility.yul\":2879:2997   */\n    tag_60:\n        /* \"#utility.yul\":2966:2990   */\n      tag_97\n        /* \"#utility.yul\":2984:2989   */\n      dup2\n        /* \"#utility.yul\":2966:2990   */\n      tag_59\n      jump\t// in\n    tag_97:\n        /* \"#utility.yul\":2961:2964   */\n      dup3\n        /* \"#utility.yul\":2954:2991   */\n      mstore\n        /* \"#utility.yul\":2879:2997   */\n      pop\n      pop\n      jump\t// out\n        /* \"#utility.yul\":3003:3225   */\n    tag_18:\n        /* \"#utility.yul\":3096:3100   */\n      0x00\n        /* \"#utility.yul\":3134:3136   */\n      0x20\n        /* \"#utility.yul\":3123:3132   */\n      dup3\n        /* \"#utility.yul\":3119:3137   */\n      add\n        /* \"#utility.yul\":3111:3137   */\n      swap1\n      pop\n        /* \"#utility.yul\":3147:3218   */\n      tag_99\n        /* \"#utility.yul\":3215:3216   */\n      0x00\n        /* \"#utility.yul\":3204:3213   */\n      dup4\n        /* \"#utility.yul\":3200:3217   */\n      add\n        /* \"#utility.yul\":3191:3197   */\n      dup5\n        /* \"#utility.yul\":3147:3218   */\n      tag_60\n      jump\t// in\n    tag_99:\n        /* \"#utility.yul\":3003:3225   */\n      swap3\n      swap2\n      pop\n      pop\n      jump\t// out\n        /* \"#utility.yul\":3231:3544   */\n    tag_25:\n        /* \"#utility.yul\":3344:3348   */\n      0x00\n        /* \"#utility.yul\":3382:3384   */\n      0x20\n        /* \"#utility.yul\":3371:3380   */\n      dup3\n        /* \"#utility.yul\":3367:3385   */\n      add\n        /* \"#utility.yul\":3359:3385   */\n      swap1\n      pop\n        /* \"#utility.yul\":3431:3440   */\n      dup2\n        /* \"#utility.yul\":3425:3429   */\n      dup2\n        /* \"#utility.yul\":3421:3441   */\n      sub\n        /* \"#utility.yul\":3417:3418   */\n      0x00\n        /* \"#utility.yul\":3406:3415   */\n      dup4\n        /* \"#utility.yul\":3402:3419   */\n      add\n        /* \"#utility.yul\":3395:3442   */\n      mstore\n        /* \"#utility.yul\":3459:3537   */\n      tag_101\n        /* \"#utility.yul\":3532:3536   */\n      dup2\n        /* \"#utility.yul\":3523:3529   */\n      dup5\n        /* \"#utility.yul\":3459:3537   */\n      tag_58\n      jump\t// in\n    tag_101:\n        /* \"#utility.yul\":3451:3537   */\n      swap1\n      pop\n        /* \"#utility.yul\":3231:3544   */\n      swap3\n      swap2\n      pop\n      pop\n      jump\t// out\n        /* \"#utility.yul\":3550:3768   */\n    tag_29:\n        /* \"#utility.yul\":3641:3645   */\n      0x00\n        /* \"#utility.yul\":3679:3681   */\n      0x20\n        /* \"#utility.yul\":3668:3677   */\n      dup3\n        /* \"#utility.yul\":3664:3682   */\n      add\n        /* \"#utility.yul\":3656:3682   */\n      swap1\n      pop\n        /* \"#utility.yul\":3692:3761   */\n      tag_103\n        /* \"#utility.yul\":3758:3759   */\n      0x00\n        /* \"#utility.yul\":3747:3756   */\n      dup4\n        /* \"#utility.yul\":3743:3760   */\n      add\n        /* \"#utility.yul\":3734:3740   */\n      dup5\n        /* \"#utility.yul\":3692:3761   */\n      tag_53\n      jump\t// in\n    tag_103:\n        /* \"#utility.yul\":3550:3768   */\n      swap3\n      swap2\n      pop\n      pop\n      jump\t// out\n        /* \"#utility.yul\":3855:3972   */\n    tag_62:\n        /* \"#utility.yul\":3964:3965   */\n      0x00\n        /* \"#utility.yul\":3961:3962   */\n      0x00\n        /* \"#utility.yul\":3954:3966   */\n      revert\n        /* \"#utility.yul\":4101:4223   */\n    tag_64:\n        /* \"#utility.yul\":4174:4198   */\n      tag_108\n        /* \"#utility.yul\":4192:4197   */\n      dup2\n        /* \"#utility.yul\":4174:4198   */\n      tag_59\n      jump\t// in\n    tag_108:\n        /* \"#utility.yul\":4167:4172   */\n      dup2\n        /* \"#utility.yul\":4164:4199   */\n      eq\n        /* \"#utility.yul\":4154:4217   */\n      tag_109\n      jumpi\n        /* \"#utility.yul\":4213:4214   */\n      0x00\n        /* \"#utility.yul\":4210:4211   */\n      0x00\n        /* \"#utility.yul\":4203:4215   */\n      revert\n        /* \"#utility.yul\":4154:4217   */\n    tag_109:\n        /* \"#utility.yul\":4101:4223   */\n      pop\n      jump\t// out\n        /* \"#utility.yul\":4229:4368   */\n    tag_65:\n        /* \"#utility.yul\":4275:4280   */\n      0x00\n        /* \"#utility.yul\":4313:4319   */\n      dup2\n        /* \"#utility.yul\":4300:4320   */\n      calldataload\n        /* \"#utility.yul\":4291:4320   */\n      swap1\n      pop\n        /* \"#utility.yul\":4329:4362   */\n      tag_111\n        /* \"#utility.yul\":4356:4361   */\n      dup2\n        /* \"#utility.yul\":4329:4362   */\n      tag_64\n      jump\t// in\n    tag_111:\n        /* \"#utility.yul\":4229:4368   */\n      swap3\n      swap2\n      pop\n      pop\n      jump\t// out\n        /* \"#utility.yul\":4374:4703   */\n    tag_32:\n        /* \"#utility.yul\":4433:4439   */\n      0x00\n        /* \"#utility.yul\":4482:4484   */\n      0x20\n        /* \"#utility.yul\":4470:4479   */\n      dup3\n        /* \"#utility.yul\":4461:4468   */\n      dup5\n        /* \"#utility.yul\":4457:4480   */\n      sub\n        /* \"#utility.yul\":4453:4485   */\n      slt\n        /* \"#utility.yul\":4450:4569   */\n      iszero\n      tag_113\n      jumpi\n        /* \"#utility.yul\":4488:4567   */\n      tag_114\n      tag_62\n      jump\t// in\n    tag_114:\n        /* \"#utility.yul\":4450:4569   */\n    tag_113:\n        /* \"#utility.yul\":4608:4609   */\n      0x00\n        /* \"#utility.yul\":4633:4686   */\n      tag_115\n        /* \"#utility.yul\":4678:4685   */\n      dup5\n        /* \"#utility.yul\":4669:4675   */\n      dup3\n        /* \"#utility.yul\":4658:4667   */\n      dup6\n        /* \"#utility.yul\":4654:4676   */\n      add\n        /* \"#utility.yul\":4633:4686   */\n      tag_65\n      jump\t// in\n    tag_115:\n        /* \"#utility.yul\":4623:4686   */\n      swap2\n      pop\n        /* \"#utility.yul\":4579:4696   */\n      pop\n        /* \"#utility.yul\":4374:4703   */\n      swap3\n      swap2\n      pop\n      pop\n      jump\t// out\n        /* \"#utility.yul\":4709:4889   */\n    tag_66:\n        /* \"#utility.yul\":4757:4834   */\n      0x4e487b7100000000000000000000000000000000000000000000000000000000\n        /* \"#utility.yul\":4754:4755   */\n      0x00\n        /* \"#utility.yul\":4747:4835   */\n      mstore\n        /* \"#utility.yul\":4854:4858   */\n      0x22\n        /* \"#utility.yul\":4851:4852   */\n      0x04\n        /* \"#utility.yul\":4844:4859   */\n      mstore\n        /* \"#utility.yul\":4878:4882   */\n      0x24\n        /* \"#utility.yul\":4875:4876   */\n      0x00\n        /* \"#utility.yul\":4868:4883   */\n      revert\n        /* \"#utility.yul\":4895:5215   */\n    tag_40:\n        /* \"#utility.yul\":4939:4945   */\n      0x00\n        /* \"#utility.yul\":4976:4977   */\n      0x02\n        /* \"#utility.yul\":4970:4974   */\n      dup3\n        /* \"#utility.yul\":4966:4978   */\n      div\n        /* \"#utility.yul\":4956:4978   */\n      swap1\n      pop\n        /* \"#utility.yul\":5023:5024   */\n      0x01\n        /* \"#utility.yul\":5017:5021   */\n      dup3\n        /* \"#utility.yul\":5013:5025   */\n      and\n        /* \"#utility.yul\":5044:5062   */\n      dup1\n        /* \"#utility.yul\":5034:5115   */\n      tag_118\n      jumpi\n        /* \"#utility.yul\":5100:5104   */\n      0x7f\n        /* \"#utility.yul\":5092:5098   */\n      dup3\n        /* \"#utility.yul\":5088:5105   */\n      and\n        /* \"#utility.yul\":5078:5105   */\n      swap2\n      pop\n        /* \"#utility.yul\":5034:5115   */\n    tag_118:\n        /* \"#utility.yul\":5162:5164   */\n      0x20\n        /* \"#utility.yul\":5154:5160   */\n      dup3\n        /* \"#utility.yul\":5151:5165   */\n      lt\n        /* \"#utility.yul\":5131:5149   */\n      dup2\n        /* \"#utility.yul\":5128:5166   */\n      sub\n        /* \"#utility.yul\":5125:5209   */\n      tag_119\n      jumpi\n        /* \"#utility.yul\":5181:5199   */\n      tag_120\n      tag_66\n      jump\t// in\n    tag_120:\n        /* \"#utility.yul\":5125:5209   */\n    tag_119:\n        /* \"#utility.yul\":4946:5215   */\n      pop\n        /* \"#utility.yul\":4895:5215   */\n      swap2\n      swap1\n      pop\n      jump\t// out\n\n    auxdata: 0xa2646970667358221220274ec841f59f1c8905815f7ca92bdda01beecc2ef686a1cdb1aa92d328727dcd64736f6c634300081e0033\n}\n",
				"bytecode": {
					"linkReferences": {},
					"object": "6080604052730790248b39886759ca52dfcf44801e5ac0414c4f5f5f6101000a81548173ffffffffffffffffffffffffffffffffffffffff021916908373ffffffffffffffffffffffffffffffffffffffff1602179055506040518060400160405280600981526020017f696d20737472696e6700000000000000000000000000000000000000000000008152506002908161009b919061032b565b507f776f726b696e670000000000000000000000000000000000000000000000000060035f6101000a81548167ffffffffffffffff021916908360c01c02179055503480156100e8575f5ffd5b506103fa565b5f81519050919050565b7f4e487b71000000000000000000000000000000000000000000000000000000005f52604160045260245ffd5b7f4e487b71000000000000000000000000000000000000000000000000000000005f52602260045260245ffd5b5f600282049050600182168061016957607f821691505b60208210810361017c5761017b610125565b5b50919050565b5f819050815f5260205f209050919050565b5f6020601f8301049050919050565b5f82821b905092915050565b5f600883026101de7fffffffffffffffffffffffffffffffffffffffffffffffffffffffffffffffff826101a3565b6101e886836101a3565b95508019841693508086168417925050509392505050565b5f819050919050565b5f819050919050565b5f61022c61022761022284610200565b610209565b610200565b9050919050565b5f819050919050565b61024583610212565b61025961025182610233565b8484546101af565b825550505050565b5f5f905090565b610270610261565b61027b81848461023c565b505050565b5b8181101561029e576102935f82610268565b600181019050610281565b5050565b601f8211156102e3576102b481610182565b6102bd84610194565b810160208510156102cc578190505b6102e06102d885610194565b830182610280565b50505b505050565b5f82821c905092915050565b5f6103035f19846008026102e8565b1980831691505092915050565b5f61031b83836102f4565b9150826002028217905092915050565b610334826100ee565b67ffffffffffffffff81111561034d5761034c6100f8565b5b6103578254610152565b6103628282856102a2565b5f60209050601f831160018114610393575f8415610381578287015190505b61038b8582610310565b8655506103f2565b601f1984166103a186610182565b5f5b828110156103c8578489015182556001820191506020850194506020810190506103a3565b868310156103e557848901516103e1601f8916826102f4565b8355505b6001600288020188555050505b505050505050565b6105b4806104075f395ff3fe608060405234801561000f575f5ffd5b506004361061007b575f3560e01c80633b6dc266116100595780633b6dc266146100dc578063a7a0d537146100fa578063cad08b8b14610118578063db50be82146101345761007b565b80630bcd3b331461007f578063204667a1146100a05780632e64cec1146100be575b5f5ffd5b610087610152565b604051610097949392919061040d565b60405180910390f35b6100a8610228565b6040516100b59190610476565b60405180910390f35b6100c661022e565b6040516100d39190610476565b60405180910390f35b6100e4610237565b6040516100f1919061048f565b60405180910390f35b6101026102c3565b60405161010f91906104af565b60405180910390f35b610132600480360381019061012d91906104f6565b6102dd565b005b61013c6102e7565b60405161014991906104af565b60405180910390f35b60605f5f60605f6040518060400160405280600581526020017f627974657300000000000000000000000000000000000000000000000000000081525090505f7f627974657300000000000000000000000000000000000000000000000000000090505f7f627974657300000000000000000000000000000000000000000000000000000090505f6040518060400160405280600581526020017f627974657300000000000000000000000000000000000000000000000000000081525090508383838397509750975097505050505090919293565b60015481565b5f600154905090565b600280546102449061054e565b80601f01602080910402602001604051908101604052809291908181526020018280546102709061054e565b80156102bb5780601f10610292576101008083540402835291602001916102bb565b820191905f5260205f20905b81548152906001019060200180831161029e57829003601f168201915b505050505081565b5f5f60035f9054906101000a900460c01b90508091505090565b8060018190555050565b60035f9054906101000a900460c01b81565b5f81519050919050565b5f82825260208201905092915050565b8281835e5f83830152505050565b5f601f19601f8301169050919050565b5f61033b826102f9565b6103458185610303565b9350610355818560208601610313565b61035e81610321565b840191505092915050565b5f7fffffffffffffffff00000000000000000000000000000000000000000000000082169050919050565b61039d81610369565b82525050565b5f819050919050565b6103b5816103a3565b82525050565b5f81519050919050565b5f82825260208201905092915050565b5f6103df826103bb565b6103e981856103c5565b93506103f9818560208601610313565b61040281610321565b840191505092915050565b5f6080820190508181035f8301526104258187610331565b90506104346020830186610394565b61044160408301856103ac565b818103606083015261045381846103d5565b905095945050505050565b5f819050919050565b6104708161045e565b82525050565b5f6020820190506104895f830184610467565b92915050565b5f6020820190508181035f8301526104a781846103d5565b905092915050565b5f6020820190506104c25f830184610394565b92915050565b5f5ffd5b6104d58161045e565b81146104df575f5ffd5b50565b5f813590506104f0816104cc565b92915050565b5f6020828403121561050b5761050a6104c8565b5b5f610518848285016104e2565b91505092915050565b7f4e487b71000000000000000000000000000000000000000000000000000000005f52602260045260245ffd5b5f600282049050600182168061056557607f821691505b60208210810361057857610577610521565b5b5091905056fea2646970667358221220274ec841f59f1c8905815f7ca92bdda01beecc2ef686a1cdb1aa92d328727dcd64736f6c634300081e0033",
					"opcodes": "PUSH1 0x80 PUSH1 0x40 MSTORE PUSH20 0x790248B39886759CA52DFCF44801E5AC0414C4F PUSH0 PUSH0 PUSH2 0x100 EXP DUP2 SLOAD DUP2 PUSH20 0xFFFFFFFFFFFFFFFFFFFFFFFFFFFFFFFFFFFFFFFF MUL NOT AND SWAP1 DUP4 PUSH20 0xFFFFFFFFFFFFFFFFFFFFFFFFFFFFFFFFFFFFFFFF AND MUL OR SWAP1 SSTORE POP PUSH1 0x40 MLOAD DUP1 PUSH1 0x40 ADD PUSH1 0x40 MSTORE DUP1 PUSH1 0x9 DUP2 MSTORE PUSH1 0x20 ADD PUSH32 0x696D20737472696E670000000000000000000000000000000000000000000000 DUP2 MSTORE POP PUSH1 0x2 SWAP1 DUP2 PUSH2 0x9B SWAP2 SWAP1 PUSH2 0x32B JUMP JUMPDEST POP PUSH32 0x776F726B696E6700000000000000000000000000000000000000000000000000 PUSH1 0x3 PUSH0 PUSH2 0x100 EXP DUP2 SLOAD DUP2 PUSH8 0xFFFFFFFFFFFFFFFF MUL NOT AND SWAP1 DUP4 PUSH1 0xC0 SHR MUL OR SWAP1 SSTORE POP CALLVALUE DUP1 ISZERO PUSH2 0xE8 JUMPI PUSH0 PUSH0 REVERT JUMPDEST POP PUSH2 0x3FA JUMP JUMPDEST PUSH0 DUP2 MLOAD SWAP1 POP SWAP2 SWAP1 POP JUMP JUMPDEST PUSH32 0x4E487B7100000000000000000000000000000000000000000000000000000000 PUSH0 MSTORE PUSH1 0x41 PUSH1 0x4 MSTORE PUSH1 0x24 PUSH0 REVERT JUMPDEST PUSH32 0x4E487B7100000000000000000000000000000000000000000000000000000000 PUSH0 MSTORE PUSH1 0x22 PUSH1 0x4 MSTORE PUSH1 0x24 PUSH0 REVERT JUMPDEST PUSH0 PUSH1 0x2 DUP3 DIV SWAP1 POP PUSH1 0x1 DUP3 AND DUP1 PUSH2 0x169 JUMPI PUSH1 0x7F DUP3 AND SWAP2 POP JUMPDEST PUSH1 0x20 DUP3 LT DUP2 SUB PUSH2 0x17C JUMPI PUSH2 0x17B PUSH2 0x125 JUMP JUMPDEST JUMPDEST POP SWAP2 SWAP1 POP JUMP JUMPDEST PUSH0 DUP2 SWAP1 POP DUP2 PUSH0 MSTORE PUSH1 0x20 PUSH0 KECCAK256 SWAP1 POP SWAP2 SWAP1 POP JUMP JUMPDEST PUSH0 PUSH1 0x20 PUSH1 0x1F DUP4 ADD DIV SWAP1 POP SWAP2 SWAP1 POP JUMP JUMPDEST PUSH0 DUP3 DUP3 SHL SWAP1 POP SWAP3 SWAP2 POP POP JUMP JUMPDEST PUSH0 PUSH1 0x8 DUP4 MUL PUSH2 0x1DE PUSH32 0xFFFFFFFFFFFFFFFFFFFFFFFFFFFFFFFFFFFFFFFFFFFFFFFFFFFFFFFFFFFFFFFF DUP3 PUSH2 0x1A3 JUMP JUMPDEST PUSH2 0x1E8 DUP7 DUP4 PUSH2 0x1A3 JUMP JUMPDEST SWAP6 POP DUP1 NOT DUP5 AND SWAP4 POP DUP1 DUP7 AND DUP5 OR SWAP3 POP POP POP SWAP4 SWAP3 POP POP POP JUMP JUMPDEST PUSH0 DUP2 SWAP1 POP SWAP2 SWAP1 POP JUMP JUMPDEST PUSH0 DUP2 SWAP1 POP SWAP2 SWAP1 POP JUMP JUMPDEST PUSH0 PUSH2 0x22C PUSH2 0x227 PUSH2 0x222 DUP5 PUSH2 0x200 JUMP JUMPDEST PUSH2 0x209 JUMP JUMPDEST PUSH2 0x200 JUMP JUMPDEST SWAP1 POP SWAP2 SWAP1 POP JUMP JUMPDEST PUSH0 DUP2 SWAP1 POP SWAP2 SWAP1 POP JUMP JUMPDEST PUSH2 0x245 DUP4 PUSH2 0x212 JUMP JUMPDEST PUSH2 0x259 PUSH2 0x251 DUP3 PUSH2 0x233 JUMP JUMPDEST DUP5 DUP5 SLOAD PUSH2 0x1AF JUMP JUMPDEST DUP3 SSTORE POP POP POP POP JUMP JUMPDEST PUSH0 PUSH0 SWAP1 POP SWAP1 JUMP JUMPDEST PUSH2 0x270 PUSH2 0x261 JUMP JUMPDEST PUSH2 0x27B DUP2 DUP5 DUP5 PUSH2 0x23C JUMP JUMPDEST POP POP POP JUMP JUMPDEST JUMPDEST DUP2 DUP2 LT ISZERO PUSH2 0x29E JUMPI PUSH2 0x293 PUSH0 DUP3 PUSH2 0x268 JUMP JUMPDEST PUSH1 0x1 DUP2 ADD SWAP1 POP PUSH2 0x281 JUMP JUMPDEST POP POP JUMP JUMPDEST PUSH1 0x1F DUP3 GT ISZERO PUSH2 0x2E3 JUMPI PUSH2 0x2B4 DUP2 PUSH2 0x182 JUMP JUMPDEST PUSH2 0x2BD DUP5 PUSH2 0x194 JUMP JUMPDEST DUP2 ADD PUSH1 0x20 DUP6 LT ISZERO PUSH2 0x2CC JUMPI DUP2 SWAP1 POP JUMPDEST PUSH2 0x2E0 PUSH2 0x2D8 DUP6 PUSH2 0x194 JUMP JUMPDEST DUP4 ADD DUP3 PUSH2 0x280 JUMP JUMPDEST POP POP JUMPDEST POP POP POP JUMP JUMPDEST PUSH0 DUP3 DUP3 SHR SWAP1 POP SWAP3 SWAP2 POP POP JUMP JUMPDEST PUSH0 PUSH2 0x303 PUSH0 NOT DUP5 PUSH1 0x8 MUL PUSH2 0x2E8 JUMP JUMPDEST NOT DUP1 DUP4 AND SWAP2 POP POP SWAP3 SWAP2 POP POP JUMP JUMPDEST PUSH0 PUSH2 0x31B DUP4 DUP4 PUSH2 0x2F4 JUMP JUMPDEST SWAP2 POP DUP3 PUSH1 0x2 MUL DUP3 OR SWAP1 POP SWAP3 SWAP2 POP POP JUMP JUMPDEST PUSH2 0x334 DUP3 PUSH2 0xEE JUMP JUMPDEST PUSH8 0xFFFFFFFFFFFFFFFF DUP2 GT ISZERO PUSH2 0x34D JUMPI PUSH2 0x34C PUSH2 0xF8 JUMP JUMPDEST JUMPDEST PUSH2 0x357 DUP3 SLOAD PUSH2 0x152 JUMP JUMPDEST PUSH2 0x362 DUP3 DUP3 DUP6 PUSH2 0x2A2 JUMP JUMPDEST PUSH0 PUSH1 0x20 SWAP1 POP PUSH1 0x1F DUP4 GT PUSH1 0x1 DUP2 EQ PUSH2 0x393 JUMPI PUSH0 DUP5 ISZERO PUSH2 0x381 JUMPI DUP3 DUP8 ADD MLOAD SWAP1 POP JUMPDEST PUSH2 0x38B DUP6 DUP3 PUSH2 0x310 JUMP JUMPDEST DUP7 SSTORE POP PUSH2 0x3F2 JUMP JUMPDEST PUSH1 0x1F NOT DUP5 AND PUSH2 0x3A1 DUP7 PUSH2 0x182 JUMP JUMPDEST PUSH0 JUMPDEST DUP3 DUP2 LT ISZERO PUSH2 0x3C8 JUMPI DUP5 DUP10 ADD MLOAD DUP3 SSTORE PUSH1 0x1 DUP3 ADD SWAP2 POP PUSH1 0x20 DUP6 ADD SWAP5 POP PUSH1 0x20 DUP2 ADD SWAP1 POP PUSH2 0x3A3 JUMP JUMPDEST DUP7 DUP4 LT ISZERO PUSH2 0x3E5 JUMPI DUP5 DUP10 ADD MLOAD PUSH2 0x3E1 PUSH1 0x1F DUP10 AND DUP3 PUSH2 0x2F4 JUMP JUMPDEST DUP4 SSTORE POP JUMPDEST PUSH1 0x1 PUSH1 0x2 DUP9 MUL ADD DUP9 SSTORE POP POP POP JUMPDEST POP POP POP POP POP POP JUMP JUMPDEST PUSH2 0x5B4 DUP1 PUSH2 0x407 PUSH0 CODECOPY PUSH0 RETURN INVALID PUSH1 0x80 PUSH1 0x40 MSTORE CALLVALUE DUP1 ISZERO PUSH2 0xF JUMPI PUSH0 PUSH0 REVERT JUMPDEST POP PUSH1 0x4 CALLDATASIZE LT PUSH2 0x7B JUMPI PUSH0 CALLDATALOAD PUSH1 0xE0 SHR DUP1 PUSH4 0x3B6DC266 GT PUSH2 0x59 JUMPI DUP1 PUSH4 0x3B6DC266 EQ PUSH2 0xDC JUMPI DUP1 PUSH4 0xA7A0D537 EQ PUSH2 0xFA JUMPI DUP1 PUSH4 0xCAD08B8B EQ PUSH2 0x118 JUMPI DUP1 PUSH4 0xDB50BE82 EQ PUSH2 0x134 JUMPI PUSH2 0x7B JUMP JUMPDEST DUP1 PUSH4 0xBCD3B33 EQ PUSH2 0x7F JUMPI DUP1 PUSH4 0x204667A1 EQ PUSH2 0xA0 JUMPI DUP1 PUSH4 0x2E64CEC1 EQ PUSH2 0xBE JUMPI JUMPDEST PUSH0 PUSH0 REVERT JUMPDEST PUSH2 0x87 PUSH2 0x152 JUMP JUMPDEST PUSH1 0x40 MLOAD PUSH2 0x97 SWAP5 SWAP4 SWAP3 SWAP2 SWAP1 PUSH2 0x40D JUMP JUMPDEST PUSH1 0x40 MLOAD DUP1 SWAP2 SUB SWAP1 RETURN JUMPDEST PUSH2 0xA8 PUSH2 0x228 JUMP JUMPDEST PUSH1 0x40 MLOAD PUSH2 0xB5 SWAP2 SWAP1 PUSH2 0x476 JUMP JUMPDEST PUSH1 0x40 MLOAD DUP1 SWAP2 SUB SWAP1 RETURN JUMPDEST PUSH2 0xC6 PUSH2 0x22E JUMP JUMPDEST PUSH1 0x40 MLOAD PUSH2 0xD3 SWAP2 SWAP1 PUSH2 0x476 JUMP JUMPDEST PUSH1 0x40 MLOAD DUP1 SWAP2 SUB SWAP1 RETURN JUMPDEST PUSH2 0xE4 PUSH2 0x237 JUMP JUMPDEST PUSH1 0x40 MLOAD PUSH2 0xF1 SWAP2 SWAP1 PUSH2 0x48F JUMP JUMPDEST PUSH1 0x40 MLOAD DUP1 SWAP2 SUB SWAP1 RETURN JUMPDEST PUSH2 0x102 PUSH2 0x2C3 JUMP JUMPDEST PUSH1 0x40 MLOAD PUSH2 0x10F SWAP2 SWAP1 PUSH2 0x4AF JUMP JUMPDEST PUSH1 0x40 MLOAD DUP1 SWAP2 SUB SWAP1 RETURN JUMPDEST PUSH2 0x132 PUSH1 0x4 DUP1 CALLDATASIZE SUB DUP2 ADD SWAP1 PUSH2 0x12D SWAP2 SWAP1 PUSH2 0x4F6 JUMP JUMPDEST PUSH2 0x2DD JUMP JUMPDEST STOP JUMPDEST PUSH2 0x13C PUSH2 0x2E7 JUMP JUMPDEST PUSH1 0x40 MLOAD PUSH2 0x149 SWAP2 SWAP1 PUSH2 0x4AF JUMP JUMPDEST PUSH1 0x40 MLOAD DUP1 SWAP2 SUB SWAP1 RETURN JUMPDEST PUSH1 0x60 PUSH0 PUSH0 PUSH1 0x60 PUSH0 PUSH1 0x40 MLOAD DUP1 PUSH1 0x40 ADD PUSH1 0x40 MSTORE DUP1 PUSH1 0x5 DUP2 MSTORE PUSH1 0x20 ADD PUSH32 0x6279746573000000000000000000000000000000000000000000000000000000 DUP2 MSTORE POP SWAP1 POP PUSH0 PUSH32 0x6279746573000000000000000000000000000000000000000000000000000000 SWAP1 POP PUSH0 PUSH32 0x6279746573000000000000000000000000000000000000000000000000000000 SWAP1 POP PUSH0 PUSH1 0x40 MLOAD DUP1 PUSH1 0x40 ADD PUSH1 0x40 MSTORE DUP1 PUSH1 0x5 DUP2 MSTORE PUSH1 0x20 ADD PUSH32 0x6279746573000000000000000000000000000000000000000000000000000000 DUP2 MSTORE POP SWAP1 POP DUP4 DUP4 DUP4 DUP4 SWAP8 POP SWAP8 POP SWAP8 POP SWAP8 POP POP POP POP POP SWAP1 SWAP2 SWAP3 SWAP4 JUMP JUMPDEST PUSH1 0x1 SLOAD DUP2 JUMP JUMPDEST PUSH0 PUSH1 0x1 SLOAD SWAP1 POP SWAP1 JUMP JUMPDEST PUSH1 0x2 DUP1 SLOAD PUSH2 0x244 SWAP1 PUSH2 0x54E JUMP JUMPDEST DUP1 PUSH1 0x1F ADD PUSH1 0x20 DUP1 SWAP2 DIV MUL PUSH1 0x20 ADD PUSH1 0x40 MLOAD SWAP1 DUP2 ADD PUSH1 0x40 MSTORE DUP1 SWAP3 SWAP2 SWAP1 DUP2 DUP2 MSTORE PUSH1 0x20 ADD DUP3 DUP1 SLOAD PUSH2 0x270 SWAP1 PUSH2 0x54E JUMP JUMPDEST DUP1 ISZERO PUSH2 0x2BB JUMPI DUP1 PUSH1 0x1F LT PUSH2 0x292 JUMPI PUSH2 0x100 DUP1 DUP4 SLOAD DIV MUL DUP4 MSTORE SWAP2 PUSH1 0x20 ADD SWAP2 PUSH2 0x2BB JUMP JUMPDEST DUP3 ADD SWAP2 SWAP1 PUSH0 MSTORE PUSH1 0x20 PUSH0 KECCAK256 SWAP1 JUMPDEST DUP2 SLOAD DUP2 MSTORE SWAP1 PUSH1 0x1 ADD SWAP1 PUSH1 0x20 ADD DUP1 DUP4 GT PUSH2 0x29E JUMPI DUP3 SWAP1 SUB PUSH1 0x1F AND DUP3 ADD SWAP2 JUMPDEST POP POP POP POP POP DUP2 JUMP JUMPDEST PUSH0 PUSH0 PUSH1 0x3 PUSH0 SWAP1 SLOAD SWAP1 PUSH2 0x100 EXP SWAP1 DIV PUSH1 0xC0 SHL SWAP1 POP DUP1 SWAP2 POP POP SWAP1 JUMP JUMPDEST DUP1 PUSH1 0x1 DUP2 SWAP1 SSTORE POP POP JUMP JUMPDEST PUSH1 0x3 PUSH0 SWAP1 SLOAD SWAP1 PUSH2 0x100 EXP SWAP1 DIV PUSH1 0xC0 SHL DUP2 JUMP JUMPDEST PUSH0 DUP2 MLOAD SWAP1 POP SWAP2 SWAP1 POP JUMP JUMPDEST PUSH0 DUP3 DUP3 MSTORE PUSH1 0x20 DUP3 ADD SWAP1 POP SWAP3 SWAP2 POP POP JUMP JUMPDEST DUP3 DUP2 DUP4 MCOPY PUSH0 DUP4 DUP4 ADD MSTORE POP POP POP JUMP JUMPDEST PUSH0 PUSH1 0x1F NOT PUSH1 0x1F DUP4 ADD AND SWAP1 POP SWAP2 SWAP1 POP JUMP JUMPDEST PUSH0 PUSH2 0x33B DUP3 PUSH2 0x2F9 JUMP JUMPDEST PUSH2 0x345 DUP2 DUP6 PUSH2 0x303 JUMP JUMPDEST SWAP4 POP PUSH2 0x355 DUP2 DUP6 PUSH1 0x20 DUP7 ADD PUSH2 0x313 JUMP JUMPDEST PUSH2 0x35E DUP2 PUSH2 0x321 JUMP JUMPDEST DUP5 ADD SWAP2 POP POP SWAP3 SWAP2 POP POP JUMP JUMPDEST PUSH0 PUSH32 0xFFFFFFFFFFFFFFFF000000000000000000000000000000000000000000000000 DUP3 AND SWAP1 POP SWAP2 SWAP1 POP JUMP JUMPDEST PUSH2 0x39D DUP2 PUSH2 0x369 JUMP JUMPDEST DUP3 MSTORE POP POP JUMP JUMPDEST PUSH0 DUP2 SWAP1 POP SWAP2 SWAP1 POP JUMP JUMPDEST PUSH2 0x3B5 DUP2 PUSH2 0x3A3 JUMP JUMPDEST DUP3 MSTORE POP POP JUMP JUMPDEST PUSH0 DUP2 MLOAD SWAP1 POP SWAP2 SWAP1 POP JUMP JUMPDEST PUSH0 DUP3 DUP3 MSTORE PUSH1 0x20 DUP3 ADD SWAP1 POP SWAP3 SWAP2 POP POP JUMP JUMPDEST PUSH0 PUSH2 0x3DF DUP3 PUSH2 0x3BB JUMP JUMPDEST PUSH2 0x3E9 DUP2 DUP6 PUSH2 0x3C5 JUMP JUMPDEST SWAP4 POP PUSH2 0x3F9 DUP2 DUP6 PUSH1 0x20 DUP7 ADD PUSH2 0x313 JUMP JUMPDEST PUSH2 0x402 DUP2 PUSH2 0x321 JUMP JUMPDEST DUP5 ADD SWAP2 POP POP SWAP3 SWAP2 POP POP JUMP JUMPDEST PUSH0 PUSH1 0x80 DUP3 ADD SWAP1 POP DUP2 DUP2 SUB PUSH0 DUP4 ADD MSTORE PUSH2 0x425 DUP2 DUP8 PUSH2 0x331 JUMP JUMPDEST SWAP1 POP PUSH2 0x434 PUSH1 0x20 DUP4 ADD DUP7 PUSH2 0x394 JUMP JUMPDEST PUSH2 0x441 PUSH1 0x40 DUP4 ADD DUP6 PUSH2 0x3AC JUMP JUMPDEST DUP2 DUP2 SUB PUSH1 0x60 DUP4 ADD MSTORE PUSH2 0x453 DUP2 DUP5 PUSH2 0x3D5 JUMP JUMPDEST SWAP1 POP SWAP6 SWAP5 POP POP POP POP POP JUMP JUMPDEST PUSH0 DUP2 SWAP1 POP SWAP2 SWAP1 POP JUMP JUMPDEST PUSH2 0x470 DUP2 PUSH2 0x45E JUMP JUMPDEST DUP3 MSTORE POP POP JUMP JUMPDEST PUSH0 PUSH1 0x20 DUP3 ADD SWAP1 POP PUSH2 0x489 PUSH0 DUP4 ADD DUP5 PUSH2 0x467 JUMP JUMPDEST SWAP3 SWAP2 POP POP JUMP JUMPDEST PUSH0 PUSH1 0x20 DUP3 ADD SWAP1 POP DUP2 DUP2 SUB PUSH0 DUP4 ADD MSTORE PUSH2 0x4A7 DUP2 DUP5 PUSH2 0x3D5 JUMP JUMPDEST SWAP1 POP SWAP3 SWAP2 POP POP JUMP JUMPDEST PUSH0 PUSH1 0x20 DUP3 ADD SWAP1 POP PUSH2 0x4C2 PUSH0 DUP4 ADD DUP5 PUSH2 0x394 JUMP JUMPDEST SWAP3 SWAP2 POP POP JUMP JUMPDEST PUSH0 PUSH0 REVERT JUMPDEST PUSH2 0x4D5 DUP2 PUSH2 0x45E JUMP JUMPDEST DUP2 EQ PUSH2 0x4DF JUMPI PUSH0 PUSH0 REVERT JUMPDEST POP JUMP JUMPDEST PUSH0 DUP2 CALLDATALOAD SWAP1 POP PUSH2 0x4F0 DUP2 PUSH2 0x4CC JUMP JUMPDEST SWAP3 SWAP2 POP POP JUMP JUMPDEST PUSH0 PUSH1 0x20 DUP3 DUP5 SUB SLT ISZERO PUSH2 0x50B JUMPI PUSH2 0x50A PUSH2 0x4C8 JUMP JUMPDEST JUMPDEST PUSH0 PUSH2 0x518 DUP5 DUP3 DUP6 ADD PUSH2 0x4E2 JUMP JUMPDEST SWAP2 POP POP SWAP3 SWAP2 POP POP JUMP JUMPDEST PUSH32 0x4E487B7100000000000000000000000000000000000000000000000000000000 PUSH0 MSTORE PUSH1 0x22 PUSH1 0x4 MSTORE PUSH1 0x24 PUSH0 REVERT JUMPDEST PUSH0 PUSH1 0x2 DUP3 DIV SWAP1 POP PUSH1 0x1 DUP3 AND DUP1 PUSH2 0x565 JUMPI PUSH1 0x7F DUP3 AND SWAP2 POP JUMPDEST PUSH1 0x20 DUP3 LT DUP2 SUB PUSH2 0x578 JUMPI PUSH2 0x577 PUSH2 0x521 JUMP JUMPDEST JUMPDEST POP SWAP2 SWAP1 POP JUMP INVALID LOG2 PUSH5 0x6970667358 0x22 SLT KECCAK256 0x27 0x4E 0xC8 COINBASE CREATE2 SWAP16 SHR DUP10 SDIV DUP2 PUSH0 PUSH29 0xA92BDDA01BEECC2EF686A1CDB1AA92D328727DCD64736F6C634300081E STOP CALLER "
				},
				"gasEstimates": {
					"creation": {
						"codeDepositCost": "292000",
						"executionCost": "infinite",
						"totalCost": "infinite"
					},
					"external": {
						"getBytes()": "infinite",
						"lala()": "2532",
						"nbr()": "2448",
						"newStr()": "infinite",
						"retrieve()": "2477",
						"something()": "2507",
						"updateNbr(uint256)": "22559"
					}
				},
				"methodIdentifiers": {
					"getBytes()": "0bcd3b33",
					"lala()": "db50be82",
					"nbr()": "204667a1",
					"newStr()": "3b6dc266",
					"retrieve()": "2e64cec1",
					"something()": "a7a0d537",
					"updateNbr(uint256)": "cad08b8b"
				}
			},
			"storageLayout": {
				"storage": [
					{
						"astId": 209,
						"contract": "contracts/simpleStorage.sol:SimpleStorage",
						"label": "metaMask",
						"offset": 0,
						"slot": "0",
						"type": "t_address"
					},
					{
						"astId": 211,
						"contract": "contracts/simpleStorage.sol:SimpleStorage",
						"label": "nbr",
						"offset": 0,
						"slot": "1",
						"type": "t_uint256"
					},
					{
						"astId": 214,
						"contract": "contracts/simpleStorage.sol:SimpleStorage",
						"label": "newStr",
						"offset": 0,
						"slot": "2",
						"type": "t_string_storage"
					},
					{
						"astId": 217,
						"contract": "contracts/simpleStorage.sol:SimpleStorage",
						"label": "lala",
						"offset": 0,
						"slot": "3",
						"type": "t_bytes8"
					}
				],
				"types": {
					"t_address": {
						"encoding": "inplace",
						"label": "address",
						"numberOfBytes": "20"
					},
					"t_bytes8": {
						"encoding": "inplace",
						"label": "bytes8",
						"numberOfBytes": "8"
					},
					"t_string_storage": {
						"encoding": "bytes",
						"label": "string",
						"numberOfBytes": "32"
					},
					"t_uint256": {
						"encoding": "inplace",
						"label": "uint256",
						"numberOfBytes": "32"
					}
				}
			},
			"userdoc": {
				"kind": "user",
				"methods": {},
				"version": 1
			}
		}
	}
}