{
	"data": {
		"bytecode": {
			"linkReferences": {},
			"object": "608060405273deadbeef000000000000000000000000000000005f5f6101000a81548173ffffffffffffffffffffffffffffffffffffffff021916908373ffffffffffffffffffffffffffffffffffffffff1602179055507f76657279536563726574000000000000000000000000000000000000000000005f60146101000a81548169ffffffffffffffffffff021916908360b01c021790555034801560a4575f5ffd5b50610cc9806100b25f395ff3fe608060405234801561000f575f5ffd5b5060043610610055575f3560e01c806317a8f8c6146100595780632e64cec1146100755780633eae68bb146100935780638265789f146100c3578063d5d0a74f146100f4575b5f5ffd5b610073600480360381019061006e919061054a565b610124565b005b61007d6101ea565b60405161008a91906105e6565b60405180910390f35b6100ad60048036038101906100a89190610635565b610211565b6040516100ba91906105e6565b60405180910390f35b6100dd60048036038101906100d89190610660565b61035e565b6040516100eb92919061070a565b60405180910390f35b61010e60048036038101906101099190610660565b610413565b60405161011b9190610738565b60405180910390f35b6002604051806040016040528085815260200184848080601f0160208091040260200160405190810160405280939291908181526020018383808284375f81840152601f19601f82011690508083019250505050505050815250908060018154018082558091505060019003905f5260205f2090600202015f909190919091505f820151815f015560208201518160010190816101c19190610982565b505050818160015f8681526020019081526020015f2091826101e4929190610a5b565b50505050565b5f5f5f9054906101000a900473ffffffffffffffffffffffffffffffffffffffff16905090565b5f60605f8360ff16036102935760d560f81b609460f81b5f5f9054906101000a900473ffffffffffffffffffffffffffffffffffffffff167f200000000000000000000000000000000000000000000000000000000000000060405160200161027d9493929190610bb8565b6040516020818303038152906040529050610342565b607f8360ff16111580156102a957505f8360ff16115b156103065760d560f81b609460f81b5f5f9054906101000a900473ffffffffffffffffffffffffffffffffffffffff168560f81b6040516020016102f09493929190610bb8565b6040516020818303038152906040529050610341565b6040517f08c379a000000000000000000000000000000000000000000000000000000000815260040161033890610c75565b60405180910390fd5b5b5f818051906020012090505f815f1c9050809350505050919050565b6002818154811061036d575f80fd5b905f5260205f2090600202015f91509050805f015490806001018054610392906107b2565b80601f01602080910402602001604051908101604052809291908181526020018280546103be906107b2565b80156104095780601f106103e057610100808354040283529160200191610409565b820191905f5260205f20905b8154815290600101906020018083116103ec57829003601f168201915b5050505050905082565b6001602052805f5260405f205f91509050805461042f906107b2565b80601f016020809104026020016040519081016040528092919081815260200182805461045b906107b2565b80156104a65780601f1061047d576101008083540402835291602001916104a6565b820191905f5260205f20905b81548152906001019060200180831161048957829003601f168201915b505050505081565b5f5ffd5b5f5ffd5b5f819050919050565b6104c8816104b6565b81146104d2575f5ffd5b50565b5f813590506104e3816104bf565b92915050565b5f5ffd5b5f5ffd5b5f5ffd5b5f5f83601f84011261050a576105096104e9565b5b8235905067ffffffffffffffff811115610527576105266104ed565b5b602083019150836001820283011115610543576105426104f1565b5b9250929050565b5f5f5f60408486031215610561576105606104ae565b5b5f61056e868287016104d5565b935050602084013567ffffffffffffffff81111561058f5761058e6104b2565b5b61059b868287016104f5565b92509250509250925092565b5f73ffffffffffffffffffffffffffffffffffffffff82169050919050565b5f6105d0826105a7565b9050919050565b6105e0816105c6565b82525050565b5f6020820190506105f95f8301846105d7565b92915050565b5f60ff82169050919050565b610614816105ff565b811461061e575f5ffd5b50565b5f8135905061062f8161060b565b92915050565b5f6020828403121561064a576106496104ae565b5b5f61065784828501610621565b91505092915050565b5f60208284031215610675576106746104ae565b5b5f610682848285016104d5565b91505092915050565b610694816104b6565b82525050565b5f81519050919050565b5f82825260208201905092915050565b8281835e5f83830152505050565b5f601f19601f8301169050919050565b5f6106dc8261069a565b6106e681856106a4565b93506106f68185602086016106b4565b6106ff816106c2565b840191505092915050565b5f60408201905061071d5f83018561068b565b818103602083015261072f81846106d2565b90509392505050565b5f6020820190508181035f83015261075081846106d2565b905092915050565b7f4e487b71000000000000000000000000000000000000000000000000000000005f52604160045260245ffd5b7f4e487b71000000000000000000000000000000000000000000000000000000005f52602260045260245ffd5b5f60028204905060018216806107c957607f821691505b6020821081036107dc576107db610785565b5b50919050565b5f819050815f5260205f209050919050565b5f6020601f8301049050919050565b5f82821b905092915050565b5f6008830261083e7fffffffffffffffffffffffffffffffffffffffffffffffffffffffffffffffff82610803565b6108488683610803565b95508019841693508086168417925050509392505050565b5f819050919050565b5f61088361087e610879846104b6565b610860565b6104b6565b9050919050565b5f819050919050565b61089c83610869565b6108b06108a88261088a565b84845461080f565b825550505050565b5f5f905090565b6108c76108b8565b6108d2818484610893565b505050565b5b818110156108f5576108ea5f826108bf565b6001810190506108d8565b5050565b601f82111561093a5761090b816107e2565b610914846107f4565b81016020851015610923578190505b61093761092f856107f4565b8301826108d7565b50505b505050565b5f82821c905092915050565b5f61095a5f198460080261093f565b1980831691505092915050565b5f610972838361094b565b9150826002028217905092915050565b61098b8261069a565b67ffffffffffffffff8111156109a4576109a3610758565b5b6109ae82546107b2565b6109b98282856108f9565b5f60209050601f8311600181146109ea575f84156109d8578287015190505b6109e28582610967565b865550610a49565b601f1984166109f8866107e2565b5f5b82811015610a1f578489015182556001820191506020850194506020810190506109fa565b86831015610a3c5784890151610a38601f89168261094b565b8355505b6001600288020188555050505b505050505050565b5f82905092915050565b610a658383610a51565b67ffffffffffffffff811115610a7e57610a7d610758565b5b610a8882546107b2565b610a938282856108f9565b5f601f831160018114610ac0575f8415610aae578287013590505b610ab88582610967565b865550610b1f565b601f198416610ace866107e2565b5f5b82811015610af557848901358255600182019150602085019450602081019050610ad0565b86831015610b125784890135610b0e601f89168261094b565b8355505b6001600288020188555050505b50505050505050565b5f7fff0000000000000000000000000000000000000000000000000000000000000082169050919050565b5f819050919050565b610b6d610b6882610b28565b610b53565b82525050565b5f8160601b9050919050565b5f610b8982610b73565b9050919050565b5f610b9a82610b7f565b9050919050565b610bb2610bad826105c6565b610b90565b82525050565b5f610bc38287610b5c565b600182019150610bd38286610b5c565b600182019150610be38285610ba1565b601482019150610bf38284610b5c565b60018201915081905095945050505050565b7f546865206e6f6e636520697320746f206869676820746f20636f756e742069745f8201527f206d616e75616c6c790a00000000000000000000000000000000000000000000602082015250565b5f610c5f602a836106a4565b9150610c6a82610c05565b604082019050919050565b5f6020820190508181035f830152610c8c81610c53565b905091905056fea26469706673582212202eb0a18d910d2054fc521d2e140287ccee7944a58a23e9322ded6bd46b0f8e1664736f6c634300081e0033",
			"opcodes": "PUSH1 0x80 PUSH1 0x40 MSTORE PUSH20 0xDEADBEEF00000000000000000000000000000000 PUSH0 PUSH0 PUSH2 0x100 EXP DUP2 SLOAD DUP2 PUSH20 0xFFFFFFFFFFFFFFFFFFFFFFFFFFFFFFFFFFFFFFFF MUL NOT AND SWAP1 DUP4 PUSH20 0xFFFFFFFFFFFFFFFFFFFFFFFFFFFFFFFFFFFFFFFF AND MUL OR SWAP1 SSTORE POP PUSH32 0x7665727953656372657400000000000000000000000000000000000000000000 PUSH0 PUSH1 0x14 PUSH2 0x100 EXP DUP2 SLOAD DUP2 PUSH10 0xFFFFFFFFFFFFFFFFFFFF MUL NOT AND SWAP1 DUP4 PUSH1 0xB0 SHR MUL OR SWAP1 SSTORE POP CALLVALUE DUP1 ISZERO PUSH1 0xA4 JUMPI PUSH0 PUSH0 REVERT JUMPDEST POP PUSH2 0xCC9 DUP1 PUSH2 0xB2 PUSH0 CODECOPY PUSH0 RETURN INVALID PUSH1 0x80 PUSH1 0x40 MSTORE CALLVALUE DUP1 ISZERO PUSH2 0xF JUMPI PUSH0 PUSH0 REVERT JUMPDEST POP PUSH1 0x4 CALLDATASIZE LT PUSH2 0x55 JUMPI PUSH0 CALLDATALOAD PUSH1 0xE0 SHR DUP1 PUSH4 0x17A8F8C6 EQ PUSH2 0x59 JUMPI DUP1 PUSH4 0x2E64CEC1 EQ PUSH2 0x75 JUMPI DUP1 PUSH4 0x3EAE68BB EQ PUSH2 0x93 JUMPI DUP1 PUSH4 0x8265789F EQ PUSH2 0xC3 JUMPI DUP1 PUSH4 0xD5D0A74F EQ PUSH2 0xF4 JUMPI JUMPDEST PUSH0 PUSH0 REVERT JUMPDEST PUSH2 0x73 PUSH1 0x4 DUP1 CALLDATASIZE SUB DUP2 ADD SWAP1 PUSH2 0x6E SWAP2 SWAP1 PUSH2 0x54A JUMP JUMPDEST PUSH2 0x124 JUMP JUMPDEST STOP JUMPDEST PUSH2 0x7D PUSH2 0x1EA JUMP JUMPDEST PUSH1 0x40 MLOAD PUSH2 0x8A SWAP2 SWAP1 PUSH2 0x5E6 JUMP JUMPDEST PUSH1 0x40 MLOAD DUP1 SWAP2 SUB SWAP1 RETURN JUMPDEST PUSH2 0xAD PUSH1 0x4 DUP1 CALLDATASIZE SUB DUP2 ADD SWAP1 PUSH2 0xA8 SWAP2 SWAP1 PUSH2 0x635 JUMP JUMPDEST PUSH2 0x211 JUMP JUMPDEST PUSH1 0x40 MLOAD PUSH2 0xBA SWAP2 SWAP1 PUSH2 0x5E6 JUMP JUMPDEST PUSH1 0x40 MLOAD DUP1 SWAP2 SUB SWAP1 RETURN JUMPDEST PUSH2 0xDD PUSH1 0x4 DUP1 CALLDATASIZE SUB DUP2 ADD SWAP1 PUSH2 0xD8 SWAP2 SWAP1 PUSH2 0x660 JUMP JUMPDEST PUSH2 0x35E JUMP JUMPDEST PUSH1 0x40 MLOAD PUSH2 0xEB SWAP3 SWAP2 SWAP1 PUSH2 0x70A JUMP JUMPDEST PUSH1 0x40 MLOAD DUP1 SWAP2 SUB SWAP1 RETURN JUMPDEST PUSH2 0x10E PUSH1 0x4 DUP1 CALLDATASIZE SUB DUP2 ADD SWAP1 PUSH2 0x109 SWAP2 SWAP1 PUSH2 0x660 JUMP JUMPDEST PUSH2 0x413 JUMP JUMPDEST PUSH1 0x40 MLOAD PUSH2 0x11B SWAP2 SWAP1 PUSH2 0x738 JUMP JUMPDEST PUSH1 0x40 MLOAD DUP1 SWAP2 SUB SWAP1 RETURN JUMPDEST PUSH1 0x2 PUSH1 0x40 MLOAD DUP1 PUSH1 0x40 ADD PUSH1 0x40 MSTORE DUP1 DUP6 DUP2 MSTORE PUSH1 0x20 ADD DUP5 DUP5 DUP1 DUP1 PUSH1 0x1F ADD PUSH1 0x20 DUP1 SWAP2 DIV MUL PUSH1 0x20 ADD PUSH1 0x40 MLOAD SWAP1 DUP2 ADD PUSH1 0x40 MSTORE DUP1 SWAP4 SWAP3 SWAP2 SWAP1 DUP2 DUP2 MSTORE PUSH1 0x20 ADD DUP4 DUP4 DUP1 DUP3 DUP5 CALLDATACOPY PUSH0 DUP2 DUP5 ADD MSTORE PUSH1 0x1F NOT PUSH1 0x1F DUP3 ADD AND SWAP1 POP DUP1 DUP4 ADD SWAP3 POP POP POP POP POP POP POP DUP2 MSTORE POP SWAP1 DUP1 PUSH1 0x1 DUP2 SLOAD ADD DUP1 DUP3 SSTORE DUP1 SWAP2 POP POP PUSH1 0x1 SWAP1 SUB SWAP1 PUSH0 MSTORE PUSH1 0x20 PUSH0 KECCAK256 SWAP1 PUSH1 0x2 MUL ADD PUSH0 SWAP1 SWAP2 SWAP1 SWAP2 SWAP1 SWAP2 POP PUSH0 DUP3 ADD MLOAD DUP2 PUSH0 ADD SSTORE PUSH1 0x20 DUP3 ADD MLOAD DUP2 PUSH1 0x1 ADD SWAP1 DUP2 PUSH2 0x1C1 SWAP2 SWAP1 PUSH2 0x982 JUMP JUMPDEST POP POP POP DUP2 DUP2 PUSH1 0x1 PUSH0 DUP7 DUP2 MSTORE PUSH1 0x20 ADD SWAP1 DUP2 MSTORE PUSH1 0x20 ADD PUSH0 KECCAK256 SWAP2 DUP3 PUSH2 0x1E4 SWAP3 SWAP2 SWAP1 PUSH2 0xA5B JUMP JUMPDEST POP POP POP POP JUMP JUMPDEST PUSH0 PUSH0 PUSH0 SWAP1 SLOAD SWAP1 PUSH2 0x100 EXP SWAP1 DIV PUSH20 0xFFFFFFFFFFFFFFFFFFFFFFFFFFFFFFFFFFFFFFFF AND SWAP1 POP SWAP1 JUMP JUMPDEST PUSH0 PUSH1 0x60 PUSH0 DUP4 PUSH1 0xFF AND SUB PUSH2 0x293 JUMPI PUSH1 0xD5 PUSH1 0xF8 SHL PUSH1 0x94 PUSH1 0xF8 SHL PUSH0 PUSH0 SWAP1 SLOAD SWAP1 PUSH2 0x100 EXP SWAP1 DIV PUSH20 0xFFFFFFFFFFFFFFFFFFFFFFFFFFFFFFFFFFFFFFFF AND PUSH32 0x2000000000000000000000000000000000000000000000000000000000000000 PUSH1 0x40 MLOAD PUSH1 0x20 ADD PUSH2 0x27D SWAP5 SWAP4 SWAP3 SWAP2 SWAP1 PUSH2 0xBB8 JUMP JUMPDEST PUSH1 0x40 MLOAD PUSH1 0x20 DUP2 DUP4 SUB SUB DUP2 MSTORE SWAP1 PUSH1 0x40 MSTORE SWAP1 POP PUSH2 0x342 JUMP JUMPDEST PUSH1 0x7F DUP4 PUSH1 0xFF AND GT ISZERO DUP1 ISZERO PUSH2 0x2A9 JUMPI POP PUSH0 DUP4 PUSH1 0xFF AND GT JUMPDEST ISZERO PUSH2 0x306 JUMPI PUSH1 0xD5 PUSH1 0xF8 SHL PUSH1 0x94 PUSH1 0xF8 SHL PUSH0 PUSH0 SWAP1 SLOAD SWAP1 PUSH2 0x100 EXP SWAP1 DIV PUSH20 0xFFFFFFFFFFFFFFFFFFFFFFFFFFFFFFFFFFFFFFFF AND DUP6 PUSH1 0xF8 SHL PUSH1 0x40 MLOAD PUSH1 0x20 ADD PUSH2 0x2F0 SWAP5 SWAP4 SWAP3 SWAP2 SWAP1 PUSH2 0xBB8 JUMP JUMPDEST PUSH1 0x40 MLOAD PUSH1 0x20 DUP2 DUP4 SUB SUB DUP2 MSTORE SWAP1 PUSH1 0x40 MSTORE SWAP1 POP PUSH2 0x341 JUMP JUMPDEST PUSH1 0x40 MLOAD PUSH32 0x8C379A000000000000000000000000000000000000000000000000000000000 DUP2 MSTORE PUSH1 0x4 ADD PUSH2 0x338 SWAP1 PUSH2 0xC75 JUMP JUMPDEST PUSH1 0x40 MLOAD DUP1 SWAP2 SUB SWAP1 REVERT JUMPDEST JUMPDEST PUSH0 DUP2 DUP1 MLOAD SWAP1 PUSH1 0x20 ADD KECCAK256 SWAP1 POP PUSH0 DUP2 PUSH0 SHR SWAP1 POP DUP1 SWAP4 POP POP POP POP SWAP2 SWAP1 POP JUMP JUMPDEST PUSH1 0x2 DUP2 DUP2 SLOAD DUP2 LT PUSH2 0x36D JUMPI PUSH0 DUP1 REVERT JUMPDEST SWAP1 PUSH0 MSTORE PUSH1 0x20 PUSH0 KECCAK256 SWAP1 PUSH1 0x2 MUL ADD PUSH0 SWAP2 POP SWAP1 POP DUP1 PUSH0 ADD SLOAD SWAP1 DUP1 PUSH1 0x1 ADD DUP1 SLOAD PUSH2 0x392 SWAP1 PUSH2 0x7B2 JUMP JUMPDEST DUP1 PUSH1 0x1F ADD PUSH1 0x20 DUP1 SWAP2 DIV MUL PUSH1 0x20 ADD PUSH1 0x40 MLOAD SWAP1 DUP2 ADD PUSH1 0x40 MSTORE DUP1 SWAP3 SWAP2 SWAP1 DUP2 DUP2 MSTORE PUSH1 0x20 ADD DUP3 DUP1 SLOAD PUSH2 0x3BE SWAP1 PUSH2 0x7B2 JUMP JUMPDEST DUP1 ISZERO PUSH2 0x409 JUMPI DUP1 PUSH1 0x1F LT PUSH2 0x3E0 JUMPI PUSH2 0x100 DUP1 DUP4 SLOAD DIV MUL DUP4 MSTORE SWAP2 PUSH1 0x20 ADD SWAP2 PUSH2 0x409 JUMP JUMPDEST DUP3 ADD SWAP2 SWAP1 PUSH0 MSTORE PUSH1 0x20 PUSH0 KECCAK256 SWAP1 JUMPDEST DUP2 SLOAD DUP2 MSTORE SWAP1 PUSH1 0x1 ADD SWAP1 PUSH1 0x20 ADD DUP1 DUP4 GT PUSH2 0x3EC JUMPI DUP3 SWAP1 SUB PUSH1 0x1F AND DUP3 ADD SWAP2 JUMPDEST POP POP POP POP POP SWAP1 POP DUP3 JUMP JUMPDEST PUSH1 0x1 PUSH1 0x20 MSTORE DUP1 PUSH0 MSTORE PUSH1 0x40 PUSH0 KECCAK256 PUSH0 SWAP2 POP SWAP1 POP DUP1 SLOAD PUSH2 0x42F SWAP1 PUSH2 0x7B2 JUMP JUMPDEST DUP1 PUSH1 0x1F ADD PUSH1 0x20 DUP1 SWAP2 DIV MUL PUSH1 0x20 ADD PUSH1 0x40 MLOAD SWAP1 DUP2 ADD PUSH1 0x40 MSTORE DUP1 SWAP3 SWAP2 SWAP1 DUP2 DUP2 MSTORE PUSH1 0x20 ADD DUP3 DUP1 SLOAD PUSH2 0x45B SWAP1 PUSH2 0x7B2 JUMP JUMPDEST DUP1 ISZERO PUSH2 0x4A6 JUMPI DUP1 PUSH1 0x1F LT PUSH2 0x47D JUMPI PUSH2 0x100 DUP1 DUP4 SLOAD DIV MUL DUP4 MSTORE SWAP2 PUSH1 0x20 ADD SWAP2 PUSH2 0x4A6 JUMP JUMPDEST DUP3 ADD SWAP2 SWAP1 PUSH0 MSTORE PUSH1 0x20 PUSH0 KECCAK256 SWAP1 JUMPDEST DUP2 SLOAD DUP2 MSTORE SWAP1 PUSH1 0x1 ADD SWAP1 PUSH1 0x20 ADD DUP1 DUP4 GT PUSH2 0x489 JUMPI DUP3 SWAP1 SUB PUSH1 0x1F AND DUP3 ADD SWAP2 JUMPDEST POP POP POP POP POP DUP2 JUMP JUMPDEST PUSH0 PUSH0 REVERT JUMPDEST PUSH0 PUSH0 REVERT JUMPDEST PUSH0 DUP2 SWAP1 POP SWAP2 SWAP1 POP JUMP JUMPDEST PUSH2 0x4C8 DUP2 PUSH2 0x4B6 JUMP JUMPDEST DUP2 EQ PUSH2 0x4D2 JUMPI PUSH0 PUSH0 REVERT JUMPDEST POP JUMP JUMPDEST PUSH0 DUP2 CALLDATALOAD SWAP1 POP PUSH2 0x4E3 DUP2 PUSH2 0x4BF JUMP JUMPDEST SWAP3 SWAP2 POP POP JUMP JUMPDEST PUSH0 PUSH0 REVERT JUMPDEST PUSH0 PUSH0 REVERT JUMPDEST PUSH0 PUSH0 REVERT JUMPDEST PUSH0 PUSH0 DUP4 PUSH1 0x1F DUP5 ADD SLT PUSH2 0x50A JUMPI PUSH2 0x509 PUSH2 0x4E9 JUMP JUMPDEST JUMPDEST DUP3 CALLDATALOAD SWAP1 POP PUSH8 0xFFFFFFFFFFFFFFFF DUP2 GT ISZERO PUSH2 0x527 JUMPI PUSH2 0x526 PUSH2 0x4ED JUMP JUMPDEST JUMPDEST PUSH1 0x20 DUP4 ADD SWAP2 POP DUP4 PUSH1 0x1 DUP3 MUL DUP4 ADD GT ISZERO PUSH2 0x543 JUMPI PUSH2 0x542 PUSH2 0x4F1 JUMP JUMPDEST JUMPDEST SWAP3 POP SWAP3 SWAP1 POP JUMP JUMPDEST PUSH0 PUSH0 PUSH0 PUSH1 0x40 DUP5 DUP7 SUB SLT ISZERO PUSH2 0x561 JUMPI PUSH2 0x560 PUSH2 0x4AE JUMP JUMPDEST JUMPDEST PUSH0 PUSH2 0x56E DUP7 DUP3 DUP8 ADD PUSH2 0x4D5 JUMP JUMPDEST SWAP4 POP POP PUSH1 0x20 DUP5 ADD CALLDATALOAD PUSH8 0xFFFFFFFFFFFFFFFF DUP2 GT ISZERO PUSH2 0x58F JUMPI PUSH2 0x58E PUSH2 0x4B2 JUMP JUMPDEST JUMPDEST PUSH2 0x59B DUP7 DUP3 DUP8 ADD PUSH2 0x4F5 JUMP JUMPDEST SWAP3 POP SWAP3 POP POP SWAP3 POP SWAP3 POP SWAP3 JUMP JUMPDEST PUSH0 PUSH20 0xFFFFFFFFFFFFFFFFFFFFFFFFFFFFFFFFFFFFFFFF DUP3 AND SWAP1 POP SWAP2 SWAP1 POP JUMP JUMPDEST PUSH0 PUSH2 0x5D0 DUP3 PUSH2 0x5A7 JUMP JUMPDEST SWAP1 POP SWAP2 SWAP1 POP JUMP JUMPDEST PUSH2 0x5E0 DUP2 PUSH2 0x5C6 JUMP JUMPDEST DUP3 MSTORE POP POP JUMP JUMPDEST PUSH0 PUSH1 0x20 DUP3 ADD SWAP1 POP PUSH2 0x5F9 PUSH0 DUP4 ADD DUP5 PUSH2 0x5D7 JUMP JUMPDEST SWAP3 SWAP2 POP POP JUMP JUMPDEST PUSH0 PUSH1 0xFF DUP3 AND SWAP1 POP SWAP2 SWAP1 POP JUMP JUMPDEST PUSH2 0x614 DUP2 PUSH2 0x5FF JUMP JUMPDEST DUP2 EQ PUSH2 0x61E JUMPI PUSH0 PUSH0 REVERT JUMPDEST POP JUMP JUMPDEST PUSH0 DUP2 CALLDATALOAD SWAP1 POP PUSH2 0x62F DUP2 PUSH2 0x60B JUMP JUMPDEST SWAP3 SWAP2 POP POP JUMP JUMPDEST PUSH0 PUSH1 0x20 DUP3 DUP5 SUB SLT ISZERO PUSH2 0x64A JUMPI PUSH2 0x649 PUSH2 0x4AE JUMP JUMPDEST JUMPDEST PUSH0 PUSH2 0x657 DUP5 DUP3 DUP6 ADD PUSH2 0x621 JUMP JUMPDEST SWAP2 POP POP SWAP3 SWAP2 POP POP JUMP JUMPDEST PUSH0 PUSH1 0x20 DUP3 DUP5 SUB SLT ISZERO PUSH2 0x675 JUMPI PUSH2 0x674 PUSH2 0x4AE JUMP JUMPDEST JUMPDEST PUSH0 PUSH2 0x682 DUP5 DUP3 DUP6 ADD PUSH2 0x4D5 JUMP JUMPDEST SWAP2 POP POP SWAP3 SWAP2 POP POP JUMP JUMPDEST PUSH2 0x694 DUP2 PUSH2 0x4B6 JUMP JUMPDEST DUP3 MSTORE POP POP JUMP JUMPDEST PUSH0 DUP2 MLOAD SWAP1 POP SWAP2 SWAP1 POP JUMP JUMPDEST PUSH0 DUP3 DUP3 MSTORE PUSH1 0x20 DUP3 ADD SWAP1 POP SWAP3 SWAP2 POP POP JUMP JUMPDEST DUP3 DUP2 DUP4 MCOPY PUSH0 DUP4 DUP4 ADD MSTORE POP POP POP JUMP JUMPDEST PUSH0 PUSH1 0x1F NOT PUSH1 0x1F DUP4 ADD AND SWAP1 POP SWAP2 SWAP1 POP JUMP JUMPDEST PUSH0 PUSH2 0x6DC DUP3 PUSH2 0x69A JUMP JUMPDEST PUSH2 0x6E6 DUP2 DUP6 PUSH2 0x6A4 JUMP JUMPDEST SWAP4 POP PUSH2 0x6F6 DUP2 DUP6 PUSH1 0x20 DUP7 ADD PUSH2 0x6B4 JUMP JUMPDEST PUSH2 0x6FF DUP2 PUSH2 0x6C2 JUMP JUMPDEST DUP5 ADD SWAP2 POP POP SWAP3 SWAP2 POP POP JUMP JUMPDEST PUSH0 PUSH1 0x40 DUP3 ADD SWAP1 POP PUSH2 0x71D PUSH0 DUP4 ADD DUP6 PUSH2 0x68B JUMP JUMPDEST DUP2 DUP2 SUB PUSH1 0x20 DUP4 ADD MSTORE PUSH2 0x72F DUP2 DUP5 PUSH2 0x6D2 JUMP JUMPDEST SWAP1 POP SWAP4 SWAP3 POP POP POP JUMP JUMPDEST PUSH0 PUSH1 0x20 DUP3 ADD SWAP1 POP DUP2 DUP2 SUB PUSH0 DUP4 ADD MSTORE PUSH2 0x750 DUP2 DUP5 PUSH2 0x6D2 JUMP JUMPDEST SWAP1 POP SWAP3 SWAP2 POP POP JUMP JUMPDEST PUSH32 0x4E487B7100000000000000000000000000000000000000000000000000000000 PUSH0 MSTORE PUSH1 0x41 PUSH1 0x4 MSTORE PUSH1 0x24 PUSH0 REVERT JUMPDEST PUSH32 0x4E487B7100000000000000000000000000000000000000000000000000000000 PUSH0 MSTORE PUSH1 0x22 PUSH1 0x4 MSTORE PUSH1 0x24 PUSH0 REVERT JUMPDEST PUSH0 PUSH1 0x2 DUP3 DIV SWAP1 POP PUSH1 0x1 DUP3 AND DUP1 PUSH2 0x7C9 JUMPI PUSH1 0x7F DUP3 AND SWAP2 POP JUMPDEST PUSH1 0x20 DUP3 LT DUP2 SUB PUSH2 0x7DC JUMPI PUSH2 0x7DB PUSH2 0x785 JUMP JUMPDEST JUMPDEST POP SWAP2 SWAP1 POP JUMP JUMPDEST PUSH0 DUP2 SWAP1 POP DUP2 PUSH0 MSTORE PUSH1 0x20 PUSH0 KECCAK256 SWAP1 POP SWAP2 SWAP1 POP JUMP JUMPDEST PUSH0 PUSH1 0x20 PUSH1 0x1F DUP4 ADD DIV SWAP1 POP SWAP2 SWAP1 POP JUMP JUMPDEST PUSH0 DUP3 DUP3 SHL SWAP1 POP SWAP3 SWAP2 POP POP JUMP JUMPDEST PUSH0 PUSH1 0x8 DUP4 MUL PUSH2 0x83E PUSH32 0xFFFFFFFFFFFFFFFFFFFFFFFFFFFFFFFFFFFFFFFFFFFFFFFFFFFFFFFFFFFFFFFF DUP3 PUSH2 0x803 JUMP JUMPDEST PUSH2 0x848 DUP7 DUP4 PUSH2 0x803 JUMP JUMPDEST SWAP6 POP DUP1 NOT DUP5 AND SWAP4 POP DUP1 DUP7 AND DUP5 OR SWAP3 POP POP POP SWAP4 SWAP3 POP POP POP JUMP JUMPDEST PUSH0 DUP2 SWAP1 POP SWAP2 SWAP1 POP JUMP JUMPDEST PUSH0 PUSH2 0x883 PUSH2 0x87E PUSH2 0x879 DUP5 PUSH2 0x4B6 JUMP JUMPDEST PUSH2 0x860 JUMP JUMPDEST PUSH2 0x4B6 JUMP JUMPDEST SWAP1 POP SWAP2 SWAP1 POP JUMP JUMPDEST PUSH0 DUP2 SWAP1 POP SWAP2 SWAP1 POP JUMP JUMPDEST PUSH2 0x89C DUP4 PUSH2 0x869 JUMP JUMPDEST PUSH2 0x8B0 PUSH2 0x8A8 DUP3 PUSH2 0x88A JUMP JUMPDEST DUP5 DUP5 SLOAD PUSH2 0x80F JUMP JUMPDEST DUP3 SSTORE POP POP POP POP JUMP JUMPDEST PUSH0 PUSH0 SWAP1 POP SWAP1 JUMP JUMPDEST PUSH2 0x8C7 PUSH2 0x8B8 JUMP JUMPDEST PUSH2 0x8D2 DUP2 DUP5 DUP5 PUSH2 0x893 JUMP JUMPDEST POP POP POP JUMP JUMPDEST JUMPDEST DUP2 DUP2 LT ISZERO PUSH2 0x8F5 JUMPI PUSH2 0x8EA PUSH0 DUP3 PUSH2 0x8BF JUMP JUMPDEST PUSH1 0x1 DUP2 ADD SWAP1 POP PUSH2 0x8D8 JUMP JUMPDEST POP POP JUMP JUMPDEST PUSH1 0x1F DUP3 GT ISZERO PUSH2 0x93A JUMPI PUSH2 0x90B DUP2 PUSH2 0x7E2 JUMP JUMPDEST PUSH2 0x914 DUP5 PUSH2 0x7F4 JUMP JUMPDEST DUP2 ADD PUSH1 0x20 DUP6 LT ISZERO PUSH2 0x923 JUMPI DUP2 SWAP1 POP JUMPDEST PUSH2 0x937 PUSH2 0x92F DUP6 PUSH2 0x7F4 JUMP JUMPDEST DUP4 ADD DUP3 PUSH2 0x8D7 JUMP JUMPDEST POP POP JUMPDEST POP POP POP JUMP JUMPDEST PUSH0 DUP3 DUP3 SHR SWAP1 POP SWAP3 SWAP2 POP POP JUMP JUMPDEST PUSH0 PUSH2 0x95A PUSH0 NOT DUP5 PUSH1 0x8 MUL PUSH2 0x93F JUMP JUMPDEST NOT DUP1 DUP4 AND SWAP2 POP POP SWAP3 SWAP2 POP POP JUMP JUMPDEST PUSH0 PUSH2 0x972 DUP4 DUP4 PUSH2 0x94B JUMP JUMPDEST SWAP2 POP DUP3 PUSH1 0x2 MUL DUP3 OR SWAP1 POP SWAP3 SWAP2 POP POP JUMP JUMPDEST PUSH2 0x98B DUP3 PUSH2 0x69A JUMP JUMPDEST PUSH8 0xFFFFFFFFFFFFFFFF DUP2 GT ISZERO PUSH2 0x9A4 JUMPI PUSH2 0x9A3 PUSH2 0x758 JUMP JUMPDEST JUMPDEST PUSH2 0x9AE DUP3 SLOAD PUSH2 0x7B2 JUMP JUMPDEST PUSH2 0x9B9 DUP3 DUP3 DUP6 PUSH2 0x8F9 JUMP JUMPDEST PUSH0 PUSH1 0x20 SWAP1 POP PUSH1 0x1F DUP4 GT PUSH1 0x1 DUP2 EQ PUSH2 0x9EA JUMPI PUSH0 DUP5 ISZERO PUSH2 0x9D8 JUMPI DUP3 DUP8 ADD MLOAD SWAP1 POP JUMPDEST PUSH2 0x9E2 DUP6 DUP3 PUSH2 0x967 JUMP JUMPDEST DUP7 SSTORE POP PUSH2 0xA49 JUMP JUMPDEST PUSH1 0x1F NOT DUP5 AND PUSH2 0x9F8 DUP7 PUSH2 0x7E2 JUMP JUMPDEST PUSH0 JUMPDEST DUP3 DUP2 LT ISZERO PUSH2 0xA1F JUMPI DUP5 DUP10 ADD MLOAD DUP3 SSTORE PUSH1 0x1 DUP3 ADD SWAP2 POP PUSH1 0x20 DUP6 ADD SWAP5 POP PUSH1 0x20 DUP2 ADD SWAP1 POP PUSH2 0x9FA JUMP JUMPDEST DUP7 DUP4 LT ISZERO PUSH2 0xA3C JUMPI DUP5 DUP10 ADD MLOAD PUSH2 0xA38 PUSH1 0x1F DUP10 AND DUP3 PUSH2 0x94B JUMP JUMPDEST DUP4 SSTORE POP JUMPDEST PUSH1 0x1 PUSH1 0x2 DUP9 MUL ADD DUP9 SSTORE POP POP POP JUMPDEST POP POP POP POP POP POP JUMP JUMPDEST PUSH0 DUP3 SWAP1 POP SWAP3 SWAP2 POP POP JUMP JUMPDEST PUSH2 0xA65 DUP4 DUP4 PUSH2 0xA51 JUMP JUMPDEST PUSH8 0xFFFFFFFFFFFFFFFF DUP2 GT ISZERO PUSH2 0xA7E JUMPI PUSH2 0xA7D PUSH2 0x758 JUMP JUMPDEST JUMPDEST PUSH2 0xA88 DUP3 SLOAD PUSH2 0x7B2 JUMP JUMPDEST PUSH2 0xA93 DUP3 DUP3 DUP6 PUSH2 0x8F9 JUMP JUMPDEST PUSH0 PUSH1 0x1F DUP4 GT PUSH1 0x1 DUP2 EQ PUSH2 0xAC0 JUMPI PUSH0 DUP5 ISZERO PUSH2 0xAAE JUMPI DUP3 DUP8 ADD CALLDATALOAD SWAP1 POP JUMPDEST PUSH2 0xAB8 DUP6 DUP3 PUSH2 0x967 JUMP JUMPDEST DUP7 SSTORE POP PUSH2 0xB1F JUMP JUMPDEST PUSH1 0x1F NOT DUP5 AND PUSH2 0xACE DUP7 PUSH2 0x7E2 JUMP JUMPDEST PUSH0 JUMPDEST DUP3 DUP2 LT ISZERO PUSH2 0xAF5 JUMPI DUP5 DUP10 ADD CALLDATALOAD DUP3 SSTORE PUSH1 0x1 DUP3 ADD SWAP2 POP PUSH1 0x20 DUP6 ADD SWAP5 POP PUSH1 0x20 DUP2 ADD SWAP1 POP PUSH2 0xAD0 JUMP JUMPDEST DUP7 DUP4 LT ISZERO PUSH2 0xB12 JUMPI DUP5 DUP10 ADD CALLDATALOAD PUSH2 0xB0E PUSH1 0x1F DUP10 AND DUP3 PUSH2 0x94B JUMP JUMPDEST DUP4 SSTORE POP JUMPDEST PUSH1 0x1 PUSH1 0x2 DUP9 MUL ADD DUP9 SSTORE POP POP POP JUMPDEST POP POP POP POP POP POP POP JUMP JUMPDEST PUSH0 PUSH32 0xFF00000000000000000000000000000000000000000000000000000000000000 DUP3 AND SWAP1 POP SWAP2 SWAP1 POP JUMP JUMPDEST PUSH0 DUP2 SWAP1 POP SWAP2 SWAP1 POP JUMP JUMPDEST PUSH2 0xB6D PUSH2 0xB68 DUP3 PUSH2 0xB28 JUMP JUMPDEST PUSH2 0xB53 JUMP JUMPDEST DUP3 MSTORE POP POP JUMP JUMPDEST PUSH0 DUP2 PUSH1 0x60 SHL SWAP1 POP SWAP2 SWAP1 POP JUMP JUMPDEST PUSH0 PUSH2 0xB89 DUP3 PUSH2 0xB73 JUMP JUMPDEST SWAP1 POP SWAP2 SWAP1 POP JUMP JUMPDEST PUSH0 PUSH2 0xB9A DUP3 PUSH2 0xB7F JUMP JUMPDEST SWAP1 POP SWAP2 SWAP1 POP JUMP JUMPDEST PUSH2 0xBB2 PUSH2 0xBAD DUP3 PUSH2 0x5C6 JUMP JUMPDEST PUSH2 0xB90 JUMP JUMPDEST DUP3 MSTORE POP POP JUMP JUMPDEST PUSH0 PUSH2 0xBC3 DUP3 DUP8 PUSH2 0xB5C JUMP JUMPDEST PUSH1 0x1 DUP3 ADD SWAP2 POP PUSH2 0xBD3 DUP3 DUP7 PUSH2 0xB5C JUMP JUMPDEST PUSH1 0x1 DUP3 ADD SWAP2 POP PUSH2 0xBE3 DUP3 DUP6 PUSH2 0xBA1 JUMP JUMPDEST PUSH1 0x14 DUP3 ADD SWAP2 POP PUSH2 0xBF3 DUP3 DUP5 PUSH2 0xB5C JUMP JUMPDEST PUSH1 0x1 DUP3 ADD SWAP2 POP DUP2 SWAP1 POP SWAP6 SWAP5 POP POP POP POP POP JUMP JUMPDEST PUSH32 0x546865206E6F6E636520697320746F206869676820746F20636F756E74206974 PUSH0 DUP3 ADD MSTORE PUSH32 0x206D616E75616C6C790A00000000000000000000000000000000000000000000 PUSH1 0x20 DUP3 ADD MSTORE POP JUMP JUMPDEST PUSH0 PUSH2 0xC5F PUSH1 0x2A DUP4 PUSH2 0x6A4 JUMP JUMPDEST SWAP2 POP PUSH2 0xC6A DUP3 PUSH2 0xC05 JUMP JUMPDEST PUSH1 0x40 DUP3 ADD SWAP1 POP SWAP2 SWAP1 POP JUMP JUMPDEST PUSH0 PUSH1 0x20 DUP3 ADD SWAP1 POP DUP2 DUP2 SUB PUSH0 DUP4 ADD MSTORE PUSH2 0xC8C DUP2 PUSH2 0xC53 JUMP JUMPDEST SWAP1 POP SWAP2 SWAP1 POP JUMP INVALID LOG2 PUSH5 0x6970667358 0x22 SLT KECCAK256 0x2E 0xB0 LOG1 DUP14 SWAP2 0xD KECCAK256 SLOAD 0xFC MSTORE SAR 0x2E EQ MUL DUP8 0xCC RETURNCONTRACT 0x79 PREVRANDAO 0xA5 DUP11 0x23 0xE9 ORIGIN 0x2D 0xED PUSH12 0xD46B0F8E1664736F6C634300 ADDMOD 0x1E STOP CALLER "
		},
		"gasEstimates": {
			"creation": {
				"codeDepositCost": "654600",
				"executionCost": "49268",
				"totalCost": "703868"
			},
			"external": {
				"addInfo(uint256,string)": "infinite",
				"contractAddress(uint8)": "infinite",
				"dayToMonth(uint256)": "infinite",
				"listOfInfo(uint256)": "infinite",
				"retrieve()": "2514"
			},
			"internal": {
				"compare(uint8)": "infinite"
			}
		},
		"methodIdentifiers": {
			"addInfo(uint256,string)": "17a8f8c6",
			"contractAddress(uint8)": "3eae68bb",
			"dayToMonth(uint256)": "d5d0a74f",
			"listOfInfo(uint256)": "8265789f",
			"retrieve()": "2e64cec1"
		}
	},
	"abi": [
		{
			"inputs": [
				{
					"internalType": "uint256",
					"name": "_day",
					"type": "uint256"
				},
				{
					"internalType": "string",
					"name": "_month",
					"type": "string"
				}
			],
			"name": "addInfo",
			"outputs": [],
			"stateMutability": "nonpayable",
			"type": "function"
		},
		{
			"inputs": [
				{
					"internalType": "uint8",
					"name": "nonce",
					"type": "uint8"
				}
			],
			"name": "contractAddress",
			"outputs": [
				{
					"internalType": "address",
					"name": "",
					"type": "address"
				}
			],
			"stateMutability": "view",
			"type": "function"
		},
		{
			"inputs": [
				{
					"internalType": "uint256",
					"name": "",
					"type": "uint256"
				}
			],
			"name": "dayToMonth",
			"outputs": [
				{
					"internalType": "string",
					"name": "",
					"type": "string"
				}
			],
			"stateMutability": "view",
			"type": "function"
		},
		{
			"inputs": [
				{
					"internalType": "uint256",
					"name": "",
					"type": "uint256"
				}
			],
			"name": "listOfInfo",
			"outputs": [
				{
					"internalType": "uint256",
					"name": "day",
					"type": "uint256"
				},
				{
					"internalType": "string",
					"name": "month",
					"type": "string"
				}
			],
			"stateMutability": "view",
			"type": "function"
		},
		{
			"inputs": [],
			"name": "retrieve",
			"outputs": [
				{
					"internalType": "address",
					"name": "",
					"type": "address"
				}
			],
			"stateMutability": "view",
			"type": "function"
		}
	]
}